{
  "contractName": "CompiledSum",
  "abi": [
    {
      "inputs": [],
      "stateMutability": "nonpayable",
      "type": "constructor"
    },
    {
      "inputs": [],
      "name": "result",
      "outputs": [
        {
          "internalType": "string",
          "name": "",
          "type": "string"
        }
      ],
      "stateMutability": "view",
      "type": "function"
    },
    {
      "inputs": [],
      "name": "state",
      "outputs": [
        {
          "internalType": "uint32",
          "name": "",
          "type": "uint32"
        }
      ],
      "stateMutability": "view",
      "type": "function"
    },
    {
      "inputs": [],
      "name": "store",
      "outputs": [
        {
          "internalType": "bytes",
          "name": "",
          "type": "bytes"
        }
      ],
      "stateMutability": "view",
      "type": "function"
    },
    {
      "inputs": [],
      "name": "times",
      "outputs": [
        {
          "internalType": "uint256",
          "name": "",
          "type": "uint256"
        }
      ],
      "stateMutability": "view",
      "type": "function"
    },
    {
      "inputs": [],
      "name": "resultlen",
      "outputs": [
        {
          "internalType": "uint256",
          "name": "",
          "type": "uint256"
        }
      ],
      "stateMutability": "nonpayable",
      "type": "function"
    },
    {
      "inputs": [
        {
          "internalType": "string",
          "name": "thePlace",
          "type": "string"
        }
      ],
      "name": "place",
      "outputs": [],
      "stateMutability": "nonpayable",
      "type": "function"
    },
    {
      "inputs": [
        {
          "internalType": "string",
          "name": "theName",
          "type": "string"
        }
      ],
      "name": "name",
      "outputs": [],
      "stateMutability": "nonpayable",
      "type": "function"
    },
    {
      "inputs": [
        {
          "internalType": "string",
          "name": "tmp",
          "type": "string"
        }
      ],
      "name": "name2",
      "outputs": [],
      "stateMutability": "nonpayable",
      "type": "function"
    }
  ],
  "bytecode": "0x608060405234801561001057600080fd5b50600260005560408051808201909152600880825267686f6c756c756c7560c01b6020909201918252610045916001916100c8565b5060408051808201825263aeb3f2a0808252825160008082526020828101865280850192909252845180860186529283528451808301909552845281019290925261008f91610094565b61019c565b60208082015180516100aa9260039201906100c8565b50516002805463ffffffff191663ffffffff90921691909117905550565b8280546100d490610161565b90600052602060002090601f0160209004810192826100f6576000855561013c565b82601f1061010f57805160ff191683800117855561013c565b8280016001018555821561013c579182015b8281111561013c578251825591602001919060010190610121565b5061014892915061014c565b5090565b5b80821115610148576000815560010161014d565b60028104600182168061017557607f821691505b6020821081141561019657634e487b7160e01b600052602260045260246000fd5b50919050565b610a8f80620001ac6000396000f3fe608060405234801561001057600080fd5b50600436106100785760003560e01c80635b43bc991461007d5780636537214714610092578063818875c8146100b057806386266678146100c3578063916a5997146100d8578063975057e7146100eb5780639e3b34bf146100f3578063c19d93fb146100fb575b600080fd5b61009061008b3660046106c5565b610110565b005b61009a610190565b6040516100a791906108dd565b60405180910390f35b6100906100be3660046106c5565b61021e565b6100cb610305565b6040516100a7919061093a565b6100906100e63660046106c5565b61031a565b61009a6103fa565b6100cb610407565b61010361040d565b6040516100a79190610943565b60025463ffffffff1663aeb3f2a0146101445760405162461bcd60e51b815260040161013b906108f7565b60405180910390fd5b60408051808201825263d01bc09b808252825160008082526020828101865280850192909252845180860186529283528451808301909552845281019290925261018d91610419565b50565b6001805461019d90610a08565b80601f01602080910402602001604051908101604052809291908181526020018280546101c990610a08565b80156102165780601f106101eb57610100808354040283529160200191610216565b820191906000526020600020905b8154815290600101906020018083116101f957829003601f168201915b505050505081565b60006003805461022d90610a08565b80601f016020809104026020016040519081016040528092919081815260200182805461025990610a08565b80156102a65780601f1061027b576101008083540402835291602001916102a6565b820191906000526020600020905b81548152906001019060200180831161028957829003601f168201915b50505050508060200190518101906102be9190610738565b80516020820151600254929350909163ffffffff1663172b5e7d146102f55760405162461bcd60e51b815260040161013b906108f7565b6102ff818361044d565b50505050565b60006001805461031490610a08565b91505090565b60006003805461032990610a08565b80601f016020809104026020016040519081016040528092919081815260200182805461035590610a08565b80156103a25780601f10610377576101008083540402835291602001916103a2565b820191906000526020600020905b81548152906001019060200180831161038557829003601f168201915b50505050508060200190518101906103ba91906107c5565b80516002549192509063ffffffff1663d01bc09b146103eb5760405162461bcd60e51b815260040161013b906108f7565b6103f5838261044d565b505050565b6003805461019d90610a08565b60005481565b60025463ffffffff1681565b602080820151805161042f9260039201906105dc565b50516002805463ffffffff191663ffffffff90921691909117905550565b600054156104b757600160005461046491906109b9565b600090815560408051808201825263172b5e7d80825282518481526020818101855280840191909152835180850185529182528351808201909452938352928301919091526104b291610419565b6105a9565b816040516020016104c891906108af565b60408051601f19818403018152908290526104e59160200161088a565b60408051601f198184030181529082905261050491839060200161085b565b60408051601f19818403018152908290526105219160200161088a565b60408051601f198184030181529082905261054091849060200161085b565b604051602081830303815290604052600190805190602001906105649291906105dc565b506105a96040518060400160405280600063ffffffff16815260200160006040516020016105929190610954565b6040516020818303038152906040528152506105ad565b5050565b6040805160208101918290526000908190526105cb916003916105dc565b50506002805463ffffffff19169055565b8280546105e890610a08565b90600052602060002090601f01602090048101928261060a5760008555610650565b82601f1061062357805160ff1916838001178555610650565b82800160010185558215610650579182015b82811115610650578251825591602001919060010190610635565b5061065c929150610660565b5090565b5b8082111561065c5760008155600101610661565b600082601f830112610685578081fd5b815161069861069382610992565b610962565b8181528460208386010111156106ac578283fd5b6106bd8260208301602087016109dc565b949350505050565b6000602082840312156106d6578081fd5b81356001600160401b038111156106eb578182fd5b8201601f810184136106fb578182fd5b803561070961069382610992565b81815285602083850101111561071d578384fd5b81602084016020830137908101602001929092525092915050565b600060208284031215610749578081fd5b81516001600160401b038082111561075f578283fd5b9083019060408286031215610772578283fd5b61077c6040610962565b82518281111561078a578485fd5b61079687828601610675565b8252506020830151828111156107aa578485fd5b6107b687828601610675565b60208301525095945050505050565b6000602082840312156107d6578081fd5b81516001600160401b03808211156107ec578283fd5b90830190602082860312156107ff578283fd5b6108096020610962565b825182811115610817578485fd5b61082387828601610675565b82525095945050505050565b600081518084526108478160208601602086016109dc565b601f01601f19169290920160200192915050565b6000835161086d8184602088016109dc565b8351908301906108818183602088016109dc565b01949350505050565b6000825161089c8184602087016109dc565b600160fd1b920191825250600101919050565b60006503432b63637960d51b825282516108d08160068501602087016109dc565b9190910160060192915050565b6000602082526108f0602083018461082f565b9392505050565b60208082526023908201527f61636365737320636f6e74726f6c206f7220666c6f77206775617264206661696040820152621b195960ea1b606082015260800190565b90815260200190565b63ffffffff91909116815260200190565b60ff91909116815260200190565b604051601f8201601f191681016001600160401b038111828210171561098a5761098a610a43565b604052919050565b60006001600160401b038211156109ab576109ab610a43565b50601f01601f191660200190565b6000828210156109d757634e487b7160e01b81526011600452602481fd5b500390565b60005b838110156109f75781810151838201526020016109df565b838111156102ff5750506000910152565b600281046001821680610a1c57607f821691505b60208210811415610a3d57634e487b7160e01b600052602260045260246000fd5b50919050565b634e487b7160e01b600052604160045260246000fdfea2646970667358221220b6a7abce5781cb45fb0eb088825f6a75c2d521c6e65fb48e19a6e29677051ca164736f6c63430008010033",
  "immutableReferences": {},
  "source": "// SPDX-License-Identifier: UNLICENSED\n// compiled with GUARD_ERROR_MESSAGES=false\npragma solidity >=0.8.0;\npragma abicoder v2;\n\ncontract CompiledSum  {\n  uint256 public times;\n  string public result;\n  function resultlen()  public returns (uint256) {\n    return(bytes(result).length);\n  } \n  struct placet {\n    string theName;\n  } \n  function place(string memory thePlace)  public {\n    placet memory userdata = abi.decode(store, (placet));\n    string memory theName = userdata.theName;\n    require((state == uint32(0xd01bc09b)), \"access control or flow guard failed\");\n    private$whil$macro$2(thePlace, theName);\n  } \n  function name(string memory theName)  public {\n    require((state == uint32(0xaeb3f2a0)), \"access control or flow guard failed\");\n    flatMap(Closure(0xd01bc09b, abi.encode()), Closure(uint32(0xd01bc09b),  hex\"\" ));\n  } \n  struct name2t {\n    string theName;\n    string thePlace;\n  } \n  function name2(string memory tmp)  public {\n    name2t memory userdata = abi.decode(store, (name2t));\n    string memory theName = userdata.theName;\n    string memory thePlace = userdata.thePlace;\n    require((state == uint32(0x172b5e7d)), \"access control or flow guard failed\");\n    private$whil$macro$2(thePlace, theName);\n  } \n  function private$whil$macro$2(string memory thePlace, string memory theName)  private {\n    if ((times > uint256(0))) {\n      (times) = (times - uint256(1));\n      flatMap(Closure(0x172b5e7d, abi.encode()), Closure(uint32(0x172b5e7d),  hex\"\" ));\n    } else {\n      (result) = string(abi.encodePacked(string(abi.encodePacked(string(abi.encodePacked(string(abi.encodePacked(string(abi.encodePacked(\"hello \", thePlace)), \" \")), theName)), \" \")), thePlace));\n      mk(Closure(0x0, abi.encode(uint8(0))));\n    } \n  } \n  constructor() {\n    times = uint256(2);\n    result = \"holululu\";\n    flatMap(Closure(0xaeb3f2a0, abi.encode()), Closure(uint32(0xaeb3f2a0),  hex\"\" ));\n    uint8(0);\n    \n  } \n  \n  uint32 public state;\n  \n  bytes public store;\n  struct Closure { uint32 id; bytes data; }\n  \n  function mk(Closure memory response) private {\n    \n    store = hex\"\";\n    state = 0;\n  }\n  \n  function flatMap(Closure memory request, Closure memory callback) private {\n    \n    store = callback.data;\n    state = callback.id;\n  }\n\n} ",
  "sourcePath": "/mnt/103A12BD3A129FB0/CAC/Projekte/2019_PL4Blockchain/CodeRepo/EvaluationCode/contracts/CompiledSum.sol",
  "compiler": {
    "name": "solc",
    "version": "0.8.1+commit.df193b15.Emscripten.clang"
  },
  "schemaVersion": "3.4.3",
  "updatedAt": "2021-10-05T07:45:50.894Z",
  "devdoc": {
    "kind": "dev",
    "methods": {},
    "version": 1
  },
  "userdoc": {
    "kind": "user",
    "methods": {},
    "version": 1
  }
}