{
  "contractName": "CompiledToken",
  "abi": [
    {
      "inputs": [
        {
          "internalType": "uint256",
          "name": "initialSupply$",
          "type": "uint256"
        }
      ],
      "stateMutability": "nonpayable",
      "type": "constructor"
    },
    {
      "anonymous": false,
      "inputs": [
        {
          "indexed": true,
          "internalType": "address",
          "name": "owner",
          "type": "address"
        },
        {
          "indexed": true,
          "internalType": "address",
          "name": "spender",
          "type": "address"
        },
        {
          "indexed": false,
          "internalType": "uint256",
          "name": "value",
          "type": "uint256"
        }
      ],
      "name": "Approval",
      "type": "event"
    },
    {
      "anonymous": false,
      "inputs": [
        {
          "indexed": true,
          "internalType": "address",
          "name": "from",
          "type": "address"
        },
        {
          "indexed": true,
          "internalType": "address",
          "name": "to",
          "type": "address"
        },
        {
          "indexed": false,
          "internalType": "uint256",
          "name": "value",
          "type": "uint256"
        }
      ],
      "name": "Transfer",
      "type": "event"
    },
    {
      "inputs": [],
      "name": "name",
      "outputs": [
        {
          "internalType": "string",
          "name": "",
          "type": "string"
        }
      ],
      "stateMutability": "view",
      "type": "function"
    },
    {
      "inputs": [
        {
          "internalType": "address",
          "name": "recipient",
          "type": "address"
        },
        {
          "internalType": "uint256",
          "name": "amount",
          "type": "uint256"
        }
      ],
      "name": "transfer",
      "outputs": [
        {
          "internalType": "bool",
          "name": "",
          "type": "bool"
        }
      ],
      "stateMutability": "nonpayable",
      "type": "function"
    },
    {
      "inputs": [
        {
          "internalType": "address",
          "name": "spender",
          "type": "address"
        },
        {
          "internalType": "uint256",
          "name": "amount",
          "type": "uint256"
        }
      ],
      "name": "approve",
      "outputs": [
        {
          "internalType": "bool",
          "name": "",
          "type": "bool"
        }
      ],
      "stateMutability": "nonpayable",
      "type": "function"
    },
    {
      "inputs": [
        {
          "internalType": "address",
          "name": "sender",
          "type": "address"
        },
        {
          "internalType": "address",
          "name": "recipient",
          "type": "address"
        },
        {
          "internalType": "uint256",
          "name": "amount",
          "type": "uint256"
        }
      ],
      "name": "transferFrom",
      "outputs": [
        {
          "internalType": "bool",
          "name": "",
          "type": "bool"
        }
      ],
      "stateMutability": "nonpayable",
      "type": "function"
    },
    {
      "inputs": [
        {
          "internalType": "address",
          "name": "owner",
          "type": "address"
        },
        {
          "internalType": "address",
          "name": "spender",
          "type": "address"
        }
      ],
      "name": "allowance",
      "outputs": [
        {
          "internalType": "uint256",
          "name": "",
          "type": "uint256"
        }
      ],
      "stateMutability": "view",
      "type": "function"
    },
    {
      "inputs": [],
      "name": "totalSupply",
      "outputs": [
        {
          "internalType": "uint256",
          "name": "",
          "type": "uint256"
        }
      ],
      "stateMutability": "view",
      "type": "function"
    },
    {
      "inputs": [
        {
          "internalType": "address",
          "name": "account",
          "type": "address"
        }
      ],
      "name": "balanceOf",
      "outputs": [
        {
          "internalType": "uint256",
          "name": "",
          "type": "uint256"
        }
      ],
      "stateMutability": "view",
      "type": "function"
    }
  ],
  "bytecode": "0x608060405234801561001057600080fd5b506040516107bb3803806107bb83398101604081905261002f9161011a565b600281905560408051808201909152600c8082526b283934b9b6b096aa37b5b2b760a11b602090920191825261006791600391610081565b50506002543360009081526020819052604090205561016d565b82805461008d90610132565b90600052602060002090601f0160209004810192826100af57600085556100f5565b82601f106100c857805160ff19168380011785556100f5565b828001600101855582156100f5579182015b828111156100f55782518255916020019190600101906100da565b50610101929150610105565b5090565b5b808211156101015760008155600101610106565b60006020828403121561012b578081fd5b5051919050565b60028104600182168061014657607f821691505b6020821081141561016757634e487b7160e01b600052602260045260246000fd5b50919050565b61063f8061017c6000396000f3fe608060405234801561001057600080fd5b506004361061006d5760003560e01c806306fdde0314610072578063095ea7b31461009057806318160ddd146100b057806323b872dd146100c557806370a08231146100d8578063a9059cbb146100eb578063dd62ed3e146100fe575b600080fd5b61007a610111565b604051610087919061049f565b60405180910390f35b6100a361009e36600461046b565b61019f565b6040516100879190610494565b6100b86101b5565b6040516100879190610580565b6100a36100d3366004610430565b6101bb565b6100b86100e63660046103dd565b610234565b6100a36100f936600461046b565b610253565b6100b861010c3660046103fe565b610260565b6003805461011e906105b8565b80601f016020809104026020016040519081016040528092919081815260200182805461014a906105b8565b80156101975780601f1061016c57610100808354040283529160200191610197565b820191906000526020600020905b81548152906001019060200180831161017a57829003601f168201915b505050505081565b60006101ac33848461028b565b50600192915050565b60025490565b60006101c88484846102f3565b6001600160a01b0384166000908152600160209081526040808320338452909152902054828110156102155760405162461bcd60e51b815260040161020c90610538565b60405180910390fd5b610229853361022486856105a1565b61028b565b506001949350505050565b6001600160a01b0381166000908152602081905260409020545b919050565b60006101ac3384846102f3565b6001600160a01b03918216600090815260016020908152604080832093909416825291909152205490565b6001600160a01b0380841660008181526001602090815260408083209487168084529490915290819020849055517f8c5be1e5ebec7d5bd14f71427d1e84f3dd0314c0f7b2291e5b200ac8c7c3b925906102e6908590610580565b60405180910390a3505050565b6001600160a01b0383166000908152602081905260409020548181101561032c5760405162461bcd60e51b815260040161020c906104f2565b61033682826105a1565b6001600160a01b038086166000908152602081905260408082209390935590851681522054610366908390610589565b6001600160a01b0380851660008181526020819052604090819020939093559151908616907fddf252ad1be2c89b69c2b068fc378daa952ba7f163c4a11628f55a4df523b3ef906103b8908690610580565b60405180910390a350505050565b80356001600160a01b038116811461024e57600080fd5b6000602082840312156103ee578081fd5b6103f7826103c6565b9392505050565b60008060408385031215610410578081fd5b610419836103c6565b9150610427602084016103c6565b90509250929050565b600080600060608486031215610444578081fd5b61044d846103c6565b925061045b602085016103c6565b9150604084013590509250925092565b6000806040838503121561047d578182fd5b610486836103c6565b946020939093013593505050565b901515815260200190565b6000602080835283518082850152825b818110156104cb578581018301518582016040015282016104af565b818111156104dc5783604083870101525b50601f01601f1916929092016040019392505050565b60208082526026908201527f45524332303a207472616e7366657220616d6f756e7420657863656564732062604082015265616c616e636560d01b606082015260800190565b60208082526028908201527f45524332303a207472616e7366657220616d6f756e74206578636565647320616040820152676c6c6f77616e636560c01b606082015260800190565b90815260200190565b6000821982111561059c5761059c6105f3565b500190565b6000828210156105b3576105b36105f3565b500390565b6002810460018216806105cc57607f821691505b602082108114156105ed57634e487b7160e01b600052602260045260246000fd5b50919050565b634e487b7160e01b600052601160045260246000fdfea26469706673582212207634e790b019d9ca33566edc8b68ff8ac3c36186d44055217c385533f53ec1e364736f6c63430008010033",
  "immutableReferences": {},
  "source": "// SPDX-License-Identifier: UNLICENSED\n// compiled with GUARD_ERROR_MESSAGES=false\npragma solidity >=0.8.0;\npragma abicoder v2;\n\ncontract CompiledToken  {\n  mapping (address=>uint256) private _balances;\n  mapping (address=>mapping (address=>uint256)) private _allowances;\n  uint256 private _totalSupply;\n  string public name;\n  event Transfer(address indexed from, address indexed to, uint256 value);\n  event Approval(address indexed owner, address indexed spender, uint256 value);\n  function transfer(address recipient, uint256 amount)  public returns (bool) {\n    _transfer(payable(msg.sender), recipient, amount);\n    return(true);\n  } \n  function approve(address spender, uint256 amount)  public returns (bool) {\n    _approve(payable(msg.sender), spender, amount);\n    return(true);\n  } \n  function transferFrom(address sender, address recipient, uint256 amount)  public returns (bool) {\n    _transfer(sender, recipient, amount);\n    uint256 currentAllowance = _allowances[sender][payable(msg.sender)];\n    require((currentAllowance >= amount), \"ERC20: transfer amount exceeds allowance\");\n    _approve(sender, payable(msg.sender), (currentAllowance - amount));\n    return(true);\n  } \n  function _transfer(address sender, address recipient, uint256 amount)  private {\n    uint256 senderBalance = _balances[sender];\n    require((senderBalance >= amount), \"ERC20: transfer amount exceeds balance\");\n    (_balances[sender]) = (senderBalance - amount);\n    (_balances[recipient]) = (_balances[recipient] + amount);\n    emit Transfer(sender, recipient, amount);\n  } \n  function _approve(address owner, address spender, uint256 amount)  private {\n    (_allowances[owner][spender]) = amount;\n    emit Approval(owner, spender, amount);\n  } \n  function allowance(address owner, address spender)  view public returns (uint256) {\n    return(_allowances[owner][spender]);\n  } \n  function totalSupply()  view public returns (uint256) {\n    return(_totalSupply);\n  } \n  function balanceOf(address account)  view public returns (uint256) {\n    return(_balances[account]);\n  } \n  constructor(uint256 initialSupply$) {\n    _totalSupply = initialSupply$;\n    name = \"Prisma-Token\";\n    (_balances[payable(msg.sender)]) = _totalSupply;\n    uint8(0);\n    \n  } \n  \n  \n  \n  \n  \n  \n  \n\n} ",
  "sourcePath": "/mnt/103A12BD3A129FB0/CAC/Projekte/2019_PL4Blockchain/CodeRepo/EvaluationCode/contracts/CompiledToken.sol",
  "compiler": {
    "name": "solc",
    "version": "0.8.1+commit.df193b15.Emscripten.clang"
  },
  "schemaVersion": "3.4.3",
  "updatedAt": "2021-10-05T07:45:51.012Z",
  "devdoc": {
    "kind": "dev",
    "methods": {},
    "version": 1
  },
  "userdoc": {
    "kind": "user",
    "methods": {},
    "version": 1
  }
}