{
  "contractName": "CompiledMultiSig",
  "abi": [
    {
      "inputs": [
        {
          "internalType": "uint256",
          "name": "threshold$",
          "type": "uint256"
        },
        {
          "internalType": "address payable[]",
          "name": "parties$",
          "type": "address[]"
        }
      ],
      "stateMutability": "nonpayable",
      "type": "constructor"
    },
    {
      "inputs": [],
      "name": "nonce",
      "outputs": [
        {
          "internalType": "uint256",
          "name": "",
          "type": "uint256"
        }
      ],
      "stateMutability": "view",
      "type": "function"
    },
    {
      "inputs": [],
      "name": "threshold",
      "outputs": [
        {
          "internalType": "uint256",
          "name": "",
          "type": "uint256"
        }
      ],
      "stateMutability": "view",
      "type": "function"
    },
    {
      "stateMutability": "payable",
      "type": "receive"
    },
    {
      "inputs": [
        {
          "components": [
            {
              "components": [
                {
                  "internalType": "uint8",
                  "name": "v",
                  "type": "uint8"
                },
                {
                  "internalType": "uint256",
                  "name": "r",
                  "type": "uint256"
                },
                {
                  "internalType": "uint256",
                  "name": "s",
                  "type": "uint256"
                }
              ],
              "internalType": "struct CompiledMultiSig.Sig[]",
              "name": "signatures",
              "type": "tuple[]"
            },
            {
              "internalType": "uint256[]",
              "name": "indices",
              "type": "uint256[]"
            },
            {
              "internalType": "uint256",
              "name": "timeout",
              "type": "uint256"
            },
            {
              "internalType": "address payable",
              "name": "destination",
              "type": "address"
            },
            {
              "internalType": "uint256",
              "name": "value",
              "type": "uint256"
            },
            {
              "internalType": "bytes",
              "name": "data",
              "type": "bytes"
            }
          ],
          "internalType": "struct CompiledMultiSig.Execution",
          "name": "request",
          "type": "tuple"
        }
      ],
      "name": "execute",
      "outputs": [],
      "stateMutability": "nonpayable",
      "type": "function"
    },
    {
      "inputs": [],
      "name": "get_parties",
      "outputs": [
        {
          "internalType": "address payable[]",
          "name": "result",
          "type": "address[]"
        }
      ],
      "stateMutability": "view",
      "type": "function"
    }
  ],
  "bytecode": "0x60806040523480156200001157600080fd5b5060405162000c4e38038062000c4e8339810160408190526200003491620000f7565b80516200004990600090602084019062000059565b50506001556000600255620001ee565b828054828255906000526020600020908101928215620000b1579160200282015b82811115620000b157825182546001600160a01b0319166001600160a01b039091161782556020909201916001909101906200007a565b50620000bf929150620000c3565b5090565b5b80821115620000bf5760008155600101620000c4565b80516001600160a01b0381168114620000f257600080fd5b919050565b600080604083850312156200010a578182fd5b8251602080850151919350906001600160401b03808211156200012b578384fd5b818601915086601f8301126200013f578384fd5b815181811115620001545762000154620001d8565b838102604051601f19603f830116810181811085821117156200017b576200017b620001d8565b604052828152858101935084860182860187018b10156200019a578788fd5b8795505b83861015620001c757620001b281620000da565b8552600195909501949386019386016200019e565b508096505050505050509250929050565b634e487b7160e01b600052604160045260246000fd5b610a5080620001fe6000396000f3fe6080604052600436106100435760003560e01c806342cde4e81461004f578063affed0e01461007a578063b0038b7c1461008f578063ff848272146100b15761004a565b3661004a57005b600080fd5b34801561005b57600080fd5b506100646100d3565b6040516100719190610984565b60405180910390f35b34801561008657600080fd5b506100646100d9565b34801561009b57600080fd5b506100a46100df565b60405161007191906107e8565b3480156100bd57600080fd5b506100d16100cc36600461064c565b610144565b005b60015481565b60025481565b606060008080548060200260200160405190810160405280929190818152602001828054801561013857602002820191906000526020600020905b81546001600160a01b0316815260019091019060200180831161011a575b50939550505050505090565b600154815151146101705760405162461bcd60e51b8152600401610167906108c9565b60405180910390fd5b600154816020015151146101965760405162461bcd60e51b815260040161016790610953565b806040015142106101b95760405162461bcd60e51b8152600401610167906108fd565b80608001514710156101dd5760405162461bcd60e51b815260040161016790610929565b6000306002548360400151846060015185608001518660a0015160405160200161020c9695949392919061075a565b6040516020818303038152906040528051906020012060001c90506000805b60015481106102395761040e565b600060018460405160200161024e91906107b8565b60408051601f198184030181529190528051602090910120865180518590811061028857634e487b7160e01b600052603260045260246000fd5b602002602001015160000151876000015185815181106102b857634e487b7160e01b600052603260045260246000fd5b60200260200101516020015160001b886000015186815181106102eb57634e487b7160e01b600052603260045260246000fd5b60200260200101516040015160001b604051600081526020016040526040516103179493929190610835565b6020604051602081039080840390855afa158015610339573d6000803e3d6000fd5b505050602060405103519050826001600160a01b0316816001600160a01b0316116103765760405162461bcd60e51b8152600401610167906108a1565b60008560200151838151811061039c57634e487b7160e01b600052603260045260246000fd5b6020026020010151815481106103c257634e487b7160e01b600052603260045260246000fd5b6000918252602090912001546001600160a01b038281169116146103f85760405162461bcd60e51b815260040161016790610878565b9150816104066001836109e0565b91505061022b565b600160025461041d91906109e0565b60028190555060008085606001516001600160a01b031686608001518760a0015160405161044b91906107a5565b60006040518083038185875af1925050503d8060008114610488576040519150601f19603f3d011682016040523d82523d6000602084013e61048d565b606091505b5091509150816104af5760405162461bcd60e51b815260040161016790610853565b505050505050565b80356001600160a01b03811681146104ce57600080fd5b919050565b600082601f8301126104e3578081fd5b813560206104f86104f3836109bd565b61098d565b82815281810190858301606080860288018501891015610516578687fd5b865b8681101561056d5781838b03121561052e578788fd5b6105378261098d565b833560ff8116811461054757898afd5b815283870135878201526040808501359082015285529385019391810191600101610518565b509198975050505050505050565b600082601f83011261058b578081fd5b8135602061059b6104f3836109bd565b82815281810190858301838502870184018810156105b7578586fd5b855b858110156105d5578135845292840192908401906001016105b9565b5090979650505050505050565b600082601f8301126105f2578081fd5b81356001600160401b0381111561060b5761060b610a04565b61061e601f8201601f191660200161098d565b818152846020838601011115610632578283fd5b816020850160208301379081016020019190915292915050565b60006020828403121561065d578081fd5b81356001600160401b0380821115610673578283fd5b9083019060c08286031215610686578283fd5b61069060c061098d565b82358281111561069e578485fd5b6106aa878286016104d3565b8252506020830135828111156106be578485fd5b6106ca8782860161057b565b602083015250604083013560408201526106e6606084016104b7565b60608201526080830135608082015260a083013582811115610706578485fd5b610712878286016105e2565b60a08301525095945050505050565b60008151815b818110156107415760208185018101518683015201610727565b8181111561074f5782828601525b509290920192915050565b6001600160601b0319606088811b82168352601483018890526034830187905285901b1660548201526068810183905260006107996088830184610721565b98975050505050505050565b60006107b18284610721565b9392505050565b7b0ca2ba3432b932bab69029b4b3b732b21026b2b9b9b0b3b29d05199960211b8152601c810191909152603c0190565b6020808252825182820181905260009190848201906040850190845b818110156108295783516001600160a01b031683529284019291840191600101610804565b50909695505050505050565b93845260ff9290921660208401526040830152606082015260800190565b6020808252600b908201526a10d85b1b0819985a5b195960aa1b604082015260600190565b6020808252600f908201526e57726f6e67207369676e617475726560881b604082015260600190565b6020808252600e908201526d57726f6e67206f72646572696e6760901b604082015260600190565b6020808252601a908201527957726f6e67206e756d626572206f66207369676e61747572657360301b604082015260600190565b602080825260129082015271151bdbc81b185d19481d1bc81cdd589b5a5d60721b604082015260600190565b60208082526010908201526f4e6f7420656e6f75676820636f696e7360801b604082015260600190565b60208082526017908201527657726f6e67206e756d626572206f6620696e646963657360481b604082015260600190565b90815260200190565b604051601f8201601f191681016001600160401b03811182821017156109b5576109b5610a04565b604052919050565b60006001600160401b038211156109d6576109d6610a04565b5060209081020190565b600082198211156109ff57634e487b7160e01b81526011600452602481fd5b500190565b634e487b7160e01b600052604160045260246000fdfea26469706673582212209809595221839c49561f243ff29a209ef3e976033465249b9959a25b791cc48d64736f6c63430008010033",
  "immutableReferences": {},
  "source": "// SPDX-License-Identifier: UNLICENSED\n// compiled with GUARD_ERROR_MESSAGES=false\npragma solidity >=0.8.0;\npragma abicoder v2;\n\ncontract CompiledMultiSig  {\n  struct Sig {\n    uint8 v;\n    uint256 r;\n    uint256 s;\n  } \n  struct Execution {\n    Sig[] signatures;\n    uint256[] indices;\n    uint256 timeout;\n    address payable destination;\n    uint256 value;\n    bytes data;\n  } \n  address payable[] private parties;\n  uint256 public threshold;\n  uint256 public nonce;\n  receive() external payable  {\n    uint8(0);\n  } \n  function execute(Execution memory request)  public {\n    require((request.signatures.length == threshold), \"Wrong number of signatures\");\n    require((request.indices.length == threshold), \"Wrong number of indices\");\n    require((block.timestamp < request.timeout), \"Too late to submit\");\n    require((address(this).balance >= request.value), \"Not enough coins\");\n    uint256 theHash = uint256(keccak256(abi.encodePacked(address(this), nonce, request.timeout, request.destination, request.value, request.data)));\n    address last = payable(0);\n    uint256 i = uint256(0);\n    while (true) {\n      if (!((i < threshold))) {\n        break;\n      } \n      address rec = ecrecover(bytes32(uint256(keccak256(abi.encodePacked(\"\\x19Ethereum Signed Message:\\n32\", theHash)))), request.signatures[i].v, bytes32(request.signatures[i].r), bytes32(request.signatures[i].s));\n      require((rec > last), \"Wrong ordering\");\n      require((rec == parties[request.indices[i]]), \"Wrong signature\");\n      (last) = rec;\n      (i) = (i + uint256(1));\n    } \n    (nonce) = (nonce + uint256(1));\n    (bool success, bytes memory data) = request.destination.call{value:request.value}(request.data);\n    require(success, \"Call failed\");\n  } \n  constructor(uint256 threshold$, address payable[] memory parties$) {\n    parties = parties$;\n    threshold = threshold$;\n    nonce = uint256(0);\n    \n  } \n  function get_parties()  public view returns (address payable[] memory result) {\n    address payable[] memory tmp = parties;\n    return(tmp);\n  } \n  \n  \n  \n  \n  \n  \n  \n\n} ",
  "sourcePath": "/mnt/103A12BD3A129FB0/CAC/Projekte/2019_PL4Blockchain/CodeRepo/EvaluationCode/contracts/CompiledMultiSig.sol",
  "compiler": {
    "name": "solc",
    "version": "0.8.1+commit.df193b15.Emscripten.clang"
  },
  "schemaVersion": "3.4.3",
  "updatedAt": "2021-10-05T07:45:50.859Z",
  "devdoc": {
    "kind": "dev",
    "methods": {},
    "version": 1
  },
  "userdoc": {
    "kind": "user",
    "methods": {},
    "version": 1
  }
}