{
  "contractName": "CompiledHangman",
  "abi": [
    {
      "inputs": [
        {
          "internalType": "address payable[]",
          "name": "players$",
          "type": "address[]"
        }
      ],
      "stateMutability": "nonpayable",
      "type": "constructor"
    },
    {
      "inputs": [],
      "name": "currentGuess",
      "outputs": [
        {
          "internalType": "uint8",
          "name": "",
          "type": "uint8"
        }
      ],
      "stateMutability": "view",
      "type": "function"
    },
    {
      "inputs": [],
      "name": "hashedWord",
      "outputs": [
        {
          "internalType": "uint256",
          "name": "",
          "type": "uint256"
        }
      ],
      "stateMutability": "view",
      "type": "function"
    },
    {
      "inputs": [],
      "name": "missingletters",
      "outputs": [
        {
          "internalType": "uint256",
          "name": "",
          "type": "uint256"
        }
      ],
      "stateMutability": "view",
      "type": "function"
    },
    {
      "inputs": [],
      "name": "state",
      "outputs": [
        {
          "internalType": "uint32",
          "name": "",
          "type": "uint32"
        }
      ],
      "stateMutability": "view",
      "type": "function"
    },
    {
      "inputs": [],
      "name": "tries",
      "outputs": [
        {
          "internalType": "uint256",
          "name": "",
          "type": "uint256"
        }
      ],
      "stateMutability": "view",
      "type": "function"
    },
    {
      "inputs": [
        {
          "components": [
            {
              "internalType": "uint256",
              "name": "x",
              "type": "uint256"
            },
            {
              "internalType": "uint256",
              "name": "y",
              "type": "uint256"
            }
          ],
          "internalType": "struct CompiledHangman.UU",
          "name": "pair",
          "type": "tuple"
        }
      ],
      "name": "commit",
      "outputs": [],
      "stateMutability": "nonpayable",
      "type": "function"
    },
    {
      "inputs": [
        {
          "internalType": "uint256[]",
          "name": "tmp",
          "type": "uint256[]"
        }
      ],
      "name": "respond",
      "outputs": [],
      "stateMutability": "nonpayable",
      "type": "function"
    },
    {
      "inputs": [
        {
          "internalType": "uint8",
          "name": "tmp",
          "type": "uint8"
        }
      ],
      "name": "guess",
      "outputs": [],
      "stateMutability": "nonpayable",
      "type": "function"
    },
    {
      "inputs": [
        {
          "components": [
            {
              "internalType": "uint8[]",
              "name": "arr",
              "type": "uint8[]"
            },
            {
              "internalType": "uint256",
              "name": "x",
              "type": "uint256"
            }
          ],
          "internalType": "struct CompiledHangman.UArrU",
          "name": "reveal",
          "type": "tuple"
        }
      ],
      "name": "open",
      "outputs": [],
      "stateMutability": "nonpayable",
      "type": "function"
    },
    {
      "inputs": [],
      "name": "get_players",
      "outputs": [
        {
          "internalType": "address payable[]",
          "name": "result",
          "type": "address[]"
        }
      ],
      "stateMutability": "view",
      "type": "function"
    },
    {
      "inputs": [],
      "name": "get_guessed",
      "outputs": [
        {
          "internalType": "uint8[26]",
          "name": "result",
          "type": "uint8[26]"
        }
      ],
      "stateMutability": "view",
      "type": "function"
    },
    {
      "inputs": [],
      "name": "get_word",
      "outputs": [
        {
          "internalType": "uint8[]",
          "name": "result",
          "type": "uint8[]"
        }
      ],
      "stateMutability": "view",
      "type": "function"
    }
  ],
  "bytecode": "0x60806040523480156200001157600080fd5b506040516200138338038062001383833981016040819052620000349162000320565b80516200004990600090602084019062000184565b5060006001819055604080516103408101825282815260208101839052908101829052606081018290526080810182905260a0810182905260c0810182905260e08101829052610100810182905261012081018290526101408101829052610160810182905261018081018290526101a081018290526101c081018290526101e08101829052610200810182905261022081018290526102408101829052610260810182905261028081018290526102a081018290526102c081018290526102e0810182905261030081018290526103208101919091526200013090600290601a620001ee565b50604080516000815260208101918290528051909162000154916003919062000283565b50506004805460ff1916905550600060059081556006556007805463ffffffff191663acc83c6b17905562000409565b828054828255906000526020600020908101928215620001dc579160200282015b82811115620001dc57825182546001600160a01b0319166001600160a01b03909116178255602090920191600190910190620001a5565b50620001ea929150620002ec565b5090565b600183019183908215620001dc5791602002820160005b838211156200024557835183826101000a81548160ff021916908360ff160217905550926020019260010160208160000104928301926001030262000205565b8015620002745782816101000a81549060ff021916905560010160208160000104928301926001030262000245565b5050620001ea929150620002ec565b82805482825590600052602060002090601f01602090048101928215620001dc579160200282016000838211156200024557835183826101000a81548160ff021916908360ff160217905550926020019260010160208160000104928301926001030262000205565b5b80821115620001ea5760008155600101620002ed565b80516001600160a01b03811681146200031b57600080fd5b919050565b6000602080838503121562000333578182fd5b82516001600160401b03808211156200034a578384fd5b818501915085601f8301126200035e578384fd5b815181811115620003735762000373620003f3565b838102604051601f19603f830116810181811085821117156200039a576200039a620003f3565b604052828152858101935084860182860187018a1015620003b9578788fd5b8795505b83861015620003e657620003d18162000303565b855260019590950194938601938601620003bd565b5098975050505050505050565b634e487b7160e01b600052604160045260246000fd5b610f6a80620004196000396000f3fe608060405234801561001057600080fd5b50600436106100a45760003560e01c8063146e61ed146100a957806324d94a56146100c75780632a155121146100dc5780634ba4c16b146100e457806356e06509146100f75780636f30c4fd146100ff57806390ab87a014610114578063aeee33e814610129578063b0433c491461013e578063c19d93fb14610151578063e03baf3614610166578063e7e4552c14610179575b600080fd5b6100b161018e565b6040516100be9190610e3b565b60405180910390f35b6100da6100d5366004610a75565b610194565b005b6100b1610225565b6100da6100f2366004610c0c565b61022b565b6100b16102bf565b6101076102c5565b6040516100be9190610e55565b61011c6102ce565b6040516100be9190610cec565b610131610348565b6040516100be9190610cb7565b6100da61014c366004610bd9565b610387565b61015961040d565b6040516100be9190610e44565b6100da610174366004610b09565b610419565b61018161049e565b6040516100be9190610c6a565b60065481565b60075463ffffffff1663111fea591480156101ec5750336001600160a01b0316600080815481106101d557634e487b7160e01b600052603260045260246000fd5b6000918252602090912001546001600160a01b0316145b6102115760405162461bcd60e51b815260040161020890610dc6565b60405180910390fd5b61021a81610502565b6102226106f6565b50565b60015481565b60075463ffffffff166333ca83cb1480156102845750336001600160a01b0316600060018154811061026d57634e487b7160e01b600052603260045260246000fd5b6000918252602090912001546001600160a01b0316145b6102a05760405162461bcd60e51b815260040161020890610dc6565b6102a981610750565b506007805463ffffffff191663111fea59179055565b60055481565b60045460ff1681565b60606000600380548060200260200160405190810160405280929190818152602001828054801561033c57602002820191906000526020600020906000905b825461010083900a900460ff1681526020600192830181810494850194909303909202910180841161030d5790505b50939550505050505090565b610350610a40565b604080516103408101918290526002805460ff168252600092601a908260016020860180841161030d575094979650505050505050565b60075463ffffffff1663acc83c6b1480156103df5750336001600160a01b0316600080815481106103c857634e487b7160e01b600052603260045260246000fd5b6000918252602090912001546001600160a01b0316145b6103fb5760405162461bcd60e51b815260040161020890610dc6565b61021a816000015182602001516107f6565b60075463ffffffff1681565b60075463ffffffff1663902c83b91480156104715750336001600160a01b03166000808154811061045a57634e487b7160e01b600052603260045260246000fd5b6000918252602090912001546001600160a01b0316145b61048d5760405162461bcd60e51b815260040161020890610dc6565b61049681610870565b610222610a31565b606060008080548060200260200160405190810160405280929190818152602001828054801561033c57602002820191906000526020600020905b81546001600160a01b031681526001909101906020018083116104d95750939550505050505090565b60005b8151811061051257610665565b600354825183908390811061053757634e487b7160e01b600052603260045260246000fd5b60200260200101511061054957600080fd5b600060ff16600383838151811061057057634e487b7160e01b600052603260045260246000fd5b60200260200101518154811061059657634e487b7160e01b600052603260045260246000fd5b60009182526020918290209181049091015460ff601f9092166101000a900416146105d35760405162461bcd60e51b815260040161020890610cff565b600454825160ff9091169060039084908490811061060157634e487b7160e01b600052603260045260246000fd5b60200260200101518154811061062757634e487b7160e01b600052603260045260246000fd5b90600052602060002090602091828204019190066101000a81548160ff021916908360ff16021790555060018161065e9190610eb6565b9050610505565b60045460019060029061067d9060419060ff16610ee5565b60ff16601a811061069e57634e487b7160e01b600052603260045260246000fd5b602091828204019190066101000a81548160ff021916908360ff1602179055506000825114156106df5760016006546106d79190610ece565b6006556106f2565b81516005546106ee9190610ece565b6005555b5050565b6000600654118015610709575060055415155b15610726576007805463ffffffff19166333ca83cb17905561074e565b60055415610746576007805463ffffffff191663902c83b917905561074e565b61074e610a31565b565b601a61075d604183610ee5565b60ff161061077d5760405162461bcd60e51b815260040161020890610d63565b6000600261078c604184610ee5565b60ff16601a81106107ad57634e487b7160e01b600052603260045260246000fd5b602081049091015460ff601f9092166101000a900416146107e05760405162461bcd60e51b815260040161020890610d8f565b6004805460ff191660ff92909216919091179055565b6001829055600581905560005b81811061080f5761086b565b60038054600180820183556000929092527fc2575a0e9e593c00f959f8c92f12db2869c3395a3b0502d05e2516446f71f85b60208204018054601f9092166101000a60ff021990911690556108649082610eb6565b9050610803565b505050565b600354815151146108935760405162461bcd60e51b815260040161020890610d33565b60005b60035481106108a4576109f5565b81518051601a91604191849081106108cc57634e487b7160e01b600052603260045260246000fd5b60200260200101516108de9190610ee5565b60ff161015806109d85750600160ff16600260418460000151848151811061091657634e487b7160e01b600052603260045260246000fd5b60200260200101516109289190610ee5565b60ff16601a811061094957634e487b7160e01b600052603260045260246000fd5b602081049091015460ff601f9092166101000a9004161480156109d85750815180518290811061098957634e487b7160e01b600052603260045260246000fd5b602002602001015160ff16600382815481106109b557634e487b7160e01b600052603260045260246000fd5b60009182526020918290209181049091015460ff601f9092166101000a90041614155b156109e35760006005555b6109ee600182610eb6565b9050610896565b60015482604051602001610a099190610e09565b6040516020818303038152906040528051906020012060001c146106f25760006005556106f2565b6007805463ffffffff19169055565b604051806103400160405280601a906020820280368337509192915050565b803560ff81168114610a7057600080fd5b919050565b60006020808385031215610a87578182fd5b82356001600160401b03811115610a9c578283fd5b8301601f81018513610aac578283fd5b8035610abf610aba82610e93565b610e63565b8181528381019083850185840285018601891015610adb578687fd5b8694505b83851015610afd578035835260019490940193918501918501610adf565b50979650505050505050565b60006020808385031215610b1b578182fd5b82356001600160401b0380821115610b31578384fd5b9084019060408287031215610b44578384fd5b610b4e6040610e63565b823582811115610b5c578586fd5b83019150601f82018713610b6e578485fd5b8135610b7c610aba82610e93565b81815285810190848701878402860188018b1015610b98578889fd5b8895505b83861015610bc157610bad81610a5f565b835260019590950194918701918701610b9c565b50835250509183013592820192909252949350505050565b600060408284031215610bea578081fd5b610bf46040610e63565b82358152602083013560208201528091505092915050565b600060208284031215610c1d578081fd5b610c2682610a5f565b9392505050565b6000815180845260208085019450808401835b83811015610c5f57815160ff1687529582019590820190600101610c40565b509495945050505050565b6020808252825182820181905260009190848201906040850190845b81811015610cab5783516001600160a01b031683529284019291840191600101610c86565b50909695505050505050565b6103408101818360005b601a811015610ce357815160ff16835260209283019290910190600101610cc1565b50505092915050565b600060208252610c266020830184610c2d565b6020808252601a908201527974686973206c65747465722077617320686974206265666f726560301b604082015260600190565b6020808252601690820152756e6565647320776f7264206c656e206c65747465727360501b604082015260600190565b6020808252601290820152712737ba1030903b30b634b2103632ba3a32b960711b604082015260600190565b6020808252601f908201527f4c65747465722068617320616c7265616479206265656e206775657373656400604082015260600190565b60208082526023908201527f61636365737320636f6e74726f6c206f7220666c6f77206775617264206661696040820152621b195960ea1b606082015260800190565b600060208252825160406020840152610e256060840182610c2d565b9050602084015160408401528091505092915050565b90815260200190565b63ffffffff91909116815260200190565b60ff91909116815260200190565b604051601f8201601f191681016001600160401b0381118282101715610e8b57610e8b610f1e565b604052919050565b60006001600160401b03821115610eac57610eac610f1e565b5060209081020190565b60008219821115610ec957610ec9610f08565b500190565b600082821015610ee057610ee0610f08565b500390565b600060ff821660ff841680821015610eff57610eff610f08565b90039392505050565b634e487b7160e01b600052601160045260246000fd5b634e487b7160e01b600052604160045260246000fdfea264697066735822122002a2a4eb6e2981dd6ec5e2c2cef063c9cde0eb9935a3d94f18ecc105610668e664736f6c63430008010033",
  "immutableReferences": {},
  "source": "// SPDX-License-Identifier: UNLICENSED\n// compiled with GUARD_ERROR_MESSAGES=false\npragma solidity >=0.8.0;\npragma abicoder v2;\n\ncontract CompiledHangman  {\n  address payable[] private players;\n  struct UU {\n    uint256 x;\n    uint256 y;\n  } \n  struct UArrU {\n    uint8[] arr;\n    uint256 x;\n  } \n  uint256 public hashedWord;\n  uint8[26] private guessed;\n  uint8[] private word;\n  uint8 public currentGuess;\n  uint256 public missingletters;\n  uint256 public tries;\n  function commit2(uint256 hash, uint256 wordLength)  private {\n    (hashedWord) = hash;\n    (missingletters) = wordLength;\n    uint256 i = uint256(0);\n    while (true) {\n      if (!((i < wordLength))) {\n        break;\n      } \n      word.push(uint8(0));\n      (i) = (i + uint256(1));\n    } \n  } \n  function guess2(uint8 letter)  private {\n    require(((letter - uint8(65)) < uint8(26)), \"Not a valid letter\");\n    require((guessed[uint256((letter - uint8(65)))] == uint8(0)), \"Letter has already been guessed\");\n    (currentGuess) = letter;\n  } \n  function respond2(uint256[] memory hits)  private {\n    uint256 i = uint256(0);\n    while (true) {\n      if (!((i < hits.length))) {\n        break;\n      } \n      require((hits[i] < word.length));\n      require((word[hits[i]] == uint8(0)), \"this letter was hit before\");\n      (word[hits[i]]) = currentGuess;\n      (i) = (i + uint256(1));\n    } \n    (guessed[uint256((currentGuess - uint8(65)))]) = uint8(1);\n    if ((hits.length == uint256(0))) {\n      (tries) = (tries - uint256(1));\n    } else {\n      (missingletters) = (missingletters - hits.length);\n    } \n  } \n  function open2(UArrU memory opening)  private {\n    require((opening.arr.length == word.length), \"needs word len letters\");\n    uint256 i = uint256(0);\n    while (true) {\n      if (!((i < word.length))) {\n        break;\n      } \n      if ((((opening.arr[i] - uint8(65)) >= uint8(26)) || ((guessed[uint256((opening.arr[i] - uint8(65)))] == uint8(1)) && !((word[i] == opening.arr[i]))))) {\n        (missingletters) = uint256(0);\n      } else {\n        uint8(0);\n      } \n      (i) = (i + uint256(1));\n    } \n    if ((uint256(keccak256(abi.encode(opening))) != hashedWord)) {\n      (missingletters) = uint256(0);\n    } else {\n      uint8(0);\n    } \n  } \n  function commit(UU memory pair)  public {\n    require(((state == uint32(0xacc83c6b)) && (players[uint256(0)] == payable(msg.sender))), \"access control or flow guard failed\");\n    commit2(pair.x, pair.y);\n    private$whil$macro$5();\n  } \n  function private$iff$macro$6()  private {\n    (state) = 0;\n  } \n  function respond(uint256[] memory tmp)  public {\n    require(((state == uint32(0x111fea59)) && (players[uint256(0)] == payable(msg.sender))), \"access control or flow guard failed\");\n    respond2(tmp);\n    private$whil$macro$5();\n  } \n  function guess(uint8 tmp)  public {\n    require(((state == uint32(0x33ca83cb)) && (players[uint256(1)] == payable(msg.sender))), \"access control or flow guard failed\");\n    guess2(tmp);\n    (state) = uint32(0x111fea59);\n  } \n  function open(UArrU memory reveal)  public {\n    require(((state == uint32(0x902c83b9)) && (players[uint256(0)] == payable(msg.sender))), \"access control or flow guard failed\");\n    open2(reveal);\n    private$iff$macro$6();\n  } \n  function private$whil$macro$5()  private {\n    if (((tries > uint256(0)) && (missingletters != uint256(0)))) {\n      (state) = uint32(0x33ca83cb);\n    } else if ((missingletters != uint256(0))) {\n      (state) = uint32(0x902c83b9);\n    } else {\n      private$iff$macro$6();\n    } \n  } \n  constructor(address payable[] memory players$) {\n    players = players$;\n    hashedWord = uint256(0);\n    guessed = [uint8(0), uint8(0), uint8(0), uint8(0), uint8(0), uint8(0), uint8(0), uint8(0), uint8(0), uint8(0), uint8(0), uint8(0), uint8(0), uint8(0), uint8(0), uint8(0), uint8(0), uint8(0), uint8(0), uint8(0), uint8(0), uint8(0), uint8(0), uint8(0), uint8(0), uint8(0)];\n    uint8[] memory tmp$macro$7 = new uint8[](uint256(0));\n    word = tmp$macro$7;\n    currentGuess = uint8(0);\n    missingletters = uint256(0);\n    tries = uint256(5);\n    (state) = uint32(0xacc83c6b);\n    uint8(0);\n    \n  } \n  function get_players()  public view returns (address payable[] memory result) {\n    address payable[] memory tmp = players;\n    return(tmp);\n  } \n  function get_guessed()  public view returns (uint8[26] memory result) {\n    uint8[26] memory tmp = guessed;\n    return(tmp);\n  } \n  function get_word()  public view returns (uint8[] memory result) {\n    uint8[] memory tmp = word;\n    return(tmp);\n  } \n  \n  uint32 public state;\n  \n  \n  \n  \n  \n\n} ",
  "sourcePath": "/mnt/103A12BD3A129FB0/CAC/Projekte/2019_PL4Blockchain/CodeRepo/EvaluationCode/contracts/CompiledHangman.sol",
  "compiler": {
    "name": "solc",
    "version": "0.8.1+commit.df193b15.Emscripten.clang"
  },
  "schemaVersion": "3.4.3",
  "updatedAt": "2021-10-05T07:45:50.834Z",
  "devdoc": {
    "kind": "dev",
    "methods": {},
    "version": 1
  },
  "userdoc": {
    "kind": "user",
    "methods": {},
    "version": 1
  }
}