{
  "contractName": "CompiledChineseCheckers",
  "abi": [
    {
      "inputs": [
        {
          "internalType": "address payable[]",
          "name": "players$",
          "type": "address[]"
        }
      ],
      "stateMutability": "nonpayable",
      "type": "constructor"
    },
    {
      "inputs": [],
      "name": "moves",
      "outputs": [
        {
          "internalType": "uint256",
          "name": "",
          "type": "uint256"
        }
      ],
      "stateMutability": "view",
      "type": "function"
    },
    {
      "inputs": [],
      "name": "state",
      "outputs": [
        {
          "internalType": "uint32",
          "name": "",
          "type": "uint32"
        }
      ],
      "stateMutability": "view",
      "type": "function"
    },
    {
      "inputs": [
        {
          "components": [
            {
              "internalType": "uint256",
              "name": "root",
              "type": "uint256"
            },
            {
              "internalType": "uint8[]",
              "name": "directions",
              "type": "uint8[]"
            }
          ],
          "internalType": "struct CompiledChineseCheckers.Move",
          "name": "move",
          "type": "tuple"
        }
      ],
      "name": "move",
      "outputs": [],
      "stateMutability": "nonpayable",
      "type": "function"
    },
    {
      "inputs": [],
      "name": "get_players",
      "outputs": [
        {
          "internalType": "address payable[]",
          "name": "result",
          "type": "address[]"
        }
      ],
      "stateMutability": "view",
      "type": "function"
    },
    {
      "inputs": [],
      "name": "get_board",
      "outputs": [
        {
          "internalType": "uint8[121]",
          "name": "result",
          "type": "uint8[121]"
        }
      ],
      "stateMutability": "view",
      "type": "function"
    }
  ],
  "bytecode": "0x60806040523480156200001157600080fd5b5060405162001a4a38038062001a4a8339810160408190526200003491620007b0565b80516200004990600090602084019062000687565b5060408051610f20810182526000808252602082018190529181018290526060810182905260016080820181905260a0820181905260c0820183905260e08201839052610100820181905261012082018190526101408201819052610160820183905261018082018190526101a082018190526101c082018190526101e08201819052610200820181905261022082018190526102408201819052610260820181905261028082018190526102a082018390526102c082018390526102e08201839052610300820183905261032082018390526103408201839052610360820183905261038082018390526103a082018390526103c082018390526103e08201839052610400820183905261042082018390526104408201839052610460820183905261048082018190526104a082018390526104c082018390526104e082018390526105008201839052610520820183905261054082018390526105608201839052600261058083018190526105a083018190526105c083018490526105e08301849052610600830181905261062083018190526106408301819052610660830184905261068083018190526106a083018190526106c083018190526106e08301819052610700830181905261072083018190526107408301819052610760830181905261078083018190526107a083018490526107c083018490526107e08301849052610800830184905261082083018490526108408301849052610860830184905261088083018490526108a083018490526108c083018490526108e0830184905261090083018490526109208301849052610940830184905261096083018490526109808301526109a082018390526109c082018390526109e08201839052610a008201839052610a208201839052610a408201839052610a6082018390526003610a808301819052610aa08301819052610ac08301849052610ae08301849052610b008301819052610b208301819052610b408301819052610b608301849052610b808301819052610ba08301819052610bc08301819052610be08301819052610c008301819052610c208301819052610c408301819052610c608301819052610c808301819052610ca08301849052610cc08301849052610ce08301849052610d008301849052610d208301849052610d408301849052610d608301849052610d808301849052610da08301849052610dc08301849052610de08301849052610e008301849052610e208301849052610e408301849052610e608301849052610e80830152610ea08201839052610ec08201839052610ee08201839052610f008201929092526200042391906079620006f1565b506000600555620004336200043a565b50620009cd565b62000463600160036005546200045191906200094f565b6200045d9190620008ba565b62000491565b62000481576006805463ffffffff1916633c1d18781790556200048f565b6006805463ffffffff191690555b565b600080600183811415620004a95760039150620004f4565b6002841415620004bd5760059150620004f4565b6003841415620004d15760019150620004f4565b60405162461bcd60e51b8152600401620004eb9062000883565b60405180910390fd5b60045b600160ff821610156200050a57620005b8565b600060016200051b83600562000929565b62000527919062000929565b90505b600460ff821611156200053d57620005a2565b8560016200054d8685856200062d565b607981106200056c57634e487b7160e01b600052603260045260246000fd5b602081049091015460ff601f9092166101000a900416146200058d57600092505b6200059a600182620008d5565b90506200052a565b620005af60018362000929565b915050620004f7565b846001620005e36006620005cd8388620008d5565b620005d9919062000966565b600460006200062d565b607981106200060257634e487b7160e01b600052603260045260246000fd5b602081049091015460ff601f9092166101000a900416146200062357600091505b509150505b919050565b60006200063c600183620008d5565b60056200064b60018662000929565b620006579190620008fd565b62000664601487620008fd565b620006709190620008d5565b6200067c9190620008d5565b60ff16949350505050565b828054828255906000526020600020908101928215620006df579160200282015b82811115620006df57825182546001600160a01b0319166001600160a01b03909116178255602090920191600190910190620006a8565b50620006ed92915062000781565b5090565b600483019183908215620006df5791602002820160005b838211156200074857835183826101000a81548160ff021916908360ff160217905550926020019260010160208160000104928301926001030262000708565b8015620007775782816101000a81549060ff021916905560010160208160000104928301926001030262000748565b5050620006ed9291505b5b80821115620006ed576000815560010162000782565b80516001600160a01b03811681146200062857600080fd5b60006020808385031215620007c3578182fd5b82516001600160401b0380821115620007da578384fd5b818501915085601f830112620007ee578384fd5b815181811115620008035762000803620009b7565b838102604051601f19603f830116810181811085821117156200082a576200082a620009b7565b604052828152858101935084860182860187018a101562000849578788fd5b8795505b838610156200087657620008618162000798565b8552600195909501949386019386016200084d565b5098975050505050505050565b6020808252601d908201527f57726f6e6720706c6179657220696420696e20676f616c20636865636b000000604082015260600190565b60008219821115620008d057620008d06200098b565b500190565b600060ff821660ff84168060ff03821115620008f557620008f56200098b565b019392505050565b600060ff821660ff84168160ff04811182151516156200092157620009216200098b565b029392505050565b600060ff821660ff8416808210156200094657620009466200098b565b90039392505050565b600082620009615762000961620009a1565b500690565b600060ff8316806200097c576200097c620009a1565b8060ff84160691505092915050565b634e487b7160e01b600052601160045260246000fd5b634e487b7160e01b600052601260045260246000fd5b634e487b7160e01b600052604160045260246000fd5b61106d80620009dd6000396000f3fe608060405234801561001057600080fd5b50600436106100565760003560e01c8062be82751461005b5780635e2b51bc1461007957806363d816bf1461008e578063c19d93fb146100a3578063e7e4552c146100b8575b600080fd5b6100636100cd565b6040516100709190610ec1565b60405180910390f35b6100816100d3565b6040516100709190610d4b565b6100a161009c366004610c0f565b610130565b005b6100ab6103c3565b6040516100709190610eca565b6100c06103cf565b6040516100709190610cfe565b60055481565b6100db610bb9565b60408051610f208101918290526000916001906079908285855b825461010083900a900460ff168152602060019283018181049485019490930390920291018084116100f55790505b50939550505050505090565b60065463ffffffff16633c1d18781480156101965750336001600160a01b0316600060036005546101619190610fbf565b8154811061017f57634e487b7160e01b600052603260045260246000fd5b6000918252602090912001546001600160a01b0316145b6101bb5760405162461bcd60e51b81526004016101b290610de4565b60405180910390fd5b600160036005546101cc9190610fbf565b6101d69190610f0b565b60ff1660018260000151607981106101fe57634e487b7160e01b600052603260045260246000fd5b602081049091015460ff601f9092166101000a900416146102315760405162461bcd60e51b81526004016101b290610e27565b60408051808201909152815181526000602082018190525b826020015151811061025a576102ff565b61029382600001518460200151838151811061028657634e487b7160e01b600052603260045260246000fd5b6020026020010151610433565b8051909250607a14156102b85760405162461bcd60e51b81526004016101b290610d80565b60208201511580156102d05750600183602001515114155b156102ed5760405162461bcd60e51b81526004016101b290610e56565b6102f8600182610f0b565b9050610249565b6000600184600001516079811061032657634e487b7160e01b600052603260045260246000fd5b602091828204019190066101000a81548160ff021916908360ff160217905550600160036005546103579190610fbf565b6103619190610f23565b82516001906079811061038457634e487b7160e01b600052603260045260246000fd5b602091828204019190066101000a81548160ff021916908360ff16021790555060016005546103b39190610f0b565b6005556103be61051b565b505050565b60065463ffffffff1681565b606060008080548060200260200160405190810160405280929190818152602001828054801561012457602002820191906000526020600020905b81546001600160a01b0316815260019091019060200180831161040a5750939550505050505090565b61043b610bd8565b6000610447848461056a565b90506000607a8214158015610493575060006001836079811061047a57634e487b7160e01b600052603260045260246000fd5b602081049091015460ff601f9092166101000a90041614155b156104fe576104a2828561056a565b9150607a82141580156104ec57506000600183607981106104d357634e487b7160e01b600052603260045260246000fd5b602081049091015460ff601f9092166101000a90041614155b156104fa57607a91506104fe565b5060015b604080518082019091529182521515602082015290505b92915050565b61053e6001600360055461052f9190610fbf565b6105399190610f0b565b6108a0565b61055a576006805463ffffffff1916633c1d1878179055610568565b6006805463ffffffff191690555b565b60008061057684610a11565b9050600560ff8416111561058e57607a915050610515565b604081015160208201518251600092916105a791610f23565b6105b19190610f23565b60ff1614156105cf576105c78360016000610b0a565b915050610515565b805160ff84811691161415610601576105c78160000151600183602001516105f79190610f23565b8360400151610b58565b805160069061061290600190610f23565b61061c9190610fd3565b60ff168360ff16141561064c576105c781600001518260200151600184604001516106479190610f23565b610b58565b805160069061065d90600290610f23565b6106679190610fd3565b60ff168360ff1614156106e657602081015160ff16600114156106bc576105c760066001836000015161069a9190610f23565b6106a49190610fd3565b600183604001516106b59190610f23565b6000610b58565b6105c78160000151600183602001516106d59190610f9c565b600184604001516106479190610f23565b80516006906106f790600390610f23565b6107019190610fd3565b60ff168360ff16141561078357602081015160ff166001141561076057604081015160ff16610734576000915050610515565b6105c760066001836000015161074a9190610f23565b6107549190610fd3565b82604001516000610b0a565b6105c78160000151600183602001516107799190610f9c565b8360400151610b0a565b805160069061079490600490610f23565b61079e9190610fd3565b60ff168360ff16141561080c57604081015160ff166107ee576105c76006600583600001516107cd9190610f23565b6107d79190610fd3565b60018084602001516107e99190610f9c565b610b0a565b6105c781600001518260200151600184604001516107e99190610f9c565b805160069061081d90600590610f23565b6108279190610fd3565b60ff168360ff16141561089657604081015160ff1661086c576105c76006600583600001516108569190610f23565b6108609190610fd3565b60018360200151610b0a565b6105c78160000151600183602001516108859190610f23565b600184604001516107e99190610f9c565b607a915050610515565b6000806001838114156108b657600391506108f2565b60028414156108c857600591506108f2565b60038414156108da57600191506108f2565b60405162461bcd60e51b81526004016101b290610e8a565b60045b600160ff82161015610906576109a4565b60006001610915836005610f9c565b61091f9190610f9c565b90505b600460ff8216111561093357610991565b856001610941868585610b0a565b6079811061095f57634e487b7160e01b600052603260045260246000fd5b602081049091015460ff601f9092166101000a9004161461097f57600092505b61098a600182610f23565b9050610922565b61099c600183610f9c565b9150506108f5565b8460016109c960066109b68388610f23565b6109c09190610fd3565b60046000610b0a565b607981106109e757634e487b7160e01b600052603260045260246000fd5b602081049091015460ff601f9092166101000a90041614610a0757600091505b509150505b919050565b610a19610bef565b60798210610a2657600080fd5b81610a4e57506040805160608101825260008082526020820181905291810191909152610a0c565b60006005610a5d600185610f85565b610a679190610fbf565b9050600060016004600584610a7c8489610f85565b610a869190610f85565b610a909190610f48565b610a9a9190610fbf565b610aa49190610f0b565b90506000601480610ab6600188610f85565b610ac09190610fbf565b610acb600188610f85565b610ad59190610f85565b610adf9190610f48565b6040805160608101825260ff928316815293821660208501529316928201929092529150610a0c9050565b6000610b17600183610f23565b6005610b24600186610f9c565b610b2e9190610f5c565b610b39601487610f5c565b610b439190610f23565b610b4d9190610f23565b60ff16949350505050565b6000600560ff85161180610b6d575060ff8316155b80610b7b5750600460ff8416115b80610b895750600460ff8316115b15610ba65760405162461bcd60e51b81526004016101b290610db0565b610bb1848484610b0a565b949350505050565b60405180610f2001604052806079906020820280368337509192915050565b604080518082019091526000808252602082015290565b604080516060810182526000808252602082018190529181019190915290565b60006020808385031215610c21578182fd5b82356001600160401b0380821115610c37578384fd5b9084019060408287031215610c4a578384fd5b610c546040610edb565b823581528383013582811115610c68578586fd5b80840193505086601f840112610c7c578485fd5b823582811115610c8e57610c8e611021565b8481029250610c9e858401610edb565b8181528581019085870185870188018b1015610cb8578889fd5b8896505b83871015610ceb578035955060ff86168614610cd6578889fd5b85835260019690960195918701918701610cbc565b5095830195909552509695505050505050565b6020808252825182820181905260009190848201906040850190845b81811015610d3f5783516001600160a01b031683529284019291840191600101610d1a565b50909695505050505050565b610f208101818360005b6079811015610d7757815160ff16835260209283019290910190600101610d55565b50505092915050565b602080825260169082015275135bdd9959081bdd5d081bd9881d1a1948189bd85c9960521b604082015260600190565b6020808252601a90820152794a756d7020746f20696e76616c696420636f6f7264696e61746560301b604082015260600190565b60208082526023908201527f61636365737320636f6e74726f6c206f7220666c6f77206775617264206661696040820152621b195960ea1b606082015260800190565b6020808252601590820152742737ba103a343290383630bcb2b939903a37b5b2b760591b604082015260600190565b6020808252601a90820152794e6f206c65617020627574206d756c7469706c65206d6f76657360301b604082015260600190565b6020808252601d908201527f57726f6e6720706c6179657220696420696e20676f616c20636865636b000000604082015260600190565b90815260200190565b63ffffffff91909116815260200190565b604051601f8201601f191681016001600160401b0381118282101715610f0357610f03611021565b604052919050565b60008219821115610f1e57610f1e610ff5565b500190565b600060ff821660ff84168060ff03821115610f4057610f40610ff5565b019392505050565b600082610f5757610f5761100b565b500490565b600060ff821660ff84168160ff0481118215151615610f7d57610f7d610ff5565b029392505050565b600082821015610f9757610f97610ff5565b500390565b600060ff821660ff841680821015610fb657610fb6610ff5565b90039392505050565b600082610fce57610fce61100b565b500690565b600060ff831680610fe657610fe661100b565b8060ff84160691505092915050565b634e487b7160e01b600052601160045260246000fd5b634e487b7160e01b600052601260045260246000fd5b634e487b7160e01b600052604160045260246000fdfea264697066735822122083eb1e210eef421773bbc8d728a0239197cba3311f209aea38cf7d2929164f1764736f6c63430008010033",
  "immutableReferences": {},
  "source": "// SPDX-License-Identifier: UNLICENSED\n// compiled with GUARD_ERROR_MESSAGES=false\npragma solidity >=0.8.0;\npragma abicoder v2;\n\ncontract CompiledChineseCheckers  {\n  address payable[] private players;\n  struct Move {\n    uint256 root;\n    uint8[] directions;\n  } \n  struct StepResult {\n    uint256 pos;\n    bool leaped;\n  } \n  struct Coordinate {\n    uint8 dir;\n    uint8 length1;\n    uint8 length2;\n  } \n  uint8[121] private board;\n  uint256 public moves;\n  function goalCheck(uint256 _player)  private returns (bool) {\n    uint8 checkDirection = uint8(0);\n    bool _win = true;\n    if ((_player == uint256(1))) {\n      (checkDirection) = uint8(3);\n    } else if ((_player == uint256(2))) {\n      (checkDirection) = uint8(5);\n    } else if ((_player == uint256(3))) {\n      (checkDirection) = uint8(1);\n    } else {\n      revert(\"Wrong player id in goal check\");\n    } \n    uint8 b = uint8(4);\n    while (true) {\n      if (!((b >= uint8(1)))) {\n        break;\n      } \n      uint8 d = ((uint8(5) - b) - uint8(1));\n      while (true) {\n        if (!((d <= uint8(4)))) {\n          break;\n        } \n        if ((board[coordinatesToIndex(checkDirection, b, d)] != _player)) {\n          (_win) = false;\n        } else {\n          uint8(0);\n        } \n        (d) = (d + uint8(1));\n      } \n      (b) = (b - uint8(1));\n    } \n    if ((board[coordinatesToIndex(((checkDirection + uint8(1)) % uint8(6)), uint8(4), uint8(0))] != _player)) {\n      (_win) = false;\n    } else {\n      uint8(0);\n    } \n    return(_win);\n  } \n  function testStep(uint256 _pos, uint8 _dir)  private returns (StepResult memory) {\n    uint256 _newPos = getHopTarget(_pos, _dir);\n    bool _leaped = false;\n    if (((_newPos != uint256(122)) && (board[_newPos] != uint8(0)))) {\n      (_newPos) = getHopTarget(_newPos, _dir);\n      if (((_newPos != uint256(122)) && (board[_newPos] != uint8(0)))) {\n        (_newPos) = uint256(122);\n      } else {\n        (_leaped) = true;\n      } \n    } else {\n      uint8(0);\n    } \n    return(StepResult(_newPos, _leaped));\n  } \n  function getHopTarget(uint256 _pos, uint8 _dir)  private returns (uint256) {\n    Coordinate memory _pre = indexToCoordinate(_pos);\n    if ((_dir > uint8(5))) {\n      return(uint256(122));\n    } else if ((((_pre.dir + _pre.length1) + _pre.length2) == uint256(0))) {\n      return(coordinatesToIndex(_dir, uint8(1), uint8(0)));\n    } else if ((_dir == _pre.dir)) {\n      return(coordinatesToIndexChecked(_pre.dir, (_pre.length1 + uint8(1)), _pre.length2));\n    } else if ((_dir == ((_pre.dir + uint8(1)) % uint8(6)))) {\n      return(coordinatesToIndexChecked(_pre.dir, _pre.length1, (_pre.length2 + uint8(1))));\n    } else if ((_dir == ((_pre.dir + uint8(2)) % uint8(6)))) {\n      if ((_pre.length1 == uint8(1))) {\n        return(coordinatesToIndexChecked(((_pre.dir + uint8(1)) % uint8(6)), (_pre.length2 + uint8(1)), uint8(0)));\n      } else {\n        return(coordinatesToIndexChecked(_pre.dir, (_pre.length1 - uint8(1)), (_pre.length2 + uint8(1))));\n      } \n    } else if ((_dir == ((_pre.dir + uint8(3)) % uint8(6)))) {\n      if ((_pre.length1 == uint8(1))) {\n        if ((_pre.length2 == uint8(0))) {\n          return(uint256(0));\n        } else {\n          return(coordinatesToIndex(((_pre.dir + uint8(1)) % uint8(6)), _pre.length2, uint8(0)));\n        } \n      } else {\n        return(coordinatesToIndex(_pre.dir, (_pre.length1 - uint8(1)), _pre.length2));\n      } \n    } else if ((_dir == ((_pre.dir + uint8(4)) % uint8(6)))) {\n      if ((_pre.length2 == uint8(0))) {\n        return(coordinatesToIndex(((_pre.dir + uint8(5)) % uint8(6)), uint8(1), (_pre.length1 - uint8(1))));\n      } else {\n        return(coordinatesToIndex(_pre.dir, _pre.length1, (_pre.length2 - uint8(1))));\n      } \n    } else if ((_dir == ((_pre.dir + uint8(5)) % uint8(6)))) {\n      if ((_pre.length2 == uint8(0))) {\n        return(coordinatesToIndex(((_pre.dir + uint8(5)) % uint8(6)), uint8(1), _pre.length1));\n      } else {\n        return(coordinatesToIndex(_pre.dir, (_pre.length1 + uint8(1)), (_pre.length2 - uint8(1))));\n      } \n    } else {\n      return(uint256(122));\n    } \n  } \n  function indexToCoordinate(uint256 _index)  private returns (Coordinate memory) {\n    require((_index < uint256(121)));\n    if ((_index == uint256(0))) {\n      return(Coordinate(uint8(0), uint8(0), uint8(0)));\n    } else {\n      uint256 _length2 = ((_index - uint256(1)) % uint256(5));\n      uint256 _length1 = (((((_index - uint256(1)) - _length2) / uint256(5)) % uint256(4)) + uint256(1));\n      uint256 _dir = (((_index - uint256(1)) - ((_index - uint256(1)) % uint256(20))) / uint256(20));\n      return(Coordinate(uint8(_dir), uint8(_length1), uint8(_length2)));\n    } \n  } \n  function coordinatesToIndex(uint8 _dir, uint8 _l1, uint8 _l2)  private returns (uint256) {\n    return(uint256((((_dir * uint8(20)) + ((_l1 - uint8(1)) * uint8(5))) + (_l2 + uint8(1)))));\n  } \n  function coordinatesToIndexChecked(uint8 _dir, uint8 _l1, uint8 _l2)  private returns (uint256) {\n    if (((((_dir > uint8(5)) || (_l1 == uint8(0))) || (_l1 > uint8(4))) || (_l2 > uint8(4)))) {\n      revert(\"Jump to invalid coordinate\");\n    } else {\n      uint8(0);\n    } \n    return(coordinatesToIndex(_dir, _l1, _l2));\n  } \n  function move(Move memory move)  public {\n    require(((state == uint32(0x3c1d1878)) && (players[(moves % uint256(3))] == payable(msg.sender))), \"access control or flow guard failed\");\n    require((board[move.root] == uint8(((moves % uint256(3)) + uint256(1)))), \"Not the players token\");\n    StepResult memory _aux = StepResult(move.root, false);\n    uint256 _i = uint256(0);\n    while (true) {\n      if (!((_i < move.directions.length))) {\n        break;\n      } \n      (_aux) = testStep(_aux.pos, move.directions[_i]);\n      if ((_aux.pos == uint8(122))) {\n        revert(\"Moved out of the board\");\n      } else {\n        uint8(0);\n      } \n      if (((_aux.leaped == false) && (move.directions.length != uint256(1)))) {\n        revert(\"No leap but multiple moves\");\n      } else {\n        uint8(0);\n      } \n      (_i) = (_i + uint256(1));\n    } \n    (board[move.root]) = uint8(0);\n    (board[_aux.pos]) = (uint8((moves % uint256(3))) + uint8(1));\n    (moves) = (moves + uint256(1));\n    private$whil$macro$3();\n  } \n  function private$whil$macro$3()  private {\n    if (!(goalCheck(((moves % uint256(3)) + uint256(1))))) {\n      (state) = uint32(0x3c1d1878);\n    } else {\n      (state) = 0;\n    } \n  } \n  constructor(address payable[] memory players$) {\n    players = players$;\n    board = [uint8(0), uint8(0), uint8(0), uint8(0), uint8(1), uint8(1), uint8(0), uint8(0), uint8(1), uint8(1), uint8(1), uint8(0), uint8(1), uint8(1), uint8(1), uint8(1), uint8(1), uint8(1), uint8(1), uint8(1), uint8(1), uint8(0), uint8(0), uint8(0), uint8(0), uint8(0), uint8(0), uint8(0), uint8(0), uint8(0), uint8(0), uint8(0), uint8(0), uint8(0), uint8(0), uint8(0), uint8(1), uint8(0), uint8(0), uint8(0), uint8(0), uint8(0), uint8(0), uint8(0), uint8(2), uint8(2), uint8(0), uint8(0), uint8(2), uint8(2), uint8(2), uint8(0), uint8(2), uint8(2), uint8(2), uint8(2), uint8(2), uint8(2), uint8(2), uint8(2), uint8(2), uint8(0), uint8(0), uint8(0), uint8(0), uint8(0), uint8(0), uint8(0), uint8(0), uint8(0), uint8(0), uint8(0), uint8(0), uint8(0), uint8(0), uint8(0), uint8(2), uint8(0), uint8(0), uint8(0), uint8(0), uint8(0), uint8(0), uint8(0), uint8(3), uint8(3), uint8(0), uint8(0), uint8(3), uint8(3), uint8(3), uint8(0), uint8(3), uint8(3), uint8(3), uint8(3), uint8(3), uint8(3), uint8(3), uint8(3), uint8(3), uint8(0), uint8(0), uint8(0), uint8(0), uint8(0), uint8(0), uint8(0), uint8(0), uint8(0), uint8(0), uint8(0), uint8(0), uint8(0), uint8(0), uint8(0), uint8(3), uint8(0), uint8(0), uint8(0), uint8(0)];\n    moves = uint256(0);\n    private$whil$macro$3();\n    uint8(0);\n    \n  } \n  function get_players()  public view returns (address payable[] memory result) {\n    address payable[] memory tmp = players;\n    return(tmp);\n  } \n  function get_board()  public view returns (uint8[121] memory result) {\n    uint8[121] memory tmp = board;\n    return(tmp);\n  } \n  \n  uint32 public state;\n  \n  \n  \n  \n  \n\n} \n",
  "sourcePath": "/mnt/103A12BD3A129FB0/CAC/Projekte/2019_PL4Blockchain/CodeRepo/EvaluationCode/contracts/CompiledChineseCheckers.sol",
  "compiler": {
    "name": "solc",
    "version": "0.8.1+commit.df193b15.Emscripten.clang"
  },
  "schemaVersion": "3.4.3",
  "updatedAt": "2021-10-05T08:30:18.738Z",
  "devdoc": {
    "kind": "dev",
    "methods": {},
    "version": 1
  },
  "userdoc": {
    "kind": "user",
    "methods": {},
    "version": 1
  }
}