{
  "contractName": "CompiledRockPaperScissors",
  "abi": [
    {
      "inputs": [
        {
          "internalType": "address payable[]",
          "name": "players$",
          "type": "address[]"
        }
      ],
      "stateMutability": "nonpayable",
      "type": "constructor"
    },
    {
      "inputs": [],
      "name": "commitment",
      "outputs": [
        {
          "internalType": "uint256",
          "name": "",
          "type": "uint256"
        }
      ],
      "stateMutability": "view",
      "type": "function"
    },
    {
      "inputs": [],
      "name": "rps2",
      "outputs": [
        {
          "internalType": "uint8",
          "name": "",
          "type": "uint8"
        }
      ],
      "stateMutability": "view",
      "type": "function"
    },
    {
      "inputs": [],
      "name": "state",
      "outputs": [
        {
          "internalType": "uint32",
          "name": "",
          "type": "uint32"
        }
      ],
      "stateMutability": "view",
      "type": "function"
    },
    {
      "inputs": [],
      "name": "winner",
      "outputs": [
        {
          "internalType": "uint8",
          "name": "",
          "type": "uint8"
        }
      ],
      "stateMutability": "view",
      "type": "function"
    },
    {
      "inputs": [
        {
          "components": [
            {
              "internalType": "uint8",
              "name": "rps1",
              "type": "uint8"
            },
            {
              "internalType": "uint256",
              "name": "nonce",
              "type": "uint256"
            }
          ],
          "internalType": "struct CompiledRockPaperScissors.Opening",
          "name": "decommitment",
          "type": "tuple"
        }
      ],
      "name": "open",
      "outputs": [],
      "stateMutability": "nonpayable",
      "type": "function"
    },
    {
      "inputs": [
        {
          "internalType": "uint8",
          "name": "tmp",
          "type": "uint8"
        }
      ],
      "name": "move",
      "outputs": [],
      "stateMutability": "nonpayable",
      "type": "function"
    },
    {
      "inputs": [
        {
          "internalType": "uint256",
          "name": "tmp",
          "type": "uint256"
        }
      ],
      "name": "commit",
      "outputs": [],
      "stateMutability": "nonpayable",
      "type": "function"
    },
    {
      "inputs": [],
      "name": "get_players",
      "outputs": [
        {
          "internalType": "address payable[]",
          "name": "result",
          "type": "address[]"
        }
      ],
      "stateMutability": "view",
      "type": "function"
    }
  ],
  "bytecode": "0x608060405234801561001057600080fd5b5060405161096038038061096083398101604081905261002f91610103565b805161004290600090602084019061006d565b50506001805460ff1916905560006002556003805464ffffffffff191664acc83c6b001790556101de565b8280548282559060005260206000209081019282156100c2579160200282015b828111156100c257825182546001600160a01b0319166001600160a01b0390911617825560209092019160019091019061008d565b506100ce9291506100d2565b5090565b5b808211156100ce57600081556001016100d3565b80516001600160a01b03811681146100fe57600080fd5b919050565b60006020808385031215610115578182fd5b82516001600160401b038082111561012b578384fd5b818501915085601f83011261013e578384fd5b815181811115610150576101506101c8565b838102604051601f19603f83011681018181108582111715610174576101746101c8565b604052828152858101935084860182860187018a1015610192578788fd5b8795505b838610156101bb576101a7816100e7565b855260019590950194938601938601610196565b5098975050505050505050565b634e487b7160e01b600052604160045260246000fd5b610773806101ed6000396000f3fe608060405234801561001057600080fd5b50600436106100785760003560e01c80631303a4841461007d57806370e87aaf1461009b578063bdd9e71d146100b0578063c19d93fb146100c3578063dfbf53ae146100d8578063e7e4552c146100ed578063f4f98ad514610102578063f752941a14610115575b600080fd5b61008561011d565b60405161009291906106b6565b60405180910390f35b6100ae6100a93660046105c4565b610123565b005b6100ae6100be36600461054a565b610214565b6100cb6103d1565b60405161009291906106bf565b6100e06103e2565b60405161009291906106d0565b6100f56103eb565b60405161009291906105e5565b6100ae6101103660046105ac565b610450565b6100e061052b565b60025481565b600354610100900463ffffffff16633c1d18781480156101ca575060006001600160a01b0316600060018154811061016b57634e487b7160e01b600052603260045260246000fd5b6000918252602090912001546001600160a01b031614806101ca5750336001600160a01b031660006001815481106101b357634e487b7160e01b600052603260045260246000fd5b6000918252602090912001546001600160a01b0316145b6101ef5760405162461bcd60e51b81526004016101e690610659565b60405180910390fd5b6003805460ff191660ff929092169190911764ffffffff00191664902c83b900179055565b600354610100900463ffffffff1663902c83b91480156102b9575060006001600160a01b03166000808154811061025b57634e487b7160e01b600052603260045260246000fd5b6000918252602090912001546001600160a01b031614806102b95750336001600160a01b0316600080815481106102a257634e487b7160e01b600052603260045260246000fd5b6000918252602090912001546001600160a01b0316145b6102d55760405162461bcd60e51b81526004016101e690610659565b604080518082018252825160ff1681526020808401518183015291516102fb920161069c565b6040516020818303038152906040528051906020012060001c600254146103345760405162461bcd60e51b81526004016101e690610632565b60038054610345919060ff1661070f565b60ff1660038260000151610359919061070f565b60ff16146103a957600380546103749060019060ff166106de565b61037e919061070f565b60ff1660038260000151610392919061070f565b60ff16146103a15760026103a4565b60015b6103ac565b60035b6001805460ff191660ff92909216919091179055506003805464ffffffff0019169055565b600354610100900463ffffffff1681565b60015460ff1681565b606060008080548060200260200160405190810160405280929190818152602001828054801561044457602002820191906000526020600020905b81546001600160a01b03168152600190910190602001808311610426575b50939550505050505090565b600354610100900463ffffffff1663acc83c6b1480156104f5575060006001600160a01b03166000808154811061049757634e487b7160e01b600052603260045260246000fd5b6000918252602090912001546001600160a01b031614806104f55750336001600160a01b0316600080815481106104de57634e487b7160e01b600052603260045260246000fd5b6000918252602090912001546001600160a01b0316145b6105115760405162461bcd60e51b81526004016101e690610659565b6002556003805464ffffffff001916643c1d187800179055565b60035460ff1681565b803560ff8116811461054557600080fd5b919050565b60006040828403121561055b578081fd5b6040516040810181811067ffffffffffffffff8211171561058a57634e487b7160e01b83526041600452602483fd5b60405261059683610534565b8152602083013560208201528091505092915050565b6000602082840312156105bd578081fd5b5035919050565b6000602082840312156105d5578081fd5b6105de82610534565b9392505050565b6020808252825182820181905260009190848201906040850190845b818110156106265783516001600160a01b031683529284019291840191600101610601565b50909695505050505050565b6020808252600d908201526c57726f6e67206f70656e696e6760981b604082015260600190565b60208082526023908201527f61636365737320636f6e74726f6c206f7220666c6f77206775617264206661696040820152621b195960ea1b606082015260800190565b815160ff1681526020918201519181019190915260400190565b90815260200190565b63ffffffff91909116815260200190565b60ff91909116815260200190565b600060ff821660ff84168060ff0382111561070757634e487b7160e01b83526011600452602483fd5b019392505050565b600060ff83168061072e57634e487b7160e01b82526012600452602482fd5b8060ff8416069150509291505056fea2646970667358221220ab679b22f10b3cc8ac53f80305bef4a62d94df7b2235d2aa9149d17e6f03a2b364736f6c63430008010033",
  "immutableReferences": {},
  "source": "// SPDX-License-Identifier: UNLICENSED\n// compiled with GUARD_ERROR_MESSAGES=false\npragma solidity >=0.8.0;\npragma abicoder v2;\n\ncontract CompiledRockPaperScissors  {\n  struct Opening {\n    uint8 rps1;\n    uint256 nonce;\n  } \n  address payable[] private players;\n  uint8 public winner;\n  uint256 public commitment;\n  uint8 public rps2;\n  function open(Opening memory decommitment)  public {\n    require(((state == uint32(0x902c83b9)) && ((players[uint256(0)] == address(0)) || (players[uint256(0)] == payable(msg.sender)))), \"access control or flow guard failed\");\n    require((commitment == uint256(keccak256(abi.encode(Opening(decommitment.rps1, decommitment.nonce))))), \"Wrong opening\");\n    (winner) = (((decommitment.rps1 % uint8(3)) == (rps2 % uint8(3))) ? uint8(3) : (((decommitment.rps1 % uint8(3)) == ((rps2 + uint8(1)) % uint8(3))) ? uint8(1) : uint8(2)));\n    (state) = 0;\n  } \n  function move(uint8 tmp)  public {\n    require(((state == uint32(0x3c1d1878)) && ((players[uint256(1)] == address(0)) || (players[uint256(1)] == payable(msg.sender)))), \"access control or flow guard failed\");\n    (rps2) = tmp;\n    (state) = uint32(0x902c83b9);\n  } \n  function commit(uint256 tmp)  public {\n    require(((state == uint32(0xacc83c6b)) && ((players[uint256(0)] == address(0)) || (players[uint256(0)] == payable(msg.sender)))), \"access control or flow guard failed\");\n    (commitment) = tmp;\n    (state) = uint32(0x3c1d1878);\n  } \n  constructor(address payable[] memory players$) {\n    players = players$;\n    winner = uint8(0);\n    commitment = uint256(0);\n    rps2 = uint8(0);\n    (state) = uint32(0xacc83c6b);\n    uint8(0);\n    \n  } \n  function get_players()  public view returns (address payable[] memory result) {\n    address payable[] memory tmp = players;\n    return(tmp);\n  } \n  \n  uint32 public state;\n  // bytes public reqArgs;\n  // bytes public store;\n  // struct Closure { uint32 id; bytes data; }\n  /* \n  function mk(Closure memory response) private {\n    // reqArgs = response.data;\n    // store = hex\"\";\n    state = 0;\n  }*/\n  /*\n  function flatMap(Closure memory request, Closure memory callback) private {\n    // reqArgs = request.data;\n    // store = callback.data;\n    state = callback.id;\n  }*/\n\n} \n",
  "sourcePath": "/media/david/Shared/CAC/Projekte/2019_PL4Blockchain/CodeRepo/EvaluationCode/contracts/CompiledRPS.sol",
  "compiler": {
    "name": "solc",
    "version": "0.8.1+commit.df193b15.Emscripten.clang"
  },
  "schemaVersion": "3.2.5",
  "updatedAt": "2021-04-13T14:28:04.736Z",
  "devdoc": {
    "kind": "dev",
    "methods": {},
    "version": 1
  },
  "userdoc": {
    "kind": "user",
    "methods": {},
    "version": 1
  }
}