{
  "contractName": "CompiledTTTChannel",
  "abi": [
    {
      "inputs": [
        {
          "internalType": "address payable[]",
          "name": "parties$",
          "type": "address[]"
        }
      ],
      "stateMutability": "nonpayable",
      "type": "constructor"
    },
    {
      "inputs": [],
      "name": "state",
      "outputs": [
        {
          "internalType": "uint32",
          "name": "",
          "type": "uint32"
        }
      ],
      "stateMutability": "view",
      "type": "function"
    },
    {
      "inputs": [],
      "name": "timeout",
      "outputs": [
        {
          "internalType": "uint256",
          "name": "",
          "type": "uint256"
        }
      ],
      "stateMutability": "view",
      "type": "function"
    },
    {
      "inputs": [
        {
          "components": [
            {
              "internalType": "uint8",
              "name": "x",
              "type": "uint8"
            },
            {
              "internalType": "uint8",
              "name": "y",
              "type": "uint8"
            }
          ],
          "internalType": "struct CompiledTTTChannel.UU",
          "name": "incoming",
          "type": "tuple"
        }
      ],
      "name": "move",
      "outputs": [],
      "stateMutability": "nonpayable",
      "type": "function"
    },
    {
      "inputs": [
        {
          "components": [
            {
              "components": [
                {
                  "internalType": "uint256",
                  "name": "version",
                  "type": "uint256"
                },
                {
                  "internalType": "uint8",
                  "name": "moves",
                  "type": "uint8"
                },
                {
                  "internalType": "uint8[][]",
                  "name": "board",
                  "type": "uint8[][]"
                }
              ],
              "internalType": "struct CompiledTTTChannel.State",
              "name": "state",
              "type": "tuple"
            },
            {
              "components": [
                {
                  "internalType": "uint8",
                  "name": "v",
                  "type": "uint8"
                },
                {
                  "internalType": "uint256",
                  "name": "r",
                  "type": "uint256"
                },
                {
                  "internalType": "uint256",
                  "name": "s",
                  "type": "uint256"
                }
              ],
              "internalType": "struct CompiledTTTChannel.Sig",
              "name": "sig1",
              "type": "tuple"
            },
            {
              "components": [
                {
                  "internalType": "uint8",
                  "name": "v",
                  "type": "uint8"
                },
                {
                  "internalType": "uint256",
                  "name": "r",
                  "type": "uint256"
                },
                {
                  "internalType": "uint256",
                  "name": "s",
                  "type": "uint256"
                }
              ],
              "internalType": "struct CompiledTTTChannel.Sig",
              "name": "sig2",
              "type": "tuple"
            }
          ],
          "internalType": "struct CompiledTTTChannel.SignedState",
          "name": "latestState",
          "type": "tuple"
        }
      ],
      "name": "dispute",
      "outputs": [],
      "stateMutability": "nonpayable",
      "type": "function"
    },
    {
      "inputs": [],
      "name": "get_parties",
      "outputs": [
        {
          "internalType": "address payable[]",
          "name": "result",
          "type": "address[]"
        }
      ],
      "stateMutability": "view",
      "type": "function"
    },
    {
      "inputs": [],
      "name": "get_onChain",
      "outputs": [
        {
          "components": [
            {
              "internalType": "uint256",
              "name": "version",
              "type": "uint256"
            },
            {
              "internalType": "uint8",
              "name": "moves",
              "type": "uint8"
            },
            {
              "internalType": "uint8[][]",
              "name": "board",
              "type": "uint8[][]"
            }
          ],
          "internalType": "struct CompiledTTTChannel.State",
          "name": "result",
          "type": "tuple"
        }
      ],
      "stateMutability": "view",
      "type": "function"
    }
  ],
  "bytecode": "0x60806040523480156200001157600080fd5b5060405162001cbc38038062001cbc833981016040819052620000349162000625565b80516200004990600090602084019062000434565b5060408051600380825260808201909252600091816020015b606081526020019060019003908162000062575050604080516003808252608082019092529192506000919060208201606080368337019050509050600081600081518110620000c257634e487b7160e01b600052603260045260246000fd5b602002602001019060ff16908160ff1681525050600081600181518110620000fa57634e487b7160e01b600052603260045260246000fd5b602002602001019060ff16908160ff16815250506000816002815181106200013257634e487b7160e01b600052603260045260246000fd5b602002602001019060ff16908160ff168152505080826000815181106200016957634e487b7160e01b600052603260045260246000fd5b602090810291909101015260408051600380825260808201909252600091816020016020820280368337019050509050600081600081518110620001bd57634e487b7160e01b600052603260045260246000fd5b602002602001019060ff16908160ff1681525050600081600181518110620001f557634e487b7160e01b600052603260045260246000fd5b602002602001019060ff16908160ff16815250506000816002815181106200022d57634e487b7160e01b600052603260045260246000fd5b602002602001019060ff16908160ff168152505080836001815181106200026457634e487b7160e01b600052603260045260246000fd5b602090810291909101015260408051600380825260808201909252600091816020016020820280368337019050509050600081600081518110620002b857634e487b7160e01b600052603260045260246000fd5b602002602001019060ff16908160ff1681525050600081600181518110620002f057634e487b7160e01b600052603260045260246000fd5b602002602001019060ff16908160ff16815250506000816002815181106200032857634e487b7160e01b600052603260045260246000fd5b602002602001019060ff16908160ff168152505080846002815181106200035f57634e487b7160e01b600052603260045260246000fd5b60209081029190910181019190915260408051606081018252600080825281840181905291810187905260019182556002805460ff1916905586519092620003ad916003918901906200049e565b505060001960045550620003c0620003cb565b50505050506200070e565b426004541115620003ef576005805463ffffffff1916635f27452d179055620003f9565b620003f9620003fb565b565b600254600960ff909116101562000425576005805463ffffffff1916633c1d1878179055620003f9565b6005805463ffffffff19169055565b8280548282559060005260206000209081019282156200048c579160200282015b828111156200048c57825182546001600160a01b0319166001600160a01b0390911617825560209092019160019091019062000455565b506200049a929150620004fe565b5090565b828054828255906000526020600020908101928215620004f0579160200282015b82811115620004f05782518051620004df91849160209091019062000515565b5091602001919060010190620004bf565b506200049a929150620005bd565b5b808211156200049a5760008155600101620004ff565b82805482825590600052602060002090601f016020900481019282156200048c5791602002820160005b838211156200057f57835183826101000a81548160ff021916908360ff16021790555092602001926001016020816000010492830192600103026200053f565b8015620005ae5782816101000a81549060ff02191690556001016020816000010492830192600103026200057f565b50506200049a929150620004fe565b808211156200049a576000620005d48282620005de565b50600101620005bd565b50805460008255601f016020900490600052602060002090810190620006059190620004fe565b50565b80516001600160a01b03811681146200062057600080fd5b919050565b6000602080838503121562000638578182fd5b82516001600160401b03808211156200064f578384fd5b818501915085601f83011262000663578384fd5b815181811115620006785762000678620006f8565b838102604051601f19603f830116810181811085821117156200069f576200069f620006f8565b604052828152858101935084860182860187018a1015620006be578788fd5b8795505b83861015620006eb57620006d68162000608565b855260019590950194938601938601620006c2565b5098975050505050505050565b634e487b7160e01b600052604160045260246000fd5b61159e806200071e6000396000f3fe608060405234801561001057600080fd5b50600436106100625760003560e01c806321474f841461006757806370dea79a14610085578063b0038b7c1461009a578063c19d93fb146100af578063ca2b7c1a146100c4578063e39726b8146100d9575b600080fd5b61006f6100ec565b60405161007c91906113b7565b60405180910390f35b61008d6101cc565b60405161007c9190611464565b6100a26101d2565b60405161007c919061125a565b6100b7610237565b60405161007c919061146d565b6100d76100d23660046111ec565b610243565b005b6100d76100e736600461105a565b6102e0565b6100f4610e88565b6040805160608101825260018054825260025460ff1660208084019190915260038054855181840281018401875281815260009686019390929190879084015b828210156101be576000848152602090819020830180546040805182850281018501909152818152928301828280156101aa57602002820191906000526020600020906000905b825461010083900a900460ff1681526020600192830181810494850194909303909202910180841161017b5790505b505050505081526020019060010190610134565b505050915250909250505090565b60045481565b606060008080548060200260200160405190810160405280929190818152602001828054801561022b57602002820191906000526020600020905b81546001600160a01b0316815260019091019060200180831161020d575b50939550505050505090565b60055463ffffffff1681565b60055463ffffffff16633c1d18781480156102a7575060028054339160009161026f919060ff1661150e565b60ff168154811061029057634e487b7160e01b600052603260045260246000fd5b6000918252602090912001546001600160a01b0316145b6102cc5760405162461bcd60e51b81526004016102c390611374565b60405180910390fd5b6102d58161035e565b6102dd6105a6565b50565b60055463ffffffff16635f27452d1461030b5760405162461bcd60e51b81526004016102c390611374565b4260045411156103235761031e816105de565b610356565b610356604051806040016040528083602001516000015160ff16815260200183604001516000015160ff1681525061035e565b6102dd610869565b80516003805460009260ff1690811061038757634e487b7160e01b600052603260045260246000fd5b90600052602060002001826020015160ff16815481106103b757634e487b7160e01b600052603260045260246000fd5b60009182526020918290209181049091015460ff601f9092166101000a900416146103f45760405162461bcd60e51b81526004016102c3906112ea565b600280546000919061040a90829060ff1661150e565b61041491906114e9565b9050806001600201836000015160ff168154811061044257634e487b7160e01b600052603260045260246000fd5b90600052602060002001836020015160ff168154811061047257634e487b7160e01b600052603260045260246000fd5b90600052602060002090602091828204019190066101000a81548160ff021916908360ff160217905550600061056483600001518460200151846001600201805480602002602001604051908101604052809291908181526020016000905b8282101561055b5760008481526020908190208301805460408051828502810185019091528181529283018282801561054757602002820191906000526020600020906000905b825461010083900a900460ff168152602060019283018181049485019490930390920291018084116105185790505b5050505050815260200190600101906104d1565b50505050610893565b9050806105825760025461057d9060019060ff166114e9565b61058d565b61058d82600a6114e9565b6002805460ff191660ff92909216919091179055505050565b600254600960ff90911610156105ce576005805463ffffffff1916633c1d18781790556105dc565b6005805463ffffffff191690555b565b600154815151116106015760405162461bcd60e51b81526004016102c3906112c5565b604080516060810182528251518152825160209081015160ff168183015283518301518284015291516000926106389291016113b7565b6040516020818303038152906040528051906020012060001c90506000808154811061067457634e487b7160e01b600052603260045260246000fd5b600091825260209182902001546040516001600160a01b039091169160019161069f9185910161122a565b60408051601f19818403018152828252805160209182012087820151805181840151918501516000875295909301938490526106df9491939091906112a7565b6020604051602081039080840390855afa158015610701573d6000803e3d6000fd5b505050602060405103516001600160a01b0316146107315760405162461bcd60e51b81526004016102c39061131a565b600060018154811061075357634e487b7160e01b600052603260045260246000fd5b600091825260209182902001546040516001600160a01b039091169160019161077e9185910161122a565b60408051601f19818403018152828252805160209182012087830151805181840151918501516000875295909301938490526107be9491939091906112a7565b6020604051602081039080840390855afa1580156107e0573d6000803e3d6000fd5b505050602060405103516001600160a01b0316146108105760405162461bcd60e51b81526004016102c390611347565b600019600454141561082b57610827600a426114d1565b6004555b8151805160019081556020808301516002805460ff191660ff90921691909117905560408301518051610862926003920190610eac565b5050505050565b42600454111561088b576005805463ffffffff1916635f27452d1790556105dc565b6105dc6105a6565b6000818560ff16815181106108b857634e487b7160e01b600052603260045260246000fd5b60200260200101516001815181106108e057634e487b7160e01b600052603260045260246000fd5b602002602001015160ff16828660ff168151811061090e57634e487b7160e01b600052603260045260246000fd5b602002602001015160008151811061093657634e487b7160e01b600052603260045260246000fd5b602002602001015160ff161480156109f75750818560ff168151811061096c57634e487b7160e01b600052603260045260246000fd5b602002602001015160028151811061099457634e487b7160e01b600052603260045260246000fd5b602002602001015160ff16828660ff16815181106109c257634e487b7160e01b600052603260045260246000fd5b60200260200101516001815181106109ea57634e487b7160e01b600052603260045260246000fd5b602002602001015160ff16145b80610b5f575081600181518110610a1e57634e487b7160e01b600052603260045260246000fd5b60200260200101518460ff1681518110610a4857634e487b7160e01b600052603260045260246000fd5b602002602001015160ff1682600081518110610a7457634e487b7160e01b600052603260045260246000fd5b60200260200101518560ff1681518110610a9e57634e487b7160e01b600052603260045260246000fd5b602002602001015160ff16148015610b5f575081600281518110610ad257634e487b7160e01b600052603260045260246000fd5b60200260200101518460ff1681518110610afc57634e487b7160e01b600052603260045260246000fd5b602002602001015160ff1682600181518110610b2857634e487b7160e01b600052603260045260246000fd5b60200260200101518560ff1681518110610b5257634e487b7160e01b600052603260045260246000fd5b602002602001015160ff16145b80610e7f57508260ff1682600181518110610b8a57634e487b7160e01b600052603260045260246000fd5b6020026020010151600181518110610bb257634e487b7160e01b600052603260045260246000fd5b602002602001015160ff16148015610e7f575081600181518110610be657634e487b7160e01b600052603260045260246000fd5b6020026020010151600181518110610c0e57634e487b7160e01b600052603260045260246000fd5b602002602001015160ff1682600081518110610c3a57634e487b7160e01b600052603260045260246000fd5b6020026020010151600281518110610c6257634e487b7160e01b600052603260045260246000fd5b602002602001015160ff16148015610d1f575081600181518110610c9657634e487b7160e01b600052603260045260246000fd5b6020026020010151600181518110610cbe57634e487b7160e01b600052603260045260246000fd5b602002602001015160ff1682600281518110610cea57634e487b7160e01b600052603260045260246000fd5b6020026020010151600081518110610d1257634e487b7160e01b600052603260045260246000fd5b602002602001015160ff16145b80610e7f575081600181518110610d4657634e487b7160e01b600052603260045260246000fd5b6020026020010151600181518110610d6e57634e487b7160e01b600052603260045260246000fd5b602002602001015160ff1682600081518110610d9a57634e487b7160e01b600052603260045260246000fd5b6020026020010151600081518110610dc257634e487b7160e01b600052603260045260246000fd5b602002602001015160ff16148015610e7f575081600181518110610df657634e487b7160e01b600052603260045260246000fd5b6020026020010151600181518110610e1e57634e487b7160e01b600052603260045260246000fd5b602002602001015160ff1682600281518110610e4a57634e487b7160e01b600052603260045260246000fd5b6020026020010151600281518110610e7257634e487b7160e01b600052603260045260246000fd5b602002602001015160ff16145b95945050505050565b604051806060016040528060008152602001600060ff168152602001606081525090565b828054828255906000526020600020908101928215610ef9579160200282015b82811115610ef95782518051610ee9918491602090910190610f09565b5091602001919060010190610ecc565b50610f05929150610fab565b5090565b82805482825590600052602060002090601f01602090048101928215610f9f5791602002820160005b83821115610f7057835183826101000a81548160ff021916908360ff1602179055509260200192600101602081600001049283019260010302610f32565b8015610f9d5782816101000a81549060ff0219169055600101602081600001049283019260010302610f70565b505b50610f05929150610fc8565b80821115610f05576000610fbf8282610fdd565b50600101610fab565b5b80821115610f055760008155600101610fc9565b50805460008255601f0160209004906000526020600020908101906102dd9190610fc8565b600060608284031215611013578081fd5b61101d606061147e565b905061102882611044565b8152602082013560208201526040820135604082015292915050565b803560ff8116811461105557600080fd5b919050565b60006020828403121561106b578081fd5b6001600160401b038083351115611080578182fd5b8235830160e08186031215611093578283fd5b61109d606061147e565b82823511156110aa578384fd5b81358201606081880312156110bd578485fd5b6110c7606061147e565b813581526110d760208301611044565b602082015284604083013511156110ec578586fd5b60408201358201945087601f860112611103578586fd5b61111561111086356114ae565b61147e565b85358152602080820193508601875b87358110156111b557813588018b603f82011261113f57898afd5b6020810135611150611110826114ae565b80828252602082019150604084018f6040602086028701011115611172578d8efd5b8d94505b8385101561119c5761118781611044565b83526001949094019360209283019201611176565b5088525050602095860195929092019150600101611124565b505060408201528252506111cc8660208401611002565b60208201526111de8660808401611002565b604082015295945050505050565b6000604082840312156111fd578081fd5b611207604061147e565b61121083611044565b815261121e60208401611044565b60208201529392505050565b7b0ca2ba3432b932bab69029b4b3b732b21026b2b9b9b0b3b29d05199960211b8152601c810191909152603c0190565b6020808252825182820181905260009190848201906040850190845b8181101561129b5783516001600160a01b031683529284019291840191600101611276565b50909695505050505050565b93845260ff9290921660208401526040830152606082015260800190565b6020808252600b908201526a27b632103b32b939b4b7b760a91b604082015260600190565b602080825260169082015275119a595b1908185b1c9958591e481bd8d8dd5c1a595960521b604082015260600190565b60208082526013908201527257726f6e6720502d30207369676e617475726560681b604082015260600190565b60208082526013908201527257726f6e6720502d31207369676e617475726560681b604082015260600190565b60208082526023908201527f61636365737320636f6e74726f6c206f7220666c6f77206775617264206661696040820152621b195960ea1b606082015260800190565b60006020808352608083018451828501528185015160ff80821660408701526040870151915060608087015282825180855260a08801915060a086820289010194508584019350865b8181101561145657888603609f190183528451805180885290880190888801908a5b8181101561144057835188168352928a0192918a0191600101611422565b5090975050509386019391860191600101611400565b509398975050505050505050565b90815260200190565b63ffffffff91909116815260200190565b604051601f8201601f191681016001600160401b03811182821017156114a6576114a6611552565b604052919050565b60006001600160401b038211156114c7576114c7611552565b5060209081020190565b600082198211156114e4576114e461153c565b500190565b600060ff821660ff84168060ff038211156115065761150661153c565b019392505050565b600060ff83168061152d57634e487b7160e01b82526012600452602482fd5b8060ff84160691505092915050565b634e487b7160e01b600052601160045260246000fd5b634e487b7160e01b600052604160045260246000fdfea2646970667358221220cb3bf9f68294d6db0890d9352d80834afe09a019b19919b05ed49b086cec1b3e64736f6c63430008010033",
  "immutableReferences": {},
  "source": "// SPDX-License-Identifier: UNLICENSED\n// compiled with GUARD_ERROR_MESSAGES=false\npragma solidity >=0.8.0;\npragma abicoder v2;\n\ncontract CompiledTTTChannel  {\n  struct State {\n    uint256 version;\n    uint8 moves;\n    uint8[][] board;\n  } \n  struct Sig {\n    uint8 v;\n    uint256 r;\n    uint256 s;\n  } \n  struct SignedState {\n    State state;\n    Sig sig1;\n    Sig sig2;\n  } \n  struct UU {\n    uint8 x;\n    uint8 y;\n  } \n  address payable[] private parties;\n  State private onChain;\n  uint256 public timeout;\n  function theDispute(SignedState memory cp)  private {\n    require((cp.state.version > onChain.version), \"Old version\");\n    uint256 theHash = uint256(keccak256(abi.encode(State(cp.state.version, cp.state.moves, cp.state.board))));\n    require((ecrecover(bytes32(uint256(keccak256(abi.encodePacked(\"\\x19Ethereum Signed Message:\\n32\", theHash)))), cp.sig1.v, bytes32(cp.sig1.r), bytes32(cp.sig1.s)) == parties[uint256(0)]), \"Wrong P-0 signature\");\n    require((ecrecover(bytes32(uint256(keccak256(abi.encodePacked(\"\\x19Ethereum Signed Message:\\n32\", theHash)))), cp.sig2.v, bytes32(cp.sig2.r), bytes32(cp.sig2.s)) == parties[uint256(1)]), \"Wrong P-1 signature\");\n    if ((timeout == uint256(0xffffffffffffffffffffffffffffffffffffffffffffffffffffffffffffffff))) {\n      (timeout) = (block.timestamp + uint256(10));\n    } else {\n      uint8(0);\n    } \n    (onChain) = cp.state;\n  } \n  function public$won(uint8 x, uint8 y, uint8 pos, uint8[][] memory board)  private returns (bool) {\n    return(((((board[uint256(x)][uint256(0)] == board[uint256(x)][uint256(1)]) && (board[uint256(x)][uint256(1)] == board[uint256(x)][uint256(2)])) || ((board[uint256(0)][uint256(y)] == board[uint256(1)][uint256(y)]) && (board[uint256(1)][uint256(y)] == board[uint256(2)][uint256(y)]))) || ((board[uint256(1)][uint256(1)] == pos) && (((board[uint256(0)][uint256(2)] == board[uint256(1)][uint256(1)]) && (board[uint256(2)][uint256(0)] == board[uint256(1)][uint256(1)])) || ((board[uint256(0)][uint256(0)] == board[uint256(1)][uint256(1)]) && (board[uint256(2)][uint256(2)] == board[uint256(1)][uint256(1)]))))));\n  } \n  function theMove(UU memory pair)  private {\n    require((onChain.board[uint256(pair.x)][uint256(pair.y)] == uint8(0)), \"Field already occupied\");\n    uint8 pos = ((onChain.moves % uint8(2)) + uint8(2));\n    (onChain.board[uint256(pair.x)][uint256(pair.y)]) = pos;\n    bool cond = public$won(pair.x, pair.y, pos, onChain.board);\n    (onChain.moves) = (cond ? (uint8(10) + pos) : (onChain.moves + uint8(1)));\n  } \n  function move(UU memory incoming)  public {\n    require(((state == uint32(0x3c1d1878)) && (parties[uint256((onChain.moves % uint8(2)))] == payable(msg.sender))), \"access control or flow guard failed\");\n    theMove(incoming);\n    private$whil$macro$6();\n  } \n  function private$whil$macro$6()  private {\n    if ((onChain.moves < uint8(9))) {\n      (state) = uint32(0x3c1d1878);\n    } else {\n      (state) = 0;\n    } \n  } \n  function dispute(SignedState memory latestState)  public {\n    require((state == uint32(0x5f27452d)), \"access control or flow guard failed\");\n    if ((timeout > block.timestamp)) {\n      theDispute(latestState);\n    } else {\n      theMove(UU(latestState.sig1.v, latestState.sig2.v));\n    } \n    private$whil$macro$5();\n  } \n  function private$whil$macro$5()  private {\n    if ((timeout > block.timestamp)) {\n      (state) = uint32(0x5f27452d);\n    } else {\n      private$whil$macro$6();\n    } \n  } \n  constructor(address payable[] memory parties$) {\n    parties = parties$;\n    uint8[][] memory tmp$macro$7 = new uint8[][](uint256(3));\n    uint8[] memory tmp$macro$8 = new uint8[](uint256(3));\n    (tmp$macro$8[uint256(0)]) = uint8(0);\n    (tmp$macro$8[uint256(1)]) = uint8(0);\n    (tmp$macro$8[uint256(2)]) = uint8(0);\n    (tmp$macro$7[uint256(0)]) = tmp$macro$8;\n    uint8[] memory tmp$macro$9 = new uint8[](uint256(3));\n    (tmp$macro$9[uint256(0)]) = uint8(0);\n    (tmp$macro$9[uint256(1)]) = uint8(0);\n    (tmp$macro$9[uint256(2)]) = uint8(0);\n    (tmp$macro$7[uint256(1)]) = tmp$macro$9;\n    uint8[] memory tmp$macro$10 = new uint8[](uint256(3));\n    (tmp$macro$10[uint256(0)]) = uint8(0);\n    (tmp$macro$10[uint256(1)]) = uint8(0);\n    (tmp$macro$10[uint256(2)]) = uint8(0);\n    (tmp$macro$7[uint256(2)]) = tmp$macro$10;\n    onChain = State(uint256(0), uint8(0), tmp$macro$7);\n    timeout = uint256(0xffffffffffffffffffffffffffffffffffffffffffffffffffffffffffffffff);\n    private$whil$macro$5();\n    uint8(0);\n    \n  } \n  function get_parties()  public view returns (address payable[] memory result) {\n    address payable[] memory tmp = parties;\n    return(tmp);\n  } \n  function get_onChain()  public view returns (State memory result) {\n    State memory tmp = onChain;\n    return(tmp);\n  } \n  \n  uint32 public state;\n  \n  \n  \n  \n  \n\n} ",
  "sourcePath": "/mnt/103A12BD3A129FB0/CAC/Projekte/2019_PL4Blockchain/CodeRepo/EvaluationCode/contracts/CompiledTTTChannel.sol",
  "compiler": {
    "name": "solc",
    "version": "0.8.1+commit.df193b15.Emscripten.clang"
  },
  "schemaVersion": "3.4.3",
  "updatedAt": "2021-10-05T07:45:50.941Z",
  "devdoc": {
    "kind": "dev",
    "methods": {},
    "version": 1
  },
  "userdoc": {
    "kind": "user",
    "methods": {},
    "version": 1
  }
}