{
  "contractName": "CompiledRPS",
  "abi": [
    {
      "inputs": [
        {
          "internalType": "address payable[]",
          "name": "players$",
          "type": "address[]"
        }
      ],
      "stateMutability": "nonpayable",
      "type": "constructor"
    },
    {
      "inputs": [],
      "name": "commitment",
      "outputs": [
        {
          "internalType": "uint256",
          "name": "",
          "type": "uint256"
        }
      ],
      "stateMutability": "view",
      "type": "function"
    },
    {
      "inputs": [],
      "name": "deadline",
      "outputs": [
        {
          "internalType": "uint256",
          "name": "",
          "type": "uint256"
        }
      ],
      "stateMutability": "view",
      "type": "function"
    },
    {
      "inputs": [],
      "name": "rps2",
      "outputs": [
        {
          "internalType": "uint8",
          "name": "",
          "type": "uint8"
        }
      ],
      "stateMutability": "view",
      "type": "function"
    },
    {
      "inputs": [],
      "name": "state",
      "outputs": [
        {
          "internalType": "uint32",
          "name": "",
          "type": "uint32"
        }
      ],
      "stateMutability": "view",
      "type": "function"
    },
    {
      "inputs": [],
      "name": "winner",
      "outputs": [
        {
          "internalType": "uint256",
          "name": "",
          "type": "uint256"
        }
      ],
      "stateMutability": "view",
      "type": "function"
    },
    {
      "inputs": [
        {
          "components": [
            {
              "internalType": "uint8",
              "name": "rps1",
              "type": "uint8"
            },
            {
              "internalType": "uint256",
              "name": "nonce",
              "type": "uint256"
            }
          ],
          "internalType": "struct CompiledRPS.Opening",
          "name": "decommitment",
          "type": "tuple"
        }
      ],
      "name": "open",
      "outputs": [],
      "stateMutability": "nonpayable",
      "type": "function"
    },
    {
      "inputs": [
        {
          "internalType": "uint8",
          "name": "tmp",
          "type": "uint8"
        }
      ],
      "name": "move",
      "outputs": [],
      "stateMutability": "nonpayable",
      "type": "function"
    },
    {
      "inputs": [
        {
          "internalType": "uint256",
          "name": "tmp",
          "type": "uint256"
        }
      ],
      "name": "commit",
      "outputs": [],
      "stateMutability": "nonpayable",
      "type": "function"
    },
    {
      "inputs": [],
      "name": "get_players",
      "outputs": [
        {
          "internalType": "address payable[]",
          "name": "result",
          "type": "address[]"
        }
      ],
      "stateMutability": "view",
      "type": "function"
    }
  ],
  "bytecode": "0x608060405234801561001057600080fd5b5060405161089f38038061089f83398101604081905261002f9161010b565b8051610042906000906020840190610075565b5050600060018190556002805460ff1916905560038190556004556005805463ffffffff191663acc83c6b1790556101e6565b8280548282559060005260206000209081019282156100ca579160200282015b828111156100ca57825182546001600160a01b0319166001600160a01b03909116178255602090920191600190910190610095565b506100d69291506100da565b5090565b5b808211156100d657600081556001016100db565b80516001600160a01b038116811461010657600080fd5b919050565b6000602080838503121561011d578182fd5b82516001600160401b0380821115610133578384fd5b818501915085601f830112610146578384fd5b815181811115610158576101586101d0565b838102604051601f19603f8301168101818110858211171561017c5761017c6101d0565b604052828152858101935084860182860187018a101561019a578788fd5b8795505b838610156101c3576101af816100ef565b85526001959095019493860193860161019e565b5098975050505050505050565b634e487b7160e01b600052604160045260246000fd5b6106aa806101f56000396000f3fe608060405234801561001057600080fd5b50600436106100835760003560e01c80631303a4841461008857806329dcb0cf146100a657806370e87aaf146100ae578063bdd9e71d146100c3578063c19d93fb146100d6578063dfbf53ae146100eb578063e7e4552c146100f3578063f4f98ad514610108578063f752941a1461011b575b600080fd5b610090610130565b60405161009d9190610608565b60405180910390f35b610090610136565b6100c16100bc3660046104e9565b61013c565b005b6100c16100d136600461046f565b6101ed565b6100de61034d565b60405161009d9190610611565b610090610359565b6100fb61035f565b60405161009d919061050a565b6100c16101163660046104d1565b6103c4565b610123610450565b60405161009d9190610622565b60035481565b60045481565b60055463ffffffff16633c1d18781480156101955750336001600160a01b0316600060018154811061017e57634e487b7160e01b600052603260045260246000fd5b6000918252602090912001546001600160a01b0316145b6101ba5760405162461bcd60e51b81526004016101b1906105ab565b60405180910390fd5b6002805460ff191660ff83161790556101d4600a42610630565b600455506005805463ffffffff191663902c83b9179055565b60055463ffffffff1663902c83b9146102185760405162461bcd60e51b81526004016101b1906105ab565b426004541115610337576000808154811061024357634e487b7160e01b600052603260045260246000fd5b6000918252602090912001546001600160a01b031633146102765760405162461bcd60e51b81526004016101b19061057e565b8060405160200161028791906105ee565b6040516020818303038152906040528051906020012060001c600354146102c05760405162461bcd60e51b81526004016101b190610557565b6002546102d29060039060ff16610654565b81516102e39060039060ff16610654565b1461032c576002546003906102fd9060019060ff16610630565b6103079190610654565b81516103189060039060ff16610654565b14610324576002610327565b60015b61032f565b60035b60015561033d565b60026001555b506005805463ffffffff19169055565b60055463ffffffff1681565b60015481565b60606000808054806020026020016040519081016040528092919081815260200182805480156103b857602002820191906000526020600020905b81546001600160a01b0316815260019091019060200180831161039a575b50939550505050505090565b60055463ffffffff1663acc83c6b14801561041c5750336001600160a01b03166000808154811061040557634e487b7160e01b600052603260045260246000fd5b6000918252602090912001546001600160a01b0316145b6104385760405162461bcd60e51b81526004016101b1906105ab565b6003556005805463ffffffff1916633c1d1878179055565b60025460ff1681565b803560ff8116811461046a57600080fd5b919050565b600060408284031215610480578081fd5b6040516040810181811067ffffffffffffffff821117156104af57634e487b7160e01b83526041600452602483fd5b6040526104bb83610459565b8152602083013560208201528091505092915050565b6000602082840312156104e2578081fd5b5035919050565b6000602082840312156104fa578081fd5b61050382610459565b9392505050565b6020808252825182820181905260009190848201906040850190845b8181101561054b5783516001600160a01b031683529284019291840191600101610526565b50909695505050505050565b6020808252600d908201526c57726f6e67206f70656e696e6760981b604082015260600190565b6020808252601390820152722bb937b733903830b93a3c903a379037b832b760691b604082015260600190565b60208082526023908201527f61636365737320636f6e74726f6c206f7220666c6f77206775617264206661696040820152621b195960ea1b606082015260800190565b815160ff1681526020918201519181019190915260400190565b90815260200190565b63ffffffff91909116815260200190565b60ff91909116815260200190565b6000821982111561064f57634e487b7160e01b81526011600452602481fd5b500190565b60008261066f57634e487b7160e01b81526012600452602481fd5b50069056fea2646970667358221220174d0221d47754dd99e4ea3bc42c12560d7a11b551a632d4d3bdc53d173fe0ed64736f6c63430008010033",
  "immutableReferences": {},
  "source": "// SPDX-License-Identifier: UNLICENSED\n// compiled with GUARD_ERROR_MESSAGES=false\npragma solidity >=0.8.0;\npragma abicoder v2;\n\ncontract CompiledRPS  {\n  struct Opening {\n    uint8 rps1;\n    uint256 nonce;\n  } \n  address payable[] private players;\n  uint256 public winner;\n  uint8 public rps2;\n  uint256 public commitment;\n  uint256 public deadline;\n  function open(Opening memory decommitment)  public {\n    require((state == uint32(0x902c83b9)), \"access control or flow guard failed\");\n    if ((deadline > block.timestamp)) {\n      require((payable(msg.sender) == players[uint256(0)]), \"Wrong party to open\");\n      require((commitment == uint256(keccak256(abi.encode(decommitment)))), \"Wrong opening\");\n      (winner) = (((uint256(decommitment.rps1) % uint256(3)) == (uint256(rps2) % uint256(3))) ? uint256(3) : (((uint256(decommitment.rps1) % uint256(3)) == ((uint256(rps2) + uint256(1)) % uint256(3))) ? uint256(1) : uint256(2)));\n      uint8(0);\n    } else {\n      (winner) = uint256(2);\n    } \n    (state) = 0;\n  } \n  function move(uint8 tmp)  public {\n    require(((state == uint32(0x3c1d1878)) && (players[uint256(1)] == payable(msg.sender))), \"access control or flow guard failed\");\n    (rps2) = tmp;\n    (deadline) = (block.timestamp + uint256(10));\n    (state) = uint32(0x902c83b9);\n  } \n  function commit(uint256 tmp)  public {\n    require(((state == uint32(0xacc83c6b)) && (players[uint256(0)] == payable(msg.sender))), \"access control or flow guard failed\");\n    (commitment) = tmp;\n    (state) = uint32(0x3c1d1878);\n  } \n  constructor(address payable[] memory players$) {\n    players = players$;\n    winner = uint256(0);\n    rps2 = uint8(0);\n    commitment = uint256(0);\n    deadline = uint256(0);\n    (state) = uint32(0xacc83c6b);\n    uint8(0);\n    \n  } \n  function get_players()  public view returns (address payable[] memory result) {\n    address payable[] memory tmp = players;\n    return(tmp);\n  } \n  \n  uint32 public state;\n  \n  \n  \n  \n  \n\n} ",
  "sourcePath": "/mnt/103A12BD3A129FB0/CAC/Projekte/2019_PL4Blockchain/CodeRepo/EvaluationCode/contracts/CompiledRPS.sol",
  "compiler": {
    "name": "solc",
    "version": "0.8.1+commit.df193b15.Emscripten.clang"
  },
  "schemaVersion": "3.4.3",
  "updatedAt": "2021-10-05T07:45:50.880Z",
  "devdoc": {
    "kind": "dev",
    "methods": {},
    "version": 1
  },
  "userdoc": {
    "kind": "user",
    "methods": {},
    "version": 1
  }
}