{
  "contractName": "CompiledEscrow",
  "abi": [
    {
      "inputs": [
        {
          "internalType": "address payable",
          "name": "buyer$",
          "type": "address"
        },
        {
          "internalType": "address payable",
          "name": "seller$",
          "type": "address"
        },
        {
          "internalType": "address payable",
          "name": "arbiter$",
          "type": "address"
        },
        {
          "internalType": "uint256",
          "name": "price$",
          "type": "uint256"
        }
      ],
      "stateMutability": "nonpayable",
      "type": "constructor"
    },
    {
      "inputs": [],
      "name": "price",
      "outputs": [
        {
          "internalType": "uint256",
          "name": "",
          "type": "uint256"
        }
      ],
      "stateMutability": "view",
      "type": "function"
    },
    {
      "inputs": [],
      "name": "state",
      "outputs": [
        {
          "internalType": "uint32",
          "name": "",
          "type": "uint32"
        }
      ],
      "stateMutability": "view",
      "type": "function"
    },
    {
      "inputs": [
        {
          "internalType": "uint8",
          "name": "sendBack",
          "type": "uint8"
        }
      ],
      "name": "proceed",
      "outputs": [],
      "stateMutability": "nonpayable",
      "type": "function"
    },
    {
      "inputs": [
        {
          "internalType": "uint8",
          "name": "dummy",
          "type": "uint8"
        }
      ],
      "name": "pay_payable",
      "outputs": [],
      "stateMutability": "payable",
      "type": "function"
    },
    {
      "inputs": [],
      "name": "get_buyer",
      "outputs": [
        {
          "internalType": "address payable",
          "name": "result",
          "type": "address"
        }
      ],
      "stateMutability": "view",
      "type": "function"
    },
    {
      "inputs": [],
      "name": "get_seller",
      "outputs": [
        {
          "internalType": "address payable",
          "name": "result",
          "type": "address"
        }
      ],
      "stateMutability": "view",
      "type": "function"
    },
    {
      "inputs": [],
      "name": "get_arbiter",
      "outputs": [
        {
          "internalType": "address payable",
          "name": "result",
          "type": "address"
        }
      ],
      "stateMutability": "view",
      "type": "function"
    }
  ],
  "bytecode": "0x608060405234801561001057600080fd5b5060405161051e38038061051e83398101604081905261002f916100a5565b600080546001600160a01b03199081166001600160a01b03968716179091556001805482169486169490941790935560028054909316919093161790556003556004805463e745506e63ffffffff199091161790556100ef565b80516001600160a01b03811681146100a057600080fd5b919050565b600080600080608085870312156100ba578384fd5b6100c385610089565b93506100d160208601610089565b92506100df60408601610089565b6060959095015193969295505050565b610420806100fe6000396000f3fe6080604052600436106100605760003560e01c806312be97a114610065578063639fa85314610090578063723182f2146100b2578063a035b1fe146100c7578063c19d93fb146100e9578063c97b147e1461010b578063ee7ac9851461011e575b600080fd5b34801561007157600080fd5b5061007a610133565b604051610087919061032e565b60405180910390f35b34801561009c57600080fd5b506100b06100ab366004610306565b610142565b005b3480156100be57600080fd5b5061007a61025e565b3480156100d357600080fd5b506100dc61026d565b60405161008791906103d0565b3480156100f557600080fd5b506100fe610273565b60405161008791906103d9565b6100b0610119366004610306565b61027f565b34801561012a57600080fd5b5061007a6102f7565b6000546001600160a01b031690565b60045463ffffffff16630f218c7c146101765760405162461bcd60e51b815260040161016d90610367565b60405180910390fd5b6000546001600160a01b03163314806101a557506002546001600160a01b0316331480156101a5575060ff8116155b156101e9576001546040516001600160a01b03909116904780156108fc02916000818181858888f193505050501580156101e3573d6000803e3d6000fd5b5061024e565b6002546001600160a01b031633141561023657600080546040516001600160a01b03909116914780156108fc02929091818181858888f193505050501580156101e3573d6000803e3d6000fd5b60405162461bcd60e51b815260040161016d90610342565b506004805463ffffffff19169055565b6001546001600160a01b031690565b60035481565b60045463ffffffff1681565b60045463ffffffff1663e745506e1480156102a457506000546001600160a01b031633145b6102c05760405162461bcd60e51b815260040161016d90610367565b60035434146102e15760405162461bcd60e51b815260040161016d906103aa565b506004805463ffffffff1916630f218c7c179055565b6002546001600160a01b031690565b600060208284031215610317578081fd5b813560ff81168114610327578182fd5b9392505050565b6001600160a01b0391909116815260200190565b6020808252600b908201526a57726f6e6720706172747960a81b604082015260600190565b60208082526023908201527f61636365737320636f6e74726f6c206f7220666c6f77206775617264206661696040820152621b195960ea1b606082015260800190565b6020808252600c908201526b15dc9bdb99c8185b5bdd5b9d60a21b604082015260600190565b90815260200190565b63ffffffff9190911681526020019056fea2646970667358221220eec1b39f4e8750a9750190e20b17f1025f4071a90b29a0a1748bbd1a8246be5c64736f6c63430008010033",
  "immutableReferences": {},
  "source": "// SPDX-License-Identifier: UNLICENSED\n// compiled with GUARD_ERROR_MESSAGES=false\npragma solidity >=0.8.0;\npragma abicoder v2;\n\ncontract CompiledEscrow  {\n  address payable private buyer;\n  address payable private seller;\n  address payable private arbiter;\n  uint256 public price;\n  function proceed(uint8 sendBack)  public {\n    require((state == uint32(0x0f218c7c)), \"access control or flow guard failed\");\n    if (((payable(msg.sender) == buyer) || ((payable(msg.sender) == arbiter) && (sendBack == uint8(0))))) {\n      seller.transfer(address(this).balance);\n    } else if ((payable(msg.sender) == arbiter)) {\n      buyer.transfer(address(this).balance);\n    } else {\n      revert(\"Wrong party\");\n    } \n    (state) = 0;\n  } \n  function pay_payable(uint8 dummy)  public payable {\n    require(((state == uint32(0xe745506e)) && (buyer == payable(msg.sender))), \"access control or flow guard failed\");\n    require((msg.value == price), \"Wrong amount\");\n    (state) = uint32(0x0f218c7c);\n  } \n  constructor(address payable buyer$, address payable seller$, address payable arbiter$, uint256 price$) {\n    buyer = buyer$;\n    seller = seller$;\n    arbiter = arbiter$;\n    price = price$;\n    (state) = uint32(0xe745506e);\n    uint8(0);\n    \n  } \n  function get_buyer()  public view returns (address payable result) {\n    address payable tmp = buyer;\n    return(tmp);\n  } \n  function get_seller()  public view returns (address payable result) {\n    address payable tmp = seller;\n    return(tmp);\n  } \n  function get_arbiter()  public view returns (address payable result) {\n    address payable tmp = arbiter;\n    return(tmp);\n  } \n  \n  uint32 public state;\n  \n  \n  \n  \n  \n\n} ",
  "sourcePath": "/mnt/103A12BD3A129FB0/CAC/Projekte/2019_PL4Blockchain/CodeRepo/EvaluationCode/contracts/CompiledEscrow.sol",
  "compiler": {
    "name": "solc",
    "version": "0.8.1+commit.df193b15.Emscripten.clang"
  },
  "schemaVersion": "3.4.3",
  "updatedAt": "2021-10-05T07:45:50.815Z",
  "devdoc": {
    "kind": "dev",
    "methods": {},
    "version": 1
  },
  "userdoc": {
    "kind": "user",
    "methods": {},
    "version": 1
  }
}