{
  "contractName": "CompiledABC",
  "abi": [
    {
      "inputs": [],
      "stateMutability": "nonpayable",
      "type": "constructor"
    },
    {
      "inputs": [],
      "name": "two",
      "outputs": [
        {
          "internalType": "uint256",
          "name": "",
          "type": "uint256"
        }
      ],
      "stateMutability": "nonpayable",
      "type": "function"
    },
    {
      "inputs": [],
      "name": "three",
      "outputs": [
        {
          "internalType": "string",
          "name": "",
          "type": "string"
        }
      ],
      "stateMutability": "nonpayable",
      "type": "function"
    }
  ],
  "bytecode": "0x608060405234801561001057600080fd5b5063deadbeef6000556101fd806100286000396000f3fe608060405234801561001057600080fd5b50600436106100365760003560e01c806345caa1171461003b5780635fdf05d714610059575b600080fd5b61004361006e565b60405161005091906100b1565b60405180910390f35b61006161008e565b6040516100509190610174565b60606040518060800160405280604a815260200161017e604a9139905090565b600060405162461bcd60e51b81526004016100a890610104565b60405180910390fd5b6000602080835283518082850152825b818110156100dd578581018301518582016040015282016100c1565b818111156100ee5783604083870101525b50601f01601f1916929092016040019392505050565b6020808252604a908201527f4552524f523120282a2a2a2d2d2d2e2e2e2d2d2d2a2a2a29204552524f52322060408201527f282a2a2a2d2d2d2e2e2e2d2d2d2a2a2a29204552524f523320282a2a2a2d2d2d6060820152692e2e2e2d2d2d2a2a2a2960b01b608082015260a00190565b9081526020019056fe4552524f523120282a2a2a2d2d2d2e2e2e2d2d2d2a2a2a29204552524f523220282a2a2a2d2d2d2e2e2e2d2d2d2a2a2a29204552524f523320282a2a2a2d2d2d2e2e2e2d2d2d2a2a2a29a2646970667358221220639f603419e93027f67b2896ed879bf370340f83555beae4e630cfb937d73cc964736f6c63430008010033",
  "immutableReferences": {},
  "source": "// SPDX-License-Identifier: UNLICENSED\n// compiled with GUARD_ERROR_MESSAGES=false\npragma solidity >=0.8.0;\npragma abicoder v2;\n\ncontract CompiledABC  {\n  uint256 private x;\n  function two()  public returns (uint256) {\n    require((uint256(0) == uint256(1)), \"ERROR1 (***---...---***) ERROR2 (***---...---***) ERROR3 (***---...---***)\");\n    return(uint256(0xdeadbeef));\n  } \n  function three()  public returns (string memory) {\n    return(\"ERROR1 (***---...---***) ERROR2 (***---...---***) ERROR3 (***---...---***)\");\n  } \n  constructor() {\n    x = uint256(0xdeadbeef);\n    \n  } \n  \n  \n  \n  \n  \n  \n  \n\n} ",
  "sourcePath": "/mnt/103A12BD3A129FB0/CAC/Projekte/2019_PL4Blockchain/CodeRepo/EvaluationCode/contracts/CompiledABC.sol",
  "compiler": {
    "name": "solc",
    "version": "0.8.1+commit.df193b15.Emscripten.clang"
  },
  "schemaVersion": "3.4.3",
  "updatedAt": "2021-10-05T07:45:50.736Z",
  "devdoc": {
    "kind": "dev",
    "methods": {},
    "version": 1
  },
  "userdoc": {
    "kind": "user",
    "methods": {},
    "version": 1
  }
}