{
  "contractName": "CompiledCalc",
  "abi": [
    {
      "inputs": [],
      "stateMutability": "nonpayable",
      "type": "constructor"
    },
    {
      "inputs": [],
      "name": "reqArgs",
      "outputs": [
        {
          "internalType": "bytes",
          "name": "",
          "type": "bytes"
        }
      ],
      "stateMutability": "view",
      "type": "function"
    },
    {
      "inputs": [],
      "name": "result",
      "outputs": [
        {
          "internalType": "uint16",
          "name": "",
          "type": "uint16"
        }
      ],
      "stateMutability": "view",
      "type": "function"
    },
    {
      "inputs": [],
      "name": "state",
      "outputs": [
        {
          "internalType": "uint32",
          "name": "",
          "type": "uint32"
        }
      ],
      "stateMutability": "view",
      "type": "function"
    },
    {
      "inputs": [],
      "name": "ttA",
      "outputs": [
        {
          "internalType": "uint8[]",
          "name": "",
          "type": "uint8[]"
        }
      ],
      "stateMutability": "nonpayable",
      "type": "function"
    },
    {
      "inputs": [],
      "name": "ttAA",
      "outputs": [
        {
          "internalType": "uint8[][]",
          "name": "",
          "type": "uint8[][]"
        }
      ],
      "stateMutability": "nonpayable",
      "type": "function"
    },
    {
      "inputs": [
        {
          "internalType": "uint16",
          "name": "n",
          "type": "uint16"
        }
      ],
      "name": "co$add$macro$1",
      "outputs": [],
      "stateMutability": "nonpayable",
      "type": "function"
    },
    {
      "inputs": [
        {
          "internalType": "uint16",
          "name": "n",
          "type": "uint16"
        }
      ],
      "name": "co$sub$macro$2",
      "outputs": [],
      "stateMutability": "nonpayable",
      "type": "function"
    },
    {
      "inputs": [
        {
          "internalType": "uint16",
          "name": "n",
          "type": "uint16"
        }
      ],
      "name": "co$mul$macro$3",
      "outputs": [],
      "stateMutability": "nonpayable",
      "type": "function"
    },
    {
      "inputs": [
        {
          "internalType": "uint16",
          "name": "n",
          "type": "uint16"
        }
      ],
      "name": "co$div$macro$4",
      "outputs": [],
      "stateMutability": "nonpayable",
      "type": "function"
    },
    {
      "inputs": [],
      "name": "co$clear$macro$5",
      "outputs": [],
      "stateMutability": "nonpayable",
      "type": "function"
    },
    {
      "inputs": [
        {
          "internalType": "uint256",
          "name": "n",
          "type": "uint256"
        }
      ],
      "name": "co$tu$macro$6",
      "outputs": [],
      "stateMutability": "nonpayable",
      "type": "function"
    },
    {
      "inputs": [
        {
          "internalType": "uint8",
          "name": "n",
          "type": "uint8"
        }
      ],
      "name": "co$tu8$macro$7",
      "outputs": [],
      "stateMutability": "nonpayable",
      "type": "function"
    },
    {
      "inputs": [
        {
          "internalType": "uint16",
          "name": "n",
          "type": "uint16"
        }
      ],
      "name": "co$tu16$macro$8",
      "outputs": [],
      "stateMutability": "nonpayable",
      "type": "function"
    },
    {
      "inputs": [
        {
          "internalType": "uint32",
          "name": "n",
          "type": "uint32"
        }
      ],
      "name": "co$tu32$macro$9",
      "outputs": [],
      "stateMutability": "nonpayable",
      "type": "function"
    },
    {
      "inputs": [
        {
          "internalType": "uint64",
          "name": "n",
          "type": "uint64"
        }
      ],
      "name": "co$tu64$macro$10",
      "outputs": [],
      "stateMutability": "nonpayable",
      "type": "function"
    },
    {
      "inputs": [],
      "name": "co$tP$macro$11",
      "outputs": [],
      "stateMutability": "nonpayable",
      "type": "function"
    },
    {
      "inputs": [],
      "name": "co$tPP$macro$12",
      "outputs": [],
      "stateMutability": "nonpayable",
      "type": "function"
    },
    {
      "inputs": [],
      "name": "co$tA$macro$13",
      "outputs": [],
      "stateMutability": "nonpayable",
      "type": "function"
    },
    {
      "inputs": [],
      "name": "co$tAA$macro$14",
      "outputs": [],
      "stateMutability": "nonpayable",
      "type": "function"
    }
  ],
  "bytecode": "0x608060405234801561001057600080fd5b506000805461ffff19169055610fb68061002b6000396000f3fe608060405234801561001057600080fd5b50600436106100f15760003560e01c8063033c9cd6146100f65780631d41104d1461010b5780632e95d0c7146101135780633c8c9a5b1461012657806351472ec61461013957806365372147146101415780636ec6543e1461015f578063785ebbaf146101675780638aa415001461017a5780638adae39b1461018d57806398b7d6b5146101a25780639fe73b8a146101b5578063a1a84dfe146101c8578063b9bce0b0146101dd578063c19d93fb146101e5578063caa5a088146101fa578063d6ec205f1461020d578063d79003fe14610215578063e260f62d1461022a575b600080fd5b610109610104366004610c3f565b61023d565b005b6101096102a0565b610109610121366004610c80565b6102db565b610109610134366004610ca4565b610307565b610109610333565b6101496105d2565b6040516101569190610e44565b60405180910390f35b6101096105dc565b610109610175366004610c3f565b610635565b610109610188366004610ccb565b610647565b610195610673565b6040516101569190610d9e565b6101096101b0366004610c68565b610709565b6101096101c3366004610c3f565b610735565b6101d0610747565b6040516101569190610db1565b6101096107d5565b6101ed610884565b6040516101569190610e5c565b610109610208366004610c3f565b610896565b6101096108a8565b61021d6108d6565b6040516101569190610d3e565b610109610238366004610c3f565b610b51565b60005461024f90829061ffff16610ee2565b6000805461ffff191661ffff928316178082556040805180820182529283525161029d936020808501936102869392169101610e44565b604051602081830303815290604052815250610b7d565b50565b604080518082018252600081528151808301835260128152603460208281019190915292516102d9938084019261028692909101610e30565b565b61029d6040518060400160405280600063ffffffff168152602001836040516020016102869190610e5c565b61029d6040518060400160405280600063ffffffff168152602001836040516020016102869190610e6d565b60408051600380825260808201909252600091816020015b606081526020019060019003908161034b57505060408051600280825260608201835292935060009290916020830190803683370190505090506012816000815181106103a857634e487b7160e01b600052603260045260246000fd5b602002602001019060ff16908160ff16815250506034816001815181106103df57634e487b7160e01b600052603260045260246000fd5b602002602001019060ff16908160ff1681525050808260008151811061041557634e487b7160e01b600052603260045260246000fd5b60209081029190910101526040805160028082526060820190925260009181602001602082028036833701905050905060568160008151811061046857634e487b7160e01b600052603260045260246000fd5b602002602001019060ff16908160ff168152505060128160018151811061049f57634e487b7160e01b600052603260045260246000fd5b602002602001019060ff16908160ff168152505080836001815181106104d557634e487b7160e01b600052603260045260246000fd5b60209081029190910101526040805160028082526060820190925260009181602001602082028036833701905050905060348160008151811061052857634e487b7160e01b600052603260045260246000fd5b602002602001019060ff16908160ff168152505060568160018151811061055f57634e487b7160e01b600052603260045260246000fd5b602002602001019060ff16908160ff1681525050808460028151811061059557634e487b7160e01b600052603260045260246000fd5b60200260200101819052506105cc6040518060400160405280600063ffffffff168152602001866040516020016102869190610d3e565b50505050565b60005461ffff1681565b6040805180820182526000815281516080810183526012818401908152603460608301528152825180840184526056815260786020828101919091528281019190915292516102d9938084019261028692909101610e04565b60005461024f90829061ffff16610e8f565b61029d6040518060400160405280600063ffffffff168152602001836040516020016102869190610e81565b604080516002808252606080830184529260009291906020830190803683370190505090506012816000815181106106bb57634e487b7160e01b600052603260045260246000fd5b602002602001019060ff16908160ff16815250506034816001815181106106f257634e487b7160e01b600052603260045260246000fd5b60ff90921660209283029190910190910152905090565b61029d6040518060400160405280600063ffffffff168152602001836040516020016102869190610e53565b60005461024f90829061ffff16610eb5565b6001805461075490610f2f565b80601f016020809104026020016040519081016040528092919081815260200182805461078090610f2f565b80156107cd5780601f106107a2576101008083540402835291602001916107cd565b820191906000526020600020905b8154815290600101906020018083116107b057829003601f168201915b505050505081565b60408051600280825260608201835260009260208301908036833701905050905060128160008151811061081957634e487b7160e01b600052603260045260246000fd5b602002602001019060ff16908160ff168152505060348160018151811061085057634e487b7160e01b600052603260045260246000fd5b60ff90921660209283029190910182015260408051808201825260008152905161029d928281019161028691869101610d9e565b60005462010000900463ffffffff1681565b60005461024f90829061ffff16610f0c565b6000805461ffff1916815560408051808201825282815290516102d992602080840192610286929101610e44565b6040805160038082526080820190925260609160009190816020015b60608152602001906001900390816108f2575050604080516002808252606082018352929350600092909160208301908036833701905050905060128160008151811061094f57634e487b7160e01b600052603260045260246000fd5b602002602001019060ff16908160ff168152505060348160018151811061098657634e487b7160e01b600052603260045260246000fd5b602002602001019060ff16908160ff168152505080826000815181106109bc57634e487b7160e01b600052603260045260246000fd5b602090810291909101015260408051600280825260608201909252600091816020016020820280368337019050509050605681600081518110610a0f57634e487b7160e01b600052603260045260246000fd5b602002602001019060ff16908160ff1681525050601281600181518110610a4657634e487b7160e01b600052603260045260246000fd5b602002602001019060ff16908160ff16815250508083600181518110610a7c57634e487b7160e01b600052603260045260246000fd5b602090810291909101015260408051600280825260608201909252600091816020016020820280368337019050509050603481600081518110610acf57634e487b7160e01b600052603260045260246000fd5b602002602001019060ff16908160ff1681525050605681600181518110610b0657634e487b7160e01b600052603260045260246000fd5b602002602001019060ff16908160ff16815250508084600281518110610b3c57634e487b7160e01b600052603260045260246000fd5b60200260200101819052508394505050505090565b61029d6040518060400160405280600063ffffffff168152602001836040516020016102869190610e44565b6020808201518051610b93926001920190610ba6565b50506000805465ffffffff000019169055565b828054610bb290610f2f565b90600052602060002090601f016020900481019282610bd45760008555610c1a565b82601f10610bed57805160ff1916838001178555610c1a565b82800160010185558215610c1a579182015b82811115610c1a578251825591602001919060010190610bff565b50610c26929150610c2a565b5090565b5b80821115610c265760008155600101610c2b565b600060208284031215610c50578081fd5b813561ffff81168114610c61578182fd5b9392505050565b600060208284031215610c79578081fd5b5035919050565b600060208284031215610c91578081fd5b813563ffffffff81168114610c61578182fd5b600060208284031215610cb5578081fd5b81356001600160401b0381168114610c61578182fd5b600060208284031215610cdc578081fd5b813560ff81168114610c61578182fd5b6000815180845260208085019450808401835b83811015610d1e57815160ff1687529582019590820190600101610cff565b509495945050505050565b805160ff908116835260209182015116910152565b6000602080830181845280855180835260408601915060408482028701019250838701855b82811015610d9157603f19888603018452610d7f858351610cec565b94509285019290850190600101610d63565b5092979650505050505050565b600060208252610c616020830184610cec565b6000602080835283518082850152825b81811015610ddd57858101830151858201604001528201610dc1565b81811115610dee5783604083870101525b50601f01601f1916929092016040019392505050565b6000608082019050610e17828451610d29565b6020830151610e296040840182610d29565b5092915050565b60408101610e3e8284610d29565b92915050565b61ffff91909116815260200190565b90815260200190565b63ffffffff91909116815260200190565b6001600160401b0391909116815260200190565b60ff91909116815260200190565b600061ffff808316818516808303821115610eac57610eac610f6a565b01949350505050565b600061ffff80841680610ed657634e487b7160e01b83526012600452602483fd5b92169190910492915050565b600061ffff80831681851681830481118215151615610f0357610f03610f6a565b02949350505050565b600061ffff83811690831681811015610f2757610f27610f6a565b039392505050565b600281046001821680610f4357607f821691505b60208210811415610f6457634e487b7160e01b600052602260045260246000fd5b50919050565b634e487b7160e01b600052601160045260246000fdfea2646970667358221220636d0a0abb8a52fe153be8bc7a1f1dd9a424e6e72e6aa37db100703c67ba009264736f6c63430008010033",
  "immutableReferences": {},
  "source": "// SPDX-License-Identifier: UNLICENSED\n// compiled with GUARD_ERROR_MESSAGES=false\npragma solidity >=0.8.0;\npragma abicoder v2;\n\ncontract CompiledCalc  {\n  struct U8Pair {\n    uint8 a;\n    uint8 b;\n  } \n  struct U8PairPair {\n    U8Pair a;\n    U8Pair b;\n  } \n  uint16 public result;\n  function ttA()  public returns (uint8[] memory) {\n    uint8[] memory tmp$macro$15 = new uint8[](uint256(2));\n    (tmp$macro$15[uint256(0)]) = uint8(0x12);\n    (tmp$macro$15[uint256(1)]) = uint8(0x34);\n    return(tmp$macro$15);\n  } \n  function ttAA()  public returns (uint8[][] memory) {\n    uint8[][] memory tmp$macro$16 = new uint8[][](uint256(3));\n    uint8[] memory tmp$macro$17 = new uint8[](uint256(2));\n    (tmp$macro$17[uint256(0)]) = uint8(0x12);\n    (tmp$macro$17[uint256(1)]) = uint8(0x34);\n    (tmp$macro$16[uint256(0)]) = tmp$macro$17;\n    uint8[] memory tmp$macro$18 = new uint8[](uint256(2));\n    (tmp$macro$18[uint256(0)]) = uint8(0x56);\n    (tmp$macro$18[uint256(1)]) = uint8(0x12);\n    (tmp$macro$16[uint256(1)]) = tmp$macro$18;\n    uint8[] memory tmp$macro$19 = new uint8[](uint256(2));\n    (tmp$macro$19[uint256(0)]) = uint8(0x34);\n    (tmp$macro$19[uint256(1)]) = uint8(0x56);\n    (tmp$macro$16[uint256(2)]) = tmp$macro$19;\n    return(tmp$macro$16);\n  } \n  function co$add$macro$1(uint16 n)  public {\n    (result) = (result + n);\n    mk(Closure(0x0, abi.encode(result)));\n  } \n  function co$sub$macro$2(uint16 n)  public {\n    (result) = (result - n);\n    mk(Closure(0x0, abi.encode(result)));\n  } \n  function co$mul$macro$3(uint16 n)  public {\n    (result) = (result * n);\n    mk(Closure(0x0, abi.encode(result)));\n  } \n  function co$div$macro$4(uint16 n)  public {\n    (result) = (result / n);\n    mk(Closure(0x0, abi.encode(result)));\n  } \n  function co$clear$macro$5()  public {\n    (result) = uint16(0);\n    mk(Closure(0x0, abi.encode(result)));\n  } \n  function co$tu$macro$6(uint256 n)  public {\n    mk(Closure(0x0, abi.encode(n)));\n  } \n  function co$tu8$macro$7(uint8 n)  public {\n    mk(Closure(0x0, abi.encode(n)));\n  } \n  function co$tu16$macro$8(uint16 n)  public {\n    mk(Closure(0x0, abi.encode(n)));\n  } \n  function co$tu32$macro$9(uint32 n)  public {\n    mk(Closure(0x0, abi.encode(n)));\n  } \n  function co$tu64$macro$10(uint64 n)  public {\n    mk(Closure(0x0, abi.encode(n)));\n  } \n  function co$tP$macro$11()  public {\n    mk(Closure(0x0, abi.encode(U8Pair(uint8(0x12), uint8(0x34)))));\n  } \n  function co$tPP$macro$12()  public {\n    mk(Closure(0x0, abi.encode(U8PairPair(U8Pair(uint8(0x12), uint8(0x34)), U8Pair(uint8(0x56), uint8(0x78))))));\n  } \n  function co$tA$macro$13()  public {\n    uint8[] memory tmp$macro$20 = new uint8[](uint256(2));\n    (tmp$macro$20[uint256(0)]) = uint8(0x12);\n    (tmp$macro$20[uint256(1)]) = uint8(0x34);\n    mk(Closure(0x0, abi.encode(tmp$macro$20)));\n  } \n  function co$tAA$macro$14()  public {\n    uint8[][] memory tmp$macro$21 = new uint8[][](uint256(3));\n    uint8[] memory tmp$macro$22 = new uint8[](uint256(2));\n    (tmp$macro$22[uint256(0)]) = uint8(0x12);\n    (tmp$macro$22[uint256(1)]) = uint8(0x34);\n    (tmp$macro$21[uint256(0)]) = tmp$macro$22;\n    uint8[] memory tmp$macro$23 = new uint8[](uint256(2));\n    (tmp$macro$23[uint256(0)]) = uint8(0x56);\n    (tmp$macro$23[uint256(1)]) = uint8(0x12);\n    (tmp$macro$21[uint256(1)]) = tmp$macro$23;\n    uint8[] memory tmp$macro$24 = new uint8[](uint256(2));\n    (tmp$macro$24[uint256(0)]) = uint8(0x34);\n    (tmp$macro$24[uint256(1)]) = uint8(0x56);\n    (tmp$macro$21[uint256(2)]) = tmp$macro$24;\n    mk(Closure(0x0, abi.encode(tmp$macro$21)));\n  } \n  constructor() {\n    result = uint16(0);\n    \n  } \n  \n  uint32 public state;\n  bytes public reqArgs;\n  \n  struct Closure { uint32 id; bytes data; }\n  \n  function mk(Closure memory response) private {\n    reqArgs = response.data;\n    \n    state = 0;\n  }\n  \n  function flatMap(Closure memory request, Closure memory callback) private {\n    reqArgs = request.data;\n    \n    state = callback.id;\n  }\n\n} ",
  "sourcePath": "/mnt/103A12BD3A129FB0/CAC/Projekte/2019_PL4Blockchain/CodeRepo/EvaluationCode/contracts/CompiledCalc.sol",
  "compiler": {
    "name": "solc",
    "version": "0.8.1+commit.df193b15.Emscripten.clang"
  },
  "schemaVersion": "3.4.3",
  "updatedAt": "2021-10-05T07:45:50.746Z",
  "devdoc": {
    "kind": "dev",
    "methods": {},
    "version": 1
  },
  "userdoc": {
    "kind": "user",
    "methods": {},
    "version": 1
  }
}