{
  "contractName": "CompiledNotary",
  "abi": [
    {
      "inputs": [],
      "stateMutability": "nonpayable",
      "type": "constructor"
    },
    {
      "inputs": [
        {
          "internalType": "uint256",
          "name": "index",
          "type": "uint256"
        }
      ],
      "name": "getData",
      "outputs": [
        {
          "components": [
            {
              "internalType": "address",
              "name": "owner",
              "type": "address"
            },
            {
              "internalType": "uint256",
              "name": "timestamp",
              "type": "uint256"
            },
            {
              "internalType": "bytes",
              "name": "data",
              "type": "bytes"
            }
          ],
          "internalType": "struct CompiledNotary.Data",
          "name": "",
          "type": "tuple"
        }
      ],
      "stateMutability": "view",
      "type": "function"
    },
    {
      "inputs": [
        {
          "internalType": "bytes",
          "name": "theData",
          "type": "bytes"
        }
      ],
      "name": "submit",
      "outputs": [],
      "stateMutability": "nonpayable",
      "type": "function"
    }
  ],
  "bytecode": "0x608060405234801561001057600080fd5b506104b9806100206000396000f3fe608060405234801561001057600080fd5b50600436106100365760003560e01c80630178fe3f1461003b578063ef7fa71b14610064575b600080fd5b61004e610049366004610361565b610079565b60405161005b91906103ae565b60405180910390f35b6100776100723660046102b7565b610152565b005b6100816101f4565b60008281526020818152604091829020825160608101845281546001600160a01b0316815260018201549281019290925260028101805492939192918401916100c990610432565b80601f01602080910402602001604051908101604052809291908181526020018280546100f590610432565b80156101425780601f1061011757610100808354040283529160200191610142565b820191906000526020600020905b81548152906001019060200180831161012557829003601f168201915b5050505050815250509050919050565b6040518060600160405280336001600160a01b0316815260200142815260200182815250600080338460405160200161018c929190610379565b60408051808303601f190181529181528151602092830120835282820193909352908201600020835181546001600160a01b0319166001600160a01b039091161781558382015160018201559183015180516101ee926002850192019061021e565b50505050565b604051806060016040528060006001600160a01b0316815260200160008152602001606081525090565b82805461022a90610432565b90600052602060002090601f01602090048101928261024c5760008555610292565b82601f1061026557805160ff1916838001178555610292565b82800160010185558215610292579182015b82811115610292578251825591602001919060010190610277565b5061029e9291506102a2565b5090565b5b8082111561029e57600081556001016102a3565b6000602082840312156102c8578081fd5b813567ffffffffffffffff808211156102df578283fd5b818401915084601f8301126102f2578283fd5b8135818111156103045761030461046d565b604051601f8201601f19908116603f0116810190838211818310171561032c5761032c61046d565b81604052828152876020848701011115610344578586fd5b826020860160208301379182016020019490945295945050505050565b600060208284031215610372578081fd5b5035919050565b606083901b6001600160601b031916815281516000906103a0816014850160208701610406565b919091016014019392505050565b60006020825260018060a01b03835116602083015260208301516040830152604083015160608084015280518060808501526103f18160a0860160208501610406565b601f01601f19169290920160a0019392505050565b60005b83811015610421578181015183820152602001610409565b838111156101ee5750506000910152565b60028104600182168061044657607f821691505b6020821081141561046757634e487b7160e01b600052602260045260246000fd5b50919050565b634e487b7160e01b600052604160045260246000fdfea2646970667358221220d882e326661145d1383c36ca1f66fecd5885090c97d2d4981e08c91c5e4c643c64736f6c63430008010033",
  "immutableReferences": {},
  "source": "// SPDX-License-Identifier: UNLICENSED\n// compiled with GUARD_ERROR_MESSAGES=false\npragma solidity >=0.8.0;\npragma abicoder v2;\n\ncontract CompiledNotary  {\n  struct Data {\n    address owner;\n    uint256 timestamp;\n    bytes data;\n  } \n  mapping (uint256=>Data) private notaryStorage;\n  function getData(uint256 index)  view public returns (Data memory) {\n    return(notaryStorage[index]);\n  } \n  function submit(bytes memory theData)  public {\n    (notaryStorage[uint256(keccak256(abi.encodePacked(payable(msg.sender), theData)))]) = Data(payable(msg.sender), block.timestamp, theData);\n    uint8(0);\n  } \n  constructor() {\n    \n  } \n  \n  \n  \n  \n  \n  \n  \n\n} ",
  "sourcePath": "/mnt/103A12BD3A129FB0/CAC/Projekte/2019_PL4Blockchain/CodeRepo/EvaluationCode/contracts/CompiledNotary.sol",
  "compiler": {
    "name": "solc",
    "version": "0.8.1+commit.df193b15.Emscripten.clang"
  },
  "schemaVersion": "3.4.3",
  "updatedAt": "2021-10-05T07:45:50.872Z",
  "devdoc": {
    "kind": "dev",
    "methods": {},
    "version": 1
  },
  "userdoc": {
    "kind": "user",
    "methods": {},
    "version": 1
  }
}