{
  "contractName": "CompiledCrowdfunding",
  "abi": [
    {
      "inputs": [
        {
          "internalType": "uint256",
          "name": "goal$",
          "type": "uint256"
        },
        {
          "internalType": "uint256",
          "name": "deadline$",
          "type": "uint256"
        }
      ],
      "stateMutability": "nonpayable",
      "type": "constructor"
    },
    {
      "inputs": [],
      "name": "deadline",
      "outputs": [
        {
          "internalType": "uint256",
          "name": "",
          "type": "uint256"
        }
      ],
      "stateMutability": "view",
      "type": "function"
    },
    {
      "inputs": [],
      "name": "goal",
      "outputs": [
        {
          "internalType": "uint256",
          "name": "",
          "type": "uint256"
        }
      ],
      "stateMutability": "view",
      "type": "function"
    },
    {
      "inputs": [],
      "name": "state",
      "outputs": [
        {
          "internalType": "uint32",
          "name": "",
          "type": "uint32"
        }
      ],
      "stateMutability": "view",
      "type": "function"
    },
    {
      "inputs": [
        {
          "internalType": "uint256",
          "name": "dummy",
          "type": "uint256"
        }
      ],
      "name": "allInOne_payable",
      "outputs": [],
      "stateMutability": "payable",
      "type": "function"
    },
    {
      "inputs": [],
      "name": "get_owner",
      "outputs": [
        {
          "internalType": "address payable",
          "name": "result",
          "type": "address"
        }
      ],
      "stateMutability": "view",
      "type": "function"
    }
  ],
  "bytecode": "0x608060405234801561001057600080fd5b5060405161040238038061040283398101604081905261002f91610097565b60008290556001819055600280546001600160a01b0319163317905561005361005a565b50506100ba565b42600154118061006a5750600047115b15610087576004805463ffffffff1916635fef5000179055610095565b6004805463ffffffff191690555b565b600080604083850312156100a9578182fd5b505080516020909101519092909150565b610339806100c96000396000f3fe60806040526004361061004a5760003560e01c80630ac298dc1461004f57806329dcb0cf1461007a578063401938831461009c578063c19d93fb146100b1578063e84bbc85146100d3575b600080fd5b34801561005b57600080fd5b506100646100e8565b604051610071919061026e565b60405180910390f35b34801561008657600080fd5b5061008f6100f7565b60405161007191906102c5565b3480156100a857600080fd5b5061008f6100fd565b3480156100bd57600080fd5b506100c6610103565b60405161007191906102ce565b6100e66100e1366004610256565b61010f565b005b6002546001600160a01b031690565b60015481565b60005481565b60045463ffffffff1681565b60045463ffffffff16635fef5000146101435760405162461bcd60e51b815260040161013a90610282565b60405180910390fd5b42600154111561017d57336000908152600360205260409020546101689034906102df565b3360009081526003602052604090205561020e565b60005447106101c5576002546040516001600160a01b03909116904780156108fc02916000818181858888f193505050501580156101bf573d6000803e3d6000fd5b5061020e565b3360008181526003602052604080822054905181156108fc0292818181858888f193505050501580156101fc573d6000803e3d6000fd5b50336000908152600360205260408120555b610216610219565b50565b4260015411806102295750600047115b15610246576004805463ffffffff1916635fef5000179055610254565b6004805463ffffffff191690555b565b600060208284031215610267578081fd5b5035919050565b6001600160a01b0391909116815260200190565b60208082526023908201527f61636365737320636f6e74726f6c206f7220666c6f77206775617264206661696040820152621b195960ea1b606082015260800190565b90815260200190565b63ffffffff91909116815260200190565b600082198211156102fe57634e487b7160e01b81526011600452602481fd5b50019056fea26469706673582212209b8f5655b47d09eb66c21c9a17b51e74a98203d9293d0dd4d5ec82e6671544ae64736f6c63430008010033",
  "immutableReferences": {},
  "source": "// SPDX-License-Identifier: UNLICENSED\n// compiled with GUARD_ERROR_MESSAGES=false\npragma solidity >=0.8.0;\npragma abicoder v2;\n\ncontract CompiledCrowdfunding  {\n  uint256 public goal;\n  uint256 public deadline;\n  address payable private owner;\n  mapping (address=>uint256) private fundings;\n  function allInOne_payable(uint256 dummy)  public payable {\n    require((state == uint32(0x5fef5000)), \"access control or flow guard failed\");\n    if ((deadline > block.timestamp)) {\n      (fundings[payable(msg.sender)]) = (fundings[payable(msg.sender)] + msg.value);\n    } else if ((address(this).balance >= goal)) {\n      owner.transfer(address(this).balance);\n    } else {\n      payable(msg.sender).transfer(fundings[payable(msg.sender)]);\n      (fundings[payable(msg.sender)]) = uint256(0);\n    } \n    private$whil$macro$3();\n  } \n  function private$whil$macro$3()  private {\n    if (((deadline > block.timestamp) || (address(this).balance > uint256(0)))) {\n      (state) = uint32(0x5fef5000);\n    } else {\n      (state) = 0;\n    } \n  } \n  constructor(uint256 goal$, uint256 deadline$) {\n    goal = goal$;\n    deadline = deadline$;\n    owner = payable(msg.sender);\n    private$whil$macro$3();\n    uint8(0);\n    \n  } \n  function get_owner()  public view returns (address payable result) {\n    address payable tmp = owner;\n    return(tmp);\n  } \n  \n  uint32 public state;\n  \n  \n  \n  \n  \n\n} ",
  "sourcePath": "/mnt/103A12BD3A129FB0/CAC/Projekte/2019_PL4Blockchain/CodeRepo/EvaluationCode/contracts/CompiledCrowdfunding.sol",
  "compiler": {
    "name": "solc",
    "version": "0.8.1+commit.df193b15.Emscripten.clang"
  },
  "schemaVersion": "3.4.3",
  "updatedAt": "2021-10-05T07:45:50.809Z",
  "devdoc": {
    "kind": "dev",
    "methods": {},
    "version": 1
  },
  "userdoc": {
    "kind": "user",
    "methods": {},
    "version": 1
  }
}