{
  "contractName": "CompiledTTT",
  "abi": [
    {
      "inputs": [
        {
          "internalType": "address payable[]",
          "name": "players$",
          "type": "address[]"
        }
      ],
      "stateMutability": "nonpayable",
      "type": "constructor"
    },
    {
      "inputs": [],
      "name": "moves",
      "outputs": [
        {
          "internalType": "uint8",
          "name": "",
          "type": "uint8"
        }
      ],
      "stateMutability": "view",
      "type": "function"
    },
    {
      "inputs": [],
      "name": "state",
      "outputs": [
        {
          "internalType": "uint32",
          "name": "",
          "type": "uint32"
        }
      ],
      "stateMutability": "view",
      "type": "function"
    },
    {
      "inputs": [
        {
          "components": [
            {
              "internalType": "uint8",
              "name": "x",
              "type": "uint8"
            },
            {
              "internalType": "uint8",
              "name": "y",
              "type": "uint8"
            }
          ],
          "internalType": "struct CompiledTTT.UU",
          "name": "pair",
          "type": "tuple"
        }
      ],
      "name": "move",
      "outputs": [],
      "stateMutability": "nonpayable",
      "type": "function"
    },
    {
      "inputs": [],
      "name": "get_players",
      "outputs": [
        {
          "internalType": "address payable[]",
          "name": "result",
          "type": "address[]"
        }
      ],
      "stateMutability": "view",
      "type": "function"
    },
    {
      "inputs": [],
      "name": "get_board",
      "outputs": [
        {
          "internalType": "uint8[3][3]",
          "name": "result",
          "type": "uint8[3][3]"
        }
      ],
      "stateMutability": "view",
      "type": "function"
    }
  ],
  "bytecode": "0x60806040523480156200001157600080fd5b5060405162000ca638038062000ca68339810160408190526200003491620002b8565b80516200004990600090602084019062000110565b506001805460ff191690556040805160c081018252600060608083018281526080840183905260a084018390528352835180820185528281526020818101849052818601849052808501919091528451918201855282825281018290528084019190915291810191909152620000c49060029060036200017a565b50620000cf620000d6565b50620003a1565b600154600960ff909116101562000100576005805463ffffffff1916633c1d18781790556200010e565b6005805463ffffffff191690555b565b82805482825590600052602060002090810192821562000168579160200282015b828111156200016857825182546001600160a01b0319166001600160a01b0390911617825560209092019160019091019062000131565b5062000176929150620001c7565b5090565b8260038101928215620001b9579160200282015b82811115620001b9578251620001a89083906003620001de565b50916020019190600101906200018e565b506200017692915062000273565b5b80821115620001765760008155600101620001c8565b600183019183908215620001685791602002820160005b838211156200023557835183826101000a81548160ff021916908360ff1602179055509260200192600101602081600001049283019260010302620001f5565b8015620002645782816101000a81549060ff021916905560010160208160000104928301926001030262000235565b505062000176929150620001c7565b80821115620001765760006200028a828262000294565b5060010162000273565b5060009055565b80516001600160a01b0381168114620002b357600080fd5b919050565b60006020808385031215620002cb578182fd5b82516001600160401b0380821115620002e2578384fd5b818501915085601f830112620002f6578384fd5b8151818111156200030b576200030b6200038b565b838102604051601f19603f830116810181811085821117156200033257620003326200038b565b604052828152858101935084860182860187018a101562000351578788fd5b8795505b838610156200037e5762000369816200029b565b85526001959095019493860193860162000355565b5098975050505050505050565b634e487b7160e01b600052604160045260246000fd5b6108f580620003b16000396000f3fe608060405234801561001057600080fd5b50600436106100565760003560e01c8062be82751461005b5780635e2b51bc14610079578063c19d93fb1461008e578063ca2b7c1a146100a3578063e7e4552c146100b8575b600080fd5b6100636100cd565b6040516100709190610852565b60405180910390f35b6100816100d6565b604051610070919061076a565b610096610161565b6040516100709190610841565b6100b66100b13660046106b7565b61016d565b005b6100c0610214565b604051610070919061071d565b60015460ff1681565b6100de610656565b60408051606081019091526000906002600383835b82821015610156576040805160608101918290529085840190600390826000855b825461010083900a900460ff168152602060019283018181049485019490930390920291018084116101145790505050505050815260200190600101906100f3565b509294505050505090565b60055463ffffffff1681565b60055463ffffffff16633c1d18781480156101d25750600154339060009061019a9060029060ff16610891565b60ff16815481106101bb57634e487b7160e01b600052603260045260246000fd5b6000918252602090912001546001600160a01b0316145b6101f75760405162461bcd60e51b81526004016101ee906107fe565b60405180910390fd5b61020981600001518260200151610279565b61021161061e565b50565b606060008080548060200260200160405190810160405280929190818152602001828054801561026d57602002820191906000526020600020905b81546001600160a01b0316815260019091019060200180831161024f575b50939550505050505090565b6000600260ff84166003811061029f57634e487b7160e01b600052603260045260246000fd5b018260ff16600381106102c257634e487b7160e01b600052603260045260246000fd5b602081049091015460ff601f9092166101000a900416146102f55760405162461bcd60e51b81526004016101ee906107ce565b60015460009060029061030c90829060ff16610891565b6103169190610860565b90508060028460ff166003811061033d57634e487b7160e01b600052603260045260246000fd5b018360ff166003811061036057634e487b7160e01b600052603260045260246000fd5b602091828204019190066101000a81548160ff021916908360ff16021790555060028360ff16600381106103a457634e487b7160e01b600052603260045260246000fd5b0154610100900460ff908116906002908516600381106103d457634e487b7160e01b600052603260045260246000fd5b015460ff16148015610442575060028360ff166003811061040557634e487b7160e01b600052603260045260246000fd5b015462010000900460ff9081169060029085166003811061043657634e487b7160e01b600052603260045260246000fd5b0154610100900460ff16145b8061053f5750600360ff831681811061046b57634e487b7160e01b600052603260045260246000fd5b602081049091015460ff601f9092166101000a90041660026000018360ff16600381106104a857634e487b7160e01b600052603260045260246000fd5b602081049091015460ff601f9092166101000a90041614801561053f5750600460ff8316600381106104ea57634e487b7160e01b600052603260045260246000fd5b602081049091015460ff601f9092166101000a90041660026001018360ff166003811061052757634e487b7160e01b600052603260045260246000fd5b602081049091015460ff601f9092166101000a900416145b806105ca575060035460ff828116610100909204161480156105ca575060035460025462010000900460ff90811661010090920416148015610590575060035460045460ff90811661010090920416145b806105ca575060035460025460ff908116610100909204161480156105ca575060035460045462010000900460ff90811661010090920416145b156105f3576105da81600a610860565b6001805460ff191660ff92909216919091179055610619565b60018054610604919060ff16610860565b6001805460ff191660ff929092169190911790555b505050565b600154600960ff9091161015610646576005805463ffffffff1916633c1d1878179055610654565b6005805463ffffffff191690555b565b60405180606001604052806003905b61066d610683565b8152602001906001900390816106655790505090565b60405180606001604052806003906020820280368337509192915050565b803560ff811681146106b257600080fd5b919050565b6000604082840312156106c8578081fd5b6040516040810181811067ffffffffffffffff821117156106f757634e487b7160e01b83526041600452602483fd5b604052610703836106a1565b8152610711602084016106a1565b60208201529392505050565b6020808252825182820181905260009190848201906040850190845b8181101561075e5783516001600160a01b031683529284019291840191600101610739565b50909695505050505050565b610120810181836000805b600380821061078457506107c4565b835185845b838110156107aa57825160ff16825260209283019290910190600101610789565b505050606094909401935060209290920191600101610775565b5050505092915050565b602080825260169082015275119a595b1908185b1c9958591e481bd8d8dd5c1a595960521b604082015260600190565b60208082526023908201527f61636365737320636f6e74726f6c206f7220666c6f77206775617264206661696040820152621b195960ea1b606082015260800190565b63ffffffff91909116815260200190565b60ff91909116815260200190565b600060ff821660ff84168060ff0382111561088957634e487b7160e01b83526011600452602483fd5b019392505050565b600060ff8316806108b057634e487b7160e01b82526012600452602482fd5b8060ff8416069150509291505056fea2646970667358221220a00e5ea371a29e8e75b219c697e6163ca777c32757a96742b5ca64dc0c6cabd764736f6c63430008010033",
  "immutableReferences": {},
  "source": "// SPDX-License-Identifier: UNLICENSED\n// compiled with GUARD_ERROR_MESSAGES=false\npragma solidity >=0.8.0;\npragma abicoder v2;\n\ncontract CompiledTTT  {\n  address payable[] private players;\n  struct UU {\n    uint8 x;\n    uint8 y;\n  } \n  uint8 public moves;\n  uint8[3][3] private board;\n  function move2(uint8 x, uint8 y)  private {\n    require((board[uint256(x)][uint256(y)] == uint8(0)), \"Field already occupied\");\n    uint8 pos = ((moves % uint8(2)) + uint8(2));\n    (board[uint256(x)][uint256(y)]) = pos;\n    if (((((board[uint256(x)][uint256(0)] == board[uint256(x)][uint256(1)]) && (board[uint256(x)][uint256(1)] == board[uint256(x)][uint256(2)])) || ((board[uint256(0)][uint256(y)] == board[uint256(1)][uint256(y)]) && (board[uint256(1)][uint256(y)] == board[uint256(2)][uint256(y)]))) || ((board[uint256(1)][uint256(1)] == pos) && (((board[uint256(0)][uint256(2)] == board[uint256(1)][uint256(1)]) && (board[uint256(2)][uint256(0)] == board[uint256(1)][uint256(1)])) || ((board[uint256(0)][uint256(0)] == board[uint256(1)][uint256(1)]) && (board[uint256(2)][uint256(2)] == board[uint256(1)][uint256(1)])))))) {\n      (moves) = (uint8(10) + pos);\n    } else {\n      (moves) = (moves + uint8(1));\n    } \n  } \n  function move(UU memory pair)  public {\n    require(((state == uint32(0x3c1d1878)) && (players[uint256((moves % uint8(2)))] == payable(msg.sender))), \"access control or flow guard failed\");\n    move2(pair.x, pair.y);\n    private$whil$macro$3();\n  } \n  function private$whil$macro$3()  private {\n    if ((moves < uint8(9))) {\n      (state) = uint32(0x3c1d1878);\n    } else {\n      (state) = 0;\n    } \n  } \n  constructor(address payable[] memory players$) {\n    players = players$;\n    moves = uint8(0);\n    board = [[uint8(0), uint8(0), uint8(0)], [uint8(0), uint8(0), uint8(0)], [uint8(0), uint8(0), uint8(0)]];\n    private$whil$macro$3();\n    uint8(0);\n    \n  } \n  function get_players()  public view returns (address payable[] memory result) {\n    address payable[] memory tmp = players;\n    return(tmp);\n  } \n  function get_board()  public view returns (uint8[3][3] memory result) {\n    uint8[3][3] memory tmp = board;\n    return(tmp);\n  } \n  \n  uint32 public state;\n  \n  \n  \n  \n  \n\n} ",
  "sourcePath": "/mnt/103A12BD3A129FB0/CAC/Projekte/2019_PL4Blockchain/CodeRepo/EvaluationCode/contracts/CompiledTTT.sol",
  "compiler": {
    "name": "solc",
    "version": "0.8.1+commit.df193b15.Emscripten.clang"
  },
  "schemaVersion": "3.4.3",
  "updatedAt": "2021-10-05T07:45:50.914Z",
  "devdoc": {
    "kind": "dev",
    "methods": {},
    "version": 1
  },
  "userdoc": {
    "kind": "user",
    "methods": {},
    "version": 1
  }
}