{
  "contractName": "CompiledTTTLibrary",
  "abi": [
    {
      "inputs": [],
      "stateMutability": "nonpayable",
      "type": "constructor"
    },
    {
      "inputs": [
        {
          "internalType": "uint8[][]",
          "name": "board",
          "type": "uint8[][]"
        },
        {
          "internalType": "uint8",
          "name": "x",
          "type": "uint8"
        },
        {
          "internalType": "uint8",
          "name": "y",
          "type": "uint8"
        }
      ],
      "name": "checkWin",
      "outputs": [],
      "stateMutability": "view",
      "type": "function"
    }
  ],
  "bytecode": "0x608060405234801561001057600080fd5b50610800806100206000396000f3fe608060405234801561001057600080fd5b506004361061002b5760003560e01c8063ca761a2114610030575b600080fd5b61004361003e366004610651565b610045565b005b828260ff168151811061006857634e487b7160e01b600052603260045260246000fd5b602002602001015160018151811061009057634e487b7160e01b600052603260045260246000fd5b602002602001015160ff16838360ff16815181106100be57634e487b7160e01b600052603260045260246000fd5b60200260200101516000815181106100e657634e487b7160e01b600052603260045260246000fd5b602002602001015160ff161480156101a75750828260ff168151811061011c57634e487b7160e01b600052603260045260246000fd5b602002602001015160028151811061014457634e487b7160e01b600052603260045260246000fd5b602002602001015160ff16838360ff168151811061017257634e487b7160e01b600052603260045260246000fd5b602002602001015160018151811061019a57634e487b7160e01b600052603260045260246000fd5b602002602001015160ff16145b8061030f5750826001815181106101ce57634e487b7160e01b600052603260045260246000fd5b60200260200101518160ff16815181106101f857634e487b7160e01b600052603260045260246000fd5b602002602001015160ff168360008151811061022457634e487b7160e01b600052603260045260246000fd5b60200260200101518260ff168151811061024e57634e487b7160e01b600052603260045260246000fd5b602002602001015160ff1614801561030f57508260028151811061028257634e487b7160e01b600052603260045260246000fd5b60200260200101518160ff16815181106102ac57634e487b7160e01b600052603260045260246000fd5b602002602001015160ff16836001815181106102d857634e487b7160e01b600052603260045260246000fd5b60200260200101518260ff168151811061030257634e487b7160e01b600052603260045260246000fd5b602002602001015160ff16145b806106315750600060ff168360018151811061033b57634e487b7160e01b600052603260045260246000fd5b602002602001015160018151811061036357634e487b7160e01b600052603260045260246000fd5b602002602001015160ff161415801561063157508260018151811061039857634e487b7160e01b600052603260045260246000fd5b60200260200101516001815181106103c057634e487b7160e01b600052603260045260246000fd5b602002602001015160ff16836000815181106103ec57634e487b7160e01b600052603260045260246000fd5b602002602001015160028151811061041457634e487b7160e01b600052603260045260246000fd5b602002602001015160ff161480156104d157508260018151811061044857634e487b7160e01b600052603260045260246000fd5b602002602001015160018151811061047057634e487b7160e01b600052603260045260246000fd5b602002602001015160ff168360028151811061049c57634e487b7160e01b600052603260045260246000fd5b60200260200101516000815181106104c457634e487b7160e01b600052603260045260246000fd5b602002602001015160ff16145b806106315750826001815181106104f857634e487b7160e01b600052603260045260246000fd5b602002602001015160018151811061052057634e487b7160e01b600052603260045260246000fd5b602002602001015160ff168360008151811061054c57634e487b7160e01b600052603260045260246000fd5b602002602001015160008151811061057457634e487b7160e01b600052603260045260246000fd5b602002602001015160ff161480156106315750826001815181106105a857634e487b7160e01b600052603260045260246000fd5b60200260200101516001815181106105d057634e487b7160e01b600052603260045260246000fd5b602002602001015160ff16836002815181106105fc57634e487b7160e01b600052603260045260246000fd5b602002602001015160028151811061062457634e487b7160e01b600052603260045260246000fd5b602002602001015160ff16145b1561002b57505050565b803560ff8116811461064c57600080fd5b919050565b600080600060608486031215610665578283fd5b6001600160401b0384351115610679578283fd5b8335840185601f82011261068b578384fd5b602061069f61069a8335610791565b610761565b8235815281810190828401875b853581101561073657813586018b603f8201126106c757898afd5b858101356106d761069a82610791565b808282528882019150604084018f60408b860287010111156106f7578d8efd5b8d94505b838510156107205761070c8161063b565b8352600194909401939189019189016106fb565b50875250505092840192908401906001016106ac565b5050809650505061074881870161063b565b935050506107586040850161063b565b90509250925092565b604051601f8201601f191681016001600160401b0381118282101715610789576107896107b4565b604052919050565b60006001600160401b038211156107aa576107aa6107b4565b5060209081020190565b634e487b7160e01b600052604160045260246000fdfea26469706673582212203d496f1d732bf196c64b5e4ed1b665d5a497cbdefd6c040665f1fe86ac8272dd64736f6c63430008010033",
  "immutableReferences": {},
  "source": "// SPDX-License-Identifier: UNLICENSED\n// compiled with GUARD_ERROR_MESSAGES=false\npragma solidity >=0.8.0;\npragma abicoder v2;\n\ncontract CompiledTTTLibrary  {\n  function checkWin(uint8[][] memory board, uint8 x, uint8 y)  view public {\n    if (((((board[uint256(x)][uint256(0)] == board[uint256(x)][uint256(1)]) && (board[uint256(x)][uint256(1)] == board[uint256(x)][uint256(2)])) || ((board[uint256(0)][uint256(y)] == board[uint256(1)][uint256(y)]) && (board[uint256(1)][uint256(y)] == board[uint256(2)][uint256(y)]))) || ((board[uint256(1)][uint256(1)] != uint8(0)) && (((board[uint256(0)][uint256(2)] == board[uint256(1)][uint256(1)]) && (board[uint256(2)][uint256(0)] == board[uint256(1)][uint256(1)])) || ((board[uint256(0)][uint256(0)] == board[uint256(1)][uint256(1)]) && (board[uint256(2)][uint256(2)] == board[uint256(1)][uint256(1)])))))) {\n      require(true);\n    } else {\n      require(false);\n    } \n  } \n  constructor() {\n    \n  } \n  \n  \n  \n  \n  \n  \n  \n\n} ",
  "sourcePath": "/mnt/103A12BD3A129FB0/CAC/Projekte/2019_PL4Blockchain/CodeRepo/EvaluationCode/contracts/CompiledTTTLibrary.sol",
  "compiler": {
    "name": "solc",
    "version": "0.8.1+commit.df193b15.Emscripten.clang"
  },
  "schemaVersion": "3.4.3",
  "updatedAt": "2021-10-05T07:45:50.971Z",
  "devdoc": {
    "kind": "dev",
    "methods": {},
    "version": 1
  },
  "userdoc": {
    "kind": "user",
    "methods": {},
    "version": 1
  }
}