{
  "contractName": "DummyMultisigReceiver",
  "abi": [
    {
      "inputs": [],
      "name": "receiveNone",
      "outputs": [],
      "stateMutability": "nonpayable",
      "type": "function"
    },
    {
      "inputs": [
        {
          "internalType": "uint256",
          "name": "a",
          "type": "uint256"
        }
      ],
      "name": "receiveOne",
      "outputs": [],
      "stateMutability": "nonpayable",
      "type": "function"
    },
    {
      "inputs": [
        {
          "internalType": "uint256",
          "name": "a",
          "type": "uint256"
        },
        {
          "internalType": "uint256",
          "name": "b",
          "type": "uint256"
        }
      ],
      "name": "receiveTwo",
      "outputs": [],
      "stateMutability": "nonpayable",
      "type": "function"
    },
    {
      "inputs": [
        {
          "internalType": "bytes",
          "name": "c",
          "type": "bytes"
        }
      ],
      "name": "receiveMore",
      "outputs": [],
      "stateMutability": "nonpayable",
      "type": "function"
    },
    {
      "inputs": [],
      "name": "receiveCoins",
      "outputs": [],
      "stateMutability": "payable",
      "type": "function"
    },
    {
      "inputs": [],
      "name": "receiveFailed",
      "outputs": [],
      "stateMutability": "nonpayable",
      "type": "function"
    }
  ],
  "bytecode": "0x608060405234801561001057600080fd5b50610221806100206000396000f3fe6080604052600436106100555760003560e01c80630864c21e1461005a578063276afec61461007c5780636e782ff21461009157806383d35345146100a657806398f1529c146100ae578063aec5aa5b146100c9575b600080fd5b34801561006657600080fd5b5061007a61007536600461019c565b6100e9565b005b34801561008857600080fd5b5061007a6100ec565b34801561009d57600080fd5b5061007a610055565b61007a6100ec565b3480156100ba57600080fd5b5061007a6100753660046100f2565b3480156100d557600080fd5b5061007a6100e43660046101b4565b6100ee565b50565b565b5050565b600060208284031215610103578081fd5b813567ffffffffffffffff8082111561011a578283fd5b818401915084601f83011261012d578283fd5b81358181111561013f5761013f6101d5565b604051601f8201601f19908116603f01168101908382118183101715610167576101676101d5565b8160405282815287602084870101111561017f578586fd5b826020860160208301379182016020019490945295945050505050565b6000602082840312156101ad578081fd5b5035919050565b600080604083850312156101c6578081fd5b50508035926020909101359150565b634e487b7160e01b600052604160045260246000fdfea26469706673582212200981e549cf0136327b01f1b4ae4531d74b185ee84c974bbdb75cc1af3ea7136464736f6c63430008010033",
  "immutableReferences": {},
  "source": "// SPDX-License-Identifier: UNLICENSED\n\npragma solidity >=0.7.0;\npragma experimental ABIEncoderV2;\n\ncontract DummyMultisigReceiver {\n    \n    \n    function receiveNone() public {\n        \n    }\n    \n    function receiveOne(uint a) public {\n        \n    }\n    \n    function receiveTwo(uint a, uint b) public {\n        \n    }\n    \n    function receiveMore(bytes memory c) public {\n        \n    }\n    \n    function receiveCoins() public payable {\n        \n    }\n    \n    function receiveFailed() public {\n        require(false);\n    }\n    \n}\n",
  "sourcePath": "/mnt/103A12BD3A129FB0/CAC/Projekte/2019_PL4Blockchain/CodeRepo/EvaluationCode/contracts/DummyMultisigReceiver.sol",
  "compiler": {
    "name": "solc",
    "version": "0.8.1+commit.df193b15.Emscripten.clang"
  },
  "schemaVersion": "3.4.3",
  "updatedAt": "2021-10-01T09:20:25.313Z",
  "devdoc": {
    "kind": "dev",
    "methods": {},
    "version": 1
  },
  "userdoc": {
    "kind": "user",
    "methods": {},
    "version": 1
  }
}