{
  "contractName": "ManualCrowdfunding",
  "abi": [
    {
      "inputs": [
        {
          "internalType": "uint256",
          "name": "_goal",
          "type": "uint256"
        },
        {
          "internalType": "uint256",
          "name": "_deadline",
          "type": "uint256"
        }
      ],
      "stateMutability": "nonpayable",
      "type": "constructor"
    },
    {
      "inputs": [],
      "name": "deadline",
      "outputs": [
        {
          "internalType": "uint256",
          "name": "",
          "type": "uint256"
        }
      ],
      "stateMutability": "view",
      "type": "function"
    },
    {
      "inputs": [],
      "name": "goal",
      "outputs": [
        {
          "internalType": "uint256",
          "name": "",
          "type": "uint256"
        }
      ],
      "stateMutability": "view",
      "type": "function"
    },
    {
      "inputs": [],
      "name": "owner",
      "outputs": [
        {
          "internalType": "address payable",
          "name": "",
          "type": "address"
        }
      ],
      "stateMutability": "view",
      "type": "function"
    },
    {
      "inputs": [],
      "name": "fund",
      "outputs": [],
      "stateMutability": "payable",
      "type": "function"
    },
    {
      "inputs": [],
      "name": "claim",
      "outputs": [],
      "stateMutability": "nonpayable",
      "type": "function"
    },
    {
      "inputs": [],
      "name": "refund",
      "outputs": [],
      "stateMutability": "nonpayable",
      "type": "function"
    }
  ],
  "bytecode": "0x608060405234801561001057600080fd5b506040516103e63803806103e683398101604081905261002f9161004f565b600191909155600255600080546001600160a01b03191633179055610072565b60008060408385031215610061578182fd5b505080516020909101519092909150565b610365806100816000396000f3fe6080604052600436106100555760003560e01c806329dcb0cf1461005a57806340193883146100855780634e71d92d1461009a578063590e1ae3146100b15780638da5cb5b146100c6578063b60d4288146100e8575b600080fd5b34801561006657600080fd5b5061006f6100f0565b60405161007c9190610302565b60405180910390f35b34801561009157600080fd5b5061006f6100f6565b3480156100a657600080fd5b506100af6100fc565b005b3480156100bd57600080fd5b506100af610185565b3480156100d257600080fd5b506100db610211565b60405161007c9190610268565b6100af610220565b60025481565b60015481565b60025442116101265760405162461bcd60e51b815260040161011d906102a5565b60405180910390fd5b6001544710156101485760405162461bcd60e51b815260040161011d906102d8565b600080546040516001600160a01b03909116914780156108fc02929091818181858888f19350505050158015610182573d6000803e3d6000fd5b50565b60025442116101a65760405162461bcd60e51b815260040161011d906102a5565b60015447106101c75760405162461bcd60e51b815260040161011d906102d8565b3360008181526003602052604080822054905181156108fc0292818181858888f193505050501580156101fe573d6000803e3d6000fd5b5033600090815260036020526040812055565b6000546001600160a01b031681565b6002544211156102425760405162461bcd60e51b815260040161011d9061027c565b336000908152600360205260408120805434929061026190849061030b565b9091555050565b6001600160a01b0391909116815260200190565b6020808252600f908201526e151bc81b185d19481d1bc8199d5b99608a1b604082015260600190565b602080825260199082015278151bc819585c9b1e481d1bc819d95d081b5bdb995e481bdd5d603a1b604082015260600190565b60208082526010908201526f11dbd85b081b9bdd081c995858da195960821b604082015260600190565b90815260200190565b6000821982111561032a57634e487b7160e01b81526011600452602481fd5b50019056fea26469706673582212201a54c9a0a014b66765101edbaadd1fec947a9fed5b578ebd7ece9ad80d7e50cc64736f6c63430008010033",
  "immutableReferences": {},
  "source": "// SPDX-License-Identifier: UNLICENSED\npragma solidity >=0.7.0;\n\ncontract ManualCrowdfunding {\n    \n    address payable public owner;\n    uint public goal;\n    uint public deadline;\n    \n    mapping(address => uint) private fundings;\n    \n    constructor(uint _goal, uint _deadline){\n        \n        goal = _goal;\n        deadline = _deadline;\n        owner = payable(msg.sender);\n        \n    }\n    \n    function fund() public payable {\n        \n        require(block.timestamp <= deadline, \"To late to fund\");\n        \n        fundings[msg.sender] += msg.value;\n    }\n    \n    function claim() public {\n    \t\n    \trequire(block.timestamp  > deadline, \"To early to get money out\");\n    \trequire(address(this).balance >= goal, \"Goal not reached\");\n    \towner.transfer(address(this).balance);\n    }\n    \n    function refund() public {\n    \trequire(block.timestamp  > deadline, \"To early to get money out\");\n    \trequire(address(this).balance < goal, \"Goal not reached\");\n\tpayable(msg.sender).transfer(fundings[msg.sender]);\n\tfundings[msg.sender] = 0;\n    }\n}\n",
  "sourcePath": "/mnt/103A12BD3A129FB0/CAC/Projekte/2019_PL4Blockchain/CodeRepo/EvaluationCode/contracts/ManualCrowdfunding.sol",
  "compiler": {
    "name": "solc",
    "version": "0.8.1+commit.df193b15.Emscripten.clang"
  },
  "schemaVersion": "3.4.3",
  "updatedAt": "2021-10-01T09:20:25.335Z",
  "devdoc": {
    "kind": "dev",
    "methods": {},
    "version": 1
  },
  "userdoc": {
    "kind": "user",
    "methods": {},
    "version": 1
  }
}