{
  "contractName": "ManualHangman",
  "abi": [
    {
      "inputs": [
        {
          "internalType": "address payable[]",
          "name": "_players",
          "type": "address[]"
        }
      ],
      "stateMutability": "nonpayable",
      "type": "constructor"
    },
    {
      "inputs": [],
      "name": "currentGuess",
      "outputs": [
        {
          "internalType": "uint8",
          "name": "",
          "type": "uint8"
        }
      ],
      "stateMutability": "view",
      "type": "function"
    },
    {
      "inputs": [],
      "name": "hashedWord",
      "outputs": [
        {
          "internalType": "uint256",
          "name": "",
          "type": "uint256"
        }
      ],
      "stateMutability": "view",
      "type": "function"
    },
    {
      "inputs": [],
      "name": "missingletters",
      "outputs": [
        {
          "internalType": "uint256",
          "name": "",
          "type": "uint256"
        }
      ],
      "stateMutability": "view",
      "type": "function"
    },
    {
      "inputs": [],
      "name": "stage",
      "outputs": [
        {
          "internalType": "enum ManualHangman.Stage",
          "name": "",
          "type": "uint8"
        }
      ],
      "stateMutability": "view",
      "type": "function"
    },
    {
      "inputs": [],
      "name": "tries",
      "outputs": [
        {
          "internalType": "uint256",
          "name": "",
          "type": "uint256"
        }
      ],
      "stateMutability": "view",
      "type": "function"
    },
    {
      "inputs": [
        {
          "internalType": "uint256",
          "name": "_hash",
          "type": "uint256"
        },
        {
          "internalType": "uint256",
          "name": "_wordLength",
          "type": "uint256"
        }
      ],
      "name": "commit",
      "outputs": [],
      "stateMutability": "nonpayable",
      "type": "function"
    },
    {
      "inputs": [
        {
          "internalType": "uint8",
          "name": "_letter",
          "type": "uint8"
        }
      ],
      "name": "guess",
      "outputs": [],
      "stateMutability": "nonpayable",
      "type": "function"
    },
    {
      "inputs": [
        {
          "internalType": "uint256[]",
          "name": "_hits",
          "type": "uint256[]"
        }
      ],
      "name": "respond",
      "outputs": [],
      "stateMutability": "nonpayable",
      "type": "function"
    },
    {
      "inputs": [
        {
          "internalType": "uint8[]",
          "name": "_openingWord",
          "type": "uint8[]"
        },
        {
          "internalType": "uint256",
          "name": "_nonce",
          "type": "uint256"
        }
      ],
      "name": "open",
      "outputs": [],
      "stateMutability": "nonpayable",
      "type": "function"
    },
    {
      "inputs": [],
      "name": "getGuessed",
      "outputs": [
        {
          "internalType": "uint8[]",
          "name": "",
          "type": "uint8[]"
        }
      ],
      "stateMutability": "view",
      "type": "function"
    },
    {
      "inputs": [],
      "name": "getWord",
      "outputs": [
        {
          "internalType": "uint8[]",
          "name": "",
          "type": "uint8[]"
        }
      ],
      "stateMutability": "view",
      "type": "function"
    },
    {
      "inputs": [],
      "name": "getParties",
      "outputs": [
        {
          "internalType": "address payable[]",
          "name": "",
          "type": "address[]"
        }
      ],
      "stateMutability": "view",
      "type": "function"
    }
  ],
  "bytecode": "0x601a60808181526103e06040529060a061034080368337505081516200002d9260039250602001906200008d565b5060056007553480156200004057600080fd5b506040516200121e3803806200121e8339810160408190526200006391620001c6565b8051620000789060019060208401906200013a565b50506000805460ff19166001179055620002af565b82805482825590600052602060002090601f01602090048101928215620001285791602002820160005b83821115620000f757835183826101000a81548160ff021916908360ff1602179055509260200192600101602081600001049283019260010302620000b7565b8015620001265782816101000a81549060ff0219169055600101602081600001049283019260010302620000f7565b505b506200013692915062000192565b5090565b82805482825590600052602060002090810192821562000128579160200282015b828111156200012857825182546001600160a01b0319166001600160a01b039091161782556020909201916001909101906200015b565b5b8082111562000136576000815560010162000193565b80516001600160a01b0381168114620001c157600080fd5b919050565b60006020808385031215620001d9578182fd5b82516001600160401b0380821115620001f0578384fd5b818501915085601f83011262000204578384fd5b81518181111562000219576200021962000299565b838102604051601f19603f8301168101818110858211171562000240576200024062000299565b604052828152858101935084860182860187018a10156200025f578788fd5b8795505b838610156200028c576200027781620001a9565b85526001959095019493860193860162000263565b5098975050505050505050565b634e487b7160e01b600052604160045260246000fd5b610f5f80620002bf6000396000f3fe608060405234801561001057600080fd5b50600436106100a45760003560e01c8063146e61ed146100a957806324d94a56146100c75780632782e252146100dc5780632a155121146100f15780634ba4c16b146100f95780634ffec8ff1461010c57806356e065091461011f5780635bf56bc4146101275780636f30c4fd1461013a578063a8311aa81461014f578063c040e6b814610164578063ed40a8c814610179575b600080fd5b6100b1610181565b6040516100be9190610e57565b60405180910390f35b6100da6100d5366004610afe565b610187565b005b6100e461045b565b6040516100be9190610c15565b6100b16104d1565b6100da610107366004610ba7565b6104d7565b6100da61011a366004610b3d565b61062c565b6100b16108b8565b6100da610135366004610b86565b6108be565b6101426109d3565b6040516100be9190610eb0565b6101576109dc565b6040516100be9190610bc8565b61016c610a3d565b6040516100be9190610c50565b6100e4610a46565b60075481565b600360005460ff1660048111156101ae57634e487b7160e01b600052602160045260246000fd5b146101d45760405162461bcd60e51b81526004016101cb90610d0d565b60405180910390fd5b60016000815481106101f657634e487b7160e01b600052603260045260246000fd5b6000918252602090912001546001600160a01b031633146102295760405162461bcd60e51b81526004016101cb90610cac565b60005b818110156103765760045483838381811061025757634e487b7160e01b600052603260045260246000fd5b905060200201351061026857600080fd5b600483838381811061028a57634e487b7160e01b600052603260045260246000fd5b90506020020135815481106102af57634e487b7160e01b600052603260045260246000fd5b60009182526020918290209181049091015460ff601f9092166101000a900416156102ec5760405162461bcd60e51b81526004016101cb90610c78565b60055460ff16600484848481811061031457634e487b7160e01b600052603260045260246000fd5b905060200201358154811061033957634e487b7160e01b600052603260045260246000fd5b90600052602060002090602091828204019190066101000a81548160ff021916908360ff160217905550808061036e90610ef8565b91505061022c565b5060055460019060039061038f9060419060ff16610ed5565b60ff16815481106103b057634e487b7160e01b600052603260045260246000fd5b90600052602060002090602091828204019190066101000a81548160ff021916908360ff16021790555081819050600014156103fd5760016007546103f59190610ebe565b60075561040f565b60065461040b908290610ebe565b6006555b60065461042e5760008054819060ff19166001825b0217905550610457565b60075461044957600080546004919060ff1916600183610424565b6000805460ff191660021790555b5050565b606060038054806020026020016040519081016040528092919081815260200182805480156104c757602002820191906000526020600020906000905b825461010083900a900460ff168152602060019283018181049485019490930390920291018084116104985790505b5050505050905090565b60025481565b600260005460ff1660048111156104fe57634e487b7160e01b600052602160045260246000fd5b1461051b5760405162461bcd60e51b81526004016101cb90610e15565b6001808154811061053c57634e487b7160e01b600052603260045260246000fd5b6000918252602090912001546001600160a01b0316331461056f5760405162461bcd60e51b81526004016101cb90610cac565b601a61057c604183610ed5565b60ff161061059c5760405162461bcd60e51b81526004016101cb90610ce1565b60036105a9604183610ed5565b60ff16815481106105ca57634e487b7160e01b600052603260045260246000fd5b60009182526020918290209181049091015460ff601f9092166101000a900416156106075760405162461bcd60e51b81526004016101cb90610d97565b6005805460ff831660ff19918216179091556000805460039216600183021790555050565b600460005460ff16600481111561065357634e487b7160e01b600052602160045260246000fd5b146106705760405162461bcd60e51b81526004016101cb90610d52565b600160008154811061069257634e487b7160e01b600052603260045260246000fd5b6000918252602090912001546001600160a01b031633146106c55760405162461bcd60e51b81526004016101cb90610cac565b60045482146106d357600080fd5b60005b60045481101561086757601a604185858481811061070457634e487b7160e01b600052603260045260246000fd5b90506020020160208101906107199190610ba7565b6107239190610ed5565b60ff1610158061083b57506003604185858481811061075257634e487b7160e01b600052603260045260246000fd5b90506020020160208101906107679190610ba7565b6107719190610ed5565b60ff168154811061079257634e487b7160e01b600052603260045260246000fd5b90600052602060002090602091828204019190069054906101000a900460ff1660ff16600114801561083b57508383828181106107df57634e487b7160e01b600052603260045260246000fd5b90506020020160208101906107f49190610ba7565b60ff166004828154811061081857634e487b7160e01b600052603260045260246000fd5b60009182526020918290209181049091015460ff601f9092166101000a90041614155b15610855575060006006819055805460ff191690556108b3565b8061085f81610ef8565b9150506106d6565b5060025481848460405160200161088093929190610e60565b6040516020818303038152906040528051906020012060001c146108a85760006006556108b3565b6000805460ff191690555b505050565b60065481565b600160005460ff1660048111156108e557634e487b7160e01b600052602160045260246000fd5b146109025760405162461bcd60e51b81526004016101cb90610dce565b600160008154811061092457634e487b7160e01b600052603260045260246000fd5b6000918252602090912001546001600160a01b031633146109575760405162461bcd60e51b81526004016101cb90610cac565b600282815560068290556000805460ff191690911781555b818110156108b357600480546001810182556000919091527f8a35acfbc15ff81a39ae7d344fd709f28e8600b4aa8c65c6b64bfe7fe36bd19b60208204018054601f9092166101000a60ff02199091169055806109cb81610ef8565b91505061096f565b60055460ff1681565b606060018054806020026020016040519081016040528092919081815260200182805480156104c757602002820191906000526020600020905b81546001600160a01b03168152600190910190602001808311610a16575050505050905090565b60005460ff1681565b606060048054806020026020016040519081016040528092919081815260200182805480156104c7576000918252602091829020805460ff1684529082028301929091600191018084116104985790505050505050905090565b60008083601f840112610ab1578182fd5b5081356001600160401b03811115610ac7578182fd5b6020830191508360208083028501011115610ae157600080fd5b9250929050565b803560ff81168114610af957600080fd5b919050565b60008060208385031215610b10578182fd5b82356001600160401b03811115610b25578283fd5b610b3185828601610aa0565b90969095509350505050565b600080600060408486031215610b51578081fd5b83356001600160401b03811115610b66578182fd5b610b7286828701610aa0565b909790965060209590950135949350505050565b60008060408385031215610b98578182fd5b50508035926020909101359150565b600060208284031215610bb8578081fd5b610bc182610ae8565b9392505050565b6020808252825182820181905260009190848201906040850190845b81811015610c095783516001600160a01b031683529284019291840191600101610be4565b50909695505050505050565b6020808252825182820181905260009190848201906040850190845b81811015610c0957835160ff1683529284019291840191600101610c31565b6020810160058310610c7257634e487b7160e01b600052602160045260246000fd5b91905290565b6020808252601a908201527974686973206c65747465722077617320686974206265666f726560301b604082015260600190565b6020808252601b908201527a139bdd081d1a19481c9a59da1d081c1b185e595c881d1bc81858dd602a1b604082015260600190565b6020808252601290820152712737ba1030903b30b634b2103632ba3a32b960711b604082015260600190565b60208082526025908201527f4e6f7420696e2074686520726967687420737461676520666f72206120726573604082015264706f6e736560d81b606082015260800190565b60208082526025908201527f4e6f7420696e2074686520726967687420737461676520666f7220616e206f70604082015264656e696e6760d81b606082015260800190565b6020808252601f908201527f4c65747465722068617320616c7265616479206265656e206775657373656400604082015260600190565b60208082526027908201527f4e6f7420696e2074686520726967687420737461676520666f72206120636f6d6040820152661b5a5d1b595b9d60ca1b606082015260800190565b60208082526022908201527f4e6f7420696e2074686520726967687420737461676520666f72206120677565604082015261737360f01b606082015260800190565b90815260200190565b83815260406020808301829052908201839052600090849060608401835b86811015610ea45760ff610e9185610ae8565b1682529282019290820190600101610e7e565b50979650505050505050565b60ff91909116815260200190565b600082821015610ed057610ed0610f13565b500390565b600060ff821660ff841680821015610eef57610eef610f13565b90039392505050565b6000600019821415610f0c57610f0c610f13565b5060010190565b634e487b7160e01b600052601160045260246000fdfea26469706673582212200bc3e753d2ed7347fb6a6cd5c23bc92ef8a62ae69d149a0d79f539157f220a6b64736f6c63430008010033",
  "immutableReferences": {},
  "source": "// SPDX-License-Identifier: UNLICENSED\npragma solidity >=0.7.0;\npragma experimental \"ABIEncoderV2\";\n\n// !!! LoC Counted !!!\n\ncontract ManualHangman {\n\n    enum Stage {\n      Done, WaitingForCommit, WaitingForGuess, WaitingForResponse, WaitingForOpen\n    }\n    Stage public stage;\n\n    address payable[] players;\n\n    uint public hashedWord;\n    uint8[] guessed = new uint8[](26);\n    uint8[] word;\n    uint8 public currentGuess;\n    uint public missingletters;\n    uint public tries = 5;\n\n    constructor (address payable[] memory _players) {\n        players = _players;\n        stage = Stage.WaitingForCommit;\n    }\n\n    function commit(uint _hash, uint _wordLength) public { // !!!! ONLY CAPITAL LETTERS !!!!\n        require(stage == Stage.WaitingForCommit,\"Not in the right stage for a commitment\");\n        require(msg.sender == players[0], \"Not the right player to act\");\n        hashedWord = _hash;\n        missingletters = _wordLength;\n        stage = Stage.WaitingForGuess;\n        for(uint i = 0; i < _wordLength; i++){\n          word.push(uint8(0));\n        }\n    }\n\n    function guess(uint8 _letter) public {\n        require(stage == Stage.WaitingForGuess,\"Not in the right stage for a guess\");\n        require(msg.sender == players[1], \"Not the right player to act\");\n        require(_letter - 65 < 26, \"Not a valid letter\");\n        require(guessed[_letter - 65] == 0,\"Letter has already been guessed\");\n        currentGuess = _letter;\n        stage = Stage.WaitingForResponse;\n    }\n\n    function respond(uint[] calldata _hits) public  {\n        require(stage == Stage.WaitingForResponse,\"Not in the right stage for a response\");\n        require(msg.sender == players[0], \"Not the right player to act\");\n        for(uint i = 0; i < _hits.length; i++){\n            require(_hits[i] < word.length);\n            require(word[_hits[i]] == 0, \"this letter was hit before\");\n            word[_hits[i]] = currentGuess;\n        }\n        guessed[currentGuess - 65] = 1;\n        if (_hits.length == 0){\n            tries = tries - 1;\n        } else {\n            missingletters = missingletters - _hits.length;\n        }\n        if (missingletters == 0){\n            stage = Stage.Done;\n        } else if (tries == 0) {\n            stage = Stage.WaitingForOpen;\n        } else {\n            stage = Stage.WaitingForGuess;\n        }\n    }\n\n    function open(uint8[] calldata _openingWord, uint _nonce) public  {\n        require(stage == Stage.WaitingForOpen, \"Not in the right stage for an opening\");\n        require(msg.sender == players[0], \"Not the right player to act\");\n        require(_openingWord.length == word.length);\n        for(uint i = 0; i < word.length; i++){\n          if(_openingWord[i] - 65 >= 26\n          || guessed[_openingWord[i] - 65] == 1 && word[i] != _openingWord[i]){\n              missingletters = 0;\n              stage = Stage.Done;\n              return ;\n          }\n        }\n        if(uint(keccak256(abi.encode(_nonce, _openingWord))) != hashedWord){\n          missingletters = 0;\n          return;\n        }\n        stage = Stage.Done;\n    }\n    \n    function getGuessed() public view returns(uint8[] memory){\n        return guessed;\n    }\n    \n    function getWord() public view returns(uint8[] memory){\n        return word;\n    }\n    \n    function getParties() public view returns(address payable[] memory){\n        return players;\n    }\n}\n",
  "sourcePath": "/mnt/103A12BD3A129FB0/CAC/Projekte/2019_PL4Blockchain/CodeRepo/EvaluationCode/contracts/ManualHangman.sol",
  "compiler": {
    "name": "solc",
    "version": "0.8.1+commit.df193b15.Emscripten.clang"
  },
  "schemaVersion": "3.4.3",
  "updatedAt": "2021-10-01T09:20:25.347Z",
  "devdoc": {
    "kind": "dev",
    "methods": {},
    "version": 1
  },
  "userdoc": {
    "kind": "user",
    "methods": {},
    "version": 1
  }
}