{
  "contractName": "ManualMultiSig",
  "abi": [
    {
      "inputs": [
        {
          "internalType": "uint256",
          "name": "_threshold",
          "type": "uint256"
        },
        {
          "internalType": "address[]",
          "name": "_parties",
          "type": "address[]"
        }
      ],
      "stateMutability": "nonpayable",
      "type": "constructor"
    },
    {
      "inputs": [],
      "name": "nonce",
      "outputs": [
        {
          "internalType": "uint256",
          "name": "",
          "type": "uint256"
        }
      ],
      "stateMutability": "view",
      "type": "function"
    },
    {
      "inputs": [],
      "name": "threshold",
      "outputs": [
        {
          "internalType": "uint256",
          "name": "",
          "type": "uint256"
        }
      ],
      "stateMutability": "view",
      "type": "function"
    },
    {
      "stateMutability": "payable",
      "type": "receive"
    },
    {
      "inputs": [
        {
          "components": [
            {
              "internalType": "uint8",
              "name": "v",
              "type": "uint8"
            },
            {
              "internalType": "bytes32",
              "name": "r",
              "type": "bytes32"
            },
            {
              "internalType": "bytes32",
              "name": "s",
              "type": "bytes32"
            }
          ],
          "internalType": "struct ManualMultiSig.Signature[]",
          "name": "signatures",
          "type": "tuple[]"
        },
        {
          "internalType": "uint8[]",
          "name": "indices",
          "type": "uint8[]"
        },
        {
          "internalType": "uint256",
          "name": "timeout",
          "type": "uint256"
        },
        {
          "internalType": "address",
          "name": "destination",
          "type": "address"
        },
        {
          "internalType": "uint256",
          "name": "value",
          "type": "uint256"
        },
        {
          "internalType": "bytes",
          "name": "data",
          "type": "bytes"
        }
      ],
      "name": "execute",
      "outputs": [],
      "stateMutability": "nonpayable",
      "type": "function"
    },
    {
      "inputs": [],
      "name": "getParties",
      "outputs": [
        {
          "internalType": "address[]",
          "name": "",
          "type": "address[]"
        }
      ],
      "stateMutability": "view",
      "type": "function"
    }
  ],
  "bytecode": "0x60806040523480156200001157600080fd5b5060405162000c0138038062000c018339810160408190526200003491620000f9565b6000805560018290558051620000529060029060208401906200005b565b505050620001f0565b828054828255906000526020600020908101928215620000b3579160200282015b82811115620000b357825182546001600160a01b0319166001600160a01b039091161782556020909201916001909101906200007c565b50620000c1929150620000c5565b5090565b5b80821115620000c15760008155600101620000c6565b80516001600160a01b0381168114620000f457600080fd5b919050565b600080604083850312156200010c578182fd5b8251602080850151919350906001600160401b03808211156200012d578384fd5b818601915086601f83011262000141578384fd5b815181811115620001565762000156620001da565b838102604051601f19603f830116810181811085821117156200017d576200017d620001da565b604052828152858101935084860182860187018b10156200019c578788fd5b8795505b83861015620001c957620001b481620000dc565b855260019590950194938601938601620001a0565b508096505050505050509250929050565b634e487b7160e01b600052604160045260246000fd5b610a0180620002006000396000f3fe6080604052600436106100435760003560e01c806342cde4e81461004f5780636a37b0551461007a578063a8311aa81461009c578063affed0e0146100be5761004a565b3661004a57005b600080fd5b34801561005b57600080fd5b506100646100d3565b6040516100719190610910565b60405180910390f35b34801561008657600080fd5b5061009a610095366004610578565b6100d9565b005b3480156100a857600080fd5b506100b1610406565b6040516100719190610776565b3480156100ca57600080fd5b50610064610468565b60015481565b6001548651146101045760405162461bcd60e51b81526004016100fb9061082f565b60405180910390fd5b6001548551146101265760405162461bcd60e51b81526004016100fb906108df565b8342106101455760405162461bcd60e51b81526004016100fb90610889565b814710156101655760405162461bcd60e51b81526004016100fb906108b5565b6000805460405161018291309188908890889088906020016106e8565b604051602081830303815290604052805190602001206040516020016101a89190610746565b6040516020818303038152906040528051906020012090506000805b6001548110156103685760006001848b84815181106101f357634e487b7160e01b600052603260045260246000fd5b6020026020010151600001518c858151811061021f57634e487b7160e01b600052603260045260246000fd5b6020026020010151602001518d868151811061024b57634e487b7160e01b600052603260045260246000fd5b6020026020010151604001516040516000815260200160405260405161027494939291906107c3565b6020604051602081039080840390855afa158015610296573d6000803e3d6000fd5b505050602060405103519050826001600160a01b0316816001600160a01b0316116102d35760405162461bcd60e51b81526004016100fb90610863565b60028983815181106102f557634e487b7160e01b600052603260045260246000fd5b602002602001015160ff168154811061031e57634e487b7160e01b600052603260045260246000fd5b6000918252602090912001546001600160a01b038281169116146103545760405162461bcd60e51b81526004016100fb90610806565b91508061036081610984565b9150506101c4565b5060005461037790600161096c565b6000819055506000856001600160a01b031685856040516103989190610733565b60006040518083038185875af1925050503d80600081146103d5576040519150601f19603f3d011682016040523d82523d6000602084013e6103da565b606091505b50509050806103fb5760405162461bcd60e51b81526004016100fb906107e1565b505050505050505050565b6060600280548060200260200160405190810160405280929190818152602001828054801561045e57602002820191906000526020600020905b81546001600160a01b03168152600190910190602001808311610440575b5050505050905090565b60005481565b80356001600160a01b038116811461048557600080fd5b919050565b600082601f83011261049a578081fd5b813560206104af6104aa83610949565b610919565b82815281810190858301838502870184018810156104cb578586fd5b855b858110156104f0576104de82610567565b845292840192908401906001016104cd565b5090979650505050505050565b600082601f83011261050d578081fd5b81356001600160401b03811115610526576105266109b5565b610539601f8201601f1916602001610919565b81815284602083860101111561054d578283fd5b816020850160208301379081016020019190915292915050565b803560ff8116811461048557600080fd5b60008060008060008060c08789031215610590578182fd5b6001600160401b0380883511156105a5578283fd5b8735880189601f8201126105b7578384fd5b80356105c56104aa82610949565b80828252602082019150602084018d60206060860287010111156105e7578788fd5b8794505b83851015610642576060818f031215610602578788fd5b61060c6060610919565b61061582610567565b815260208281013581830152604080840135908301529084526001959095019492909201916060016105eb565b509950505050602088013581811115610659578384fd5b6106658a828b0161048a565b9650506040880135945061067b6060890161046e565b93506080880135925060a088013581811115610695578283fd5b6106a18a828b016104fd565b925050509295509295509295565b60008151815b818110156106cf57602081850181015186830152016106b5565b818111156106dd5782828601525b509290920192915050565b6001600160601b0319606088811b82168352601483018890526034830187905285901b16605482015260688101839052600061072760888301846106af565b98975050505050505050565b600061073f82846106af565b9392505050565b7b0ca2ba3432b932bab69029b4b3b732b21026b2b9b9b0b3b29d05199960211b8152601c810191909152603c0190565b6020808252825182820181905260009190848201906040850190845b818110156107b75783516001600160a01b031683529284019291840191600101610792565b50909695505050505050565b93845260ff9290921660208401526040830152606082015260800190565b6020808252600b908201526a10d85b1b0819985a5b195960aa1b604082015260600190565b6020808252600f908201526e57726f6e67207369676e617475726560881b604082015260600190565b6020808252601a908201527957726f6e67206e756d626572206f66207369676e61747572657360301b604082015260600190565b6020808252600c908201526b426164206f72646572696e6760a01b604082015260600190565b602080825260129082015271151bdbc81b185d19481d1bc81cdd589b5a5d60721b604082015260600190565b60208082526010908201526f4e6f7420656e6f75676820636f696e7360801b604082015260600190565b60208082526017908201527657726f6e67206e756d626572206f6620696e646963657360481b604082015260600190565b90815260200190565b604051601f8201601f191681016001600160401b0381118282101715610941576109416109b5565b604052919050565b60006001600160401b03821115610962576109626109b5565b5060209081020190565b6000821982111561097f5761097f61099f565b500190565b60006000198214156109985761099861099f565b5060010190565b634e487b7160e01b600052601160045260246000fd5b634e487b7160e01b600052604160045260246000fdfea26469706673582212205acd3c909adc13361a5e909e0785e35650f3330d2adbb2e25b4f5b977884c0d364736f6c63430008010033",
  "immutableReferences": {},
  "source": "// SPDX-License-Identifier: UNLICENSED\npragma solidity >=0.7.0;\npragma experimental ABIEncoderV2;\n\ncontract ManualMultiSig {\n    \n    struct Signature {\n        uint8 v;\n        bytes32 r;\n        bytes32 s;\n    }\n    \n    uint public nonce;\n    uint public threshold;\n    address[] parties;\n    \n    constructor(uint _threshold, address[] memory _parties) {\n        nonce = 0;\n        threshold = _threshold;\n        parties = _parties;\n    }\n    \n    function execute(Signature[] memory signatures, uint8[] memory indices, uint timeout,\n    \taddress destination, uint value, bytes memory data) public {\n        \n        //Checks: corret array length and before submission timeout\n        require(signatures.length == threshold, \"Wrong number of signatures\");\n        require(indices.length == threshold, \"Wrong number of indices\");\n        require(block.timestamp < timeout, \"Too late to submit\");\n        require(address(this).balance >= value, \"Not enough coins\");\n        \n        //Calc Hash\n        bytes32 _prefixedHash = keccak256(abi.encodePacked(\"\\x19Ethereum Signed Message:\\n32\",\n        \tkeccak256(abi.encodePacked(address(this), nonce, timeout, destination, value, data))));\n\n        //Check signatures\n        address last = address(0);\n        for(uint i = 0; i < threshold; i++){\n            address rec = ecrecover(_prefixedHash, signatures[i].v, signatures[i].r, signatures[i].s);\n            //require(rec > last && rec == parties[indices[i]], \"Wrong signature, bad ordering or duplicate signature\");                      \n            require(rec > last, \"Bad ordering\");\n            require(rec == parties[indices[i]], \"Wrong signature\");\n            last = rec;\n        }\n        \n        nonce = nonce + 1;\n        (bool success,) = destination.call{value:value}(data);\n        require(success, \"Call failed\");\n        \n    }\n    \n    function getParties() public view returns (address[] memory) {\n    return(parties);\n  } \n    \n    receive() external payable {\n        //Just to receive coins\n    }\n}\n",
  "sourcePath": "/mnt/103A12BD3A129FB0/CAC/Projekte/2019_PL4Blockchain/CodeRepo/EvaluationCode/contracts/ManualMultiSig.sol",
  "compiler": {
    "name": "solc",
    "version": "0.8.1+commit.df193b15.Emscripten.clang"
  },
  "schemaVersion": "3.4.3",
  "updatedAt": "2021-10-01T09:20:25.359Z",
  "devdoc": {
    "kind": "dev",
    "methods": {},
    "version": 1
  },
  "userdoc": {
    "kind": "user",
    "methods": {},
    "version": 1
  }
}