{
  "contractName": "ManualTTTLibrary",
  "abi": [
    {
      "inputs": [
        {
          "internalType": "uint8[][]",
          "name": "board",
          "type": "uint8[][]"
        },
        {
          "internalType": "uint8",
          "name": "x",
          "type": "uint8"
        },
        {
          "internalType": "uint8",
          "name": "y",
          "type": "uint8"
        }
      ],
      "name": "checkWin",
      "outputs": [],
      "stateMutability": "pure",
      "type": "function"
    }
  ],
  "bytecode": "0x608060405234801561001057600080fd5b506107fd806100206000396000f3fe608060405234801561001057600080fd5b506004361061002b5760003560e01c8063ca761a2114610030575b600080fd5b61004361003e36600461064e565b610045565b005b828260ff168151811061006857634e487b7160e01b600052603260045260246000fd5b602002602001015160018151811061009057634e487b7160e01b600052603260045260246000fd5b602002602001015160ff16838360ff16815181106100be57634e487b7160e01b600052603260045260246000fd5b60200260200101516000815181106100e657634e487b7160e01b600052603260045260246000fd5b602002602001015160ff161480156101a75750828260ff168151811061011c57634e487b7160e01b600052603260045260246000fd5b602002602001015160028151811061014457634e487b7160e01b600052603260045260246000fd5b602002602001015160ff16838360ff168151811061017257634e487b7160e01b600052603260045260246000fd5b602002602001015160018151811061019a57634e487b7160e01b600052603260045260246000fd5b602002602001015160ff16145b8061030f5750826001815181106101ce57634e487b7160e01b600052603260045260246000fd5b60200260200101518160ff16815181106101f857634e487b7160e01b600052603260045260246000fd5b602002602001015160ff168360008151811061022457634e487b7160e01b600052603260045260246000fd5b60200260200101518260ff168151811061024e57634e487b7160e01b600052603260045260246000fd5b602002602001015160ff1614801561030f57508260028151811061028257634e487b7160e01b600052603260045260246000fd5b60200260200101518160ff16815181106102ac57634e487b7160e01b600052603260045260246000fd5b602002602001015160ff16836001815181106102d857634e487b7160e01b600052603260045260246000fd5b60200260200101518260ff168151811061030257634e487b7160e01b600052603260045260246000fd5b602002602001015160ff16145b8061062e57508260018151811061033657634e487b7160e01b600052603260045260246000fd5b602002602001015160018151811061035e57634e487b7160e01b600052603260045260246000fd5b602002602001015160ff1660001415801561062e57508260018151811061039557634e487b7160e01b600052603260045260246000fd5b60200260200101516001815181106103bd57634e487b7160e01b600052603260045260246000fd5b602002602001015160ff16836000815181106103e957634e487b7160e01b600052603260045260246000fd5b602002602001015160028151811061041157634e487b7160e01b600052603260045260246000fd5b602002602001015160ff161480156104ce57508260028151811061044557634e487b7160e01b600052603260045260246000fd5b602002602001015160008151811061046d57634e487b7160e01b600052603260045260246000fd5b602002602001015160ff168360018151811061049957634e487b7160e01b600052603260045260246000fd5b60200260200101516001815181106104c157634e487b7160e01b600052603260045260246000fd5b602002602001015160ff16145b8061062e5750826001815181106104f557634e487b7160e01b600052603260045260246000fd5b602002602001015160018151811061051d57634e487b7160e01b600052603260045260246000fd5b602002602001015160ff168360008151811061054957634e487b7160e01b600052603260045260246000fd5b602002602001015160008151811061057157634e487b7160e01b600052603260045260246000fd5b602002602001015160ff1614801561062e5750826002815181106105a557634e487b7160e01b600052603260045260246000fd5b60200260200101516002815181106105cd57634e487b7160e01b600052603260045260246000fd5b602002602001015160ff16836001815181106105f957634e487b7160e01b600052603260045260246000fd5b602002602001015160018151811061062157634e487b7160e01b600052603260045260246000fd5b602002602001015160ff16145b1561002b57505050565b803560ff8116811461064957600080fd5b919050565b600080600060608486031215610662578283fd5b6001600160401b0384351115610676578283fd5b8335840185601f820112610688578384fd5b602061069c610697833561078e565b61075e565b8235815281810190828401875b853581101561073357813586018b603f8201126106c457898afd5b858101356106d46106978261078e565b808282528882019150604084018f60408b860287010111156106f4578d8efd5b8d94505b8385101561071d5761070981610638565b8352600194909401939189019189016106f8565b50875250505092840192908401906001016106a9565b50508096505050610745818701610638565b9350505061075560408501610638565b90509250925092565b604051601f8201601f191681016001600160401b0381118282101715610786576107866107b1565b604052919050565b60006001600160401b038211156107a7576107a76107b1565b5060209081020190565b634e487b7160e01b600052604160045260246000fdfea26469706673582212202a89d86757d57b9d013a852bdce49aa3aae6c8cd516b8ed4195676525ca995c164736f6c63430008010033",
  "immutableReferences": {},
  "source": "// SPDX-License-Identifier: UNLICENSED\npragma solidity >=0.7.0;\npragma experimental \"ABIEncoderV2\";\n\ncontract ManualTTTLibrary {\n    \n    function checkWin(uint8[][] memory board, uint8 x, uint8 y) public pure {\n        \n        if (board[x][0] == board[x][1] && board[x][1] == board[x][2]\n        ||  board[0][y] == board[1][y] && board[1][y] == board[2][y]\n        || board[1][1] != 0 && (\n        \t  board[0][2] == board[1][1] && board[1][1] == board[2][0]\n        \t  ||  board[0][0] == board[1][1] && board[1][1] == board[2][2] )){\n            require(true);\n        } else {\n            require(false);\n        }\n        \n    }\n    \n//    function testSignature(uint8[][] memory board, uint8 x, uint8 y) public pure returns (bytes memory){\n//        return abi.encode(bytes4(keccak256(\"checkWin(uint8[][],uint8,uint8)\")), board, x, y);\n//    }\n    \n//    function testSignatureTwo(uint8[][] memory board, uint8 x, uint8 y) public pure returns (bytes memory){\n//        return abi.encodePacked(\"\\xca\\x76\\x1a\\x21\", abi.encode(board, x, y));\n//    }\n}\n",
  "sourcePath": "/mnt/103A12BD3A129FB0/CAC/Projekte/2019_PL4Blockchain/CodeRepo/EvaluationCode/contracts/ManualTTTLibrary.sol",
  "compiler": {
    "name": "solc",
    "version": "0.8.1+commit.df193b15.Emscripten.clang"
  },
  "schemaVersion": "3.4.3",
  "updatedAt": "2021-10-01T09:20:25.405Z",
  "devdoc": {
    "kind": "dev",
    "methods": {},
    "version": 1
  },
  "userdoc": {
    "kind": "user",
    "methods": {},
    "version": 1
  }
}