{
  "contractName": "ManualRockPaperScissors",
  "abi": [
    {
      "inputs": [
        {
          "internalType": "address[]",
          "name": "_parties",
          "type": "address[]"
        }
      ],
      "stateMutability": "nonpayable",
      "type": "constructor"
    },
    {
      "inputs": [],
      "name": "commitment",
      "outputs": [
        {
          "internalType": "bytes32",
          "name": "",
          "type": "bytes32"
        }
      ],
      "stateMutability": "view",
      "type": "function"
    },
    {
      "inputs": [],
      "name": "result",
      "outputs": [
        {
          "internalType": "uint8",
          "name": "",
          "type": "uint8"
        }
      ],
      "stateMutability": "view",
      "type": "function"
    },
    {
      "inputs": [],
      "name": "rps2",
      "outputs": [
        {
          "internalType": "uint8",
          "name": "",
          "type": "uint8"
        }
      ],
      "stateMutability": "view",
      "type": "function"
    },
    {
      "inputs": [
        {
          "internalType": "bytes32",
          "name": "_commitment",
          "type": "bytes32"
        }
      ],
      "name": "commit",
      "outputs": [],
      "stateMutability": "nonpayable",
      "type": "function"
    },
    {
      "inputs": [
        {
          "internalType": "uint8",
          "name": "_rps2",
          "type": "uint8"
        }
      ],
      "name": "move",
      "outputs": [],
      "stateMutability": "nonpayable",
      "type": "function"
    },
    {
      "inputs": [
        {
          "internalType": "uint8",
          "name": "_rps1",
          "type": "uint8"
        },
        {
          "internalType": "uint256",
          "name": "nonce",
          "type": "uint256"
        }
      ],
      "name": "open",
      "outputs": [],
      "stateMutability": "nonpayable",
      "type": "function"
    },
    {
      "inputs": [],
      "name": "getParties",
      "outputs": [
        {
          "internalType": "address[]",
          "name": "",
          "type": "address[]"
        }
      ],
      "stateMutability": "view",
      "type": "function"
    }
  ],
  "bytecode": "0x608060405260006002556003805460ff1916905534801561001f57600080fd5b5060405161089d38038061089d83398101604081905261003e916100ee565b8051610051906001906020840190610058565b50506101c9565b8280548282559060005260206000209081019282156100ad579160200282015b828111156100ad57825182546001600160a01b0319166001600160a01b03909116178255602090920191600190910190610078565b506100b99291506100bd565b5090565b5b808211156100b957600081556001016100be565b80516001600160a01b03811681146100e957600080fd5b919050565b60006020808385031215610100578182fd5b82516001600160401b0380821115610116578384fd5b818501915085601f830112610129578384fd5b81518181111561013b5761013b6101b3565b838102604051601f19603f8301168101818110858211171561015f5761015f6101b3565b604052828152858101935084860182860187018a101561017d578788fd5b8795505b838610156101a657610192816100d2565b855260019590950194938601938601610181565b5098975050505050505050565b634e487b7160e01b600052604160045260246000fd5b6106c5806101d86000396000f3fe608060405234801561001057600080fd5b506004361061006d5760003560e01c80631303a484146100725780632976794c1461009057806365372147146100a557806370e87aaf146100ba578063a8311aa8146100cd578063f14fcbc8146100e2578063f752941a146100f5575b600080fd5b61007a6100fd565b60405161008791906104b7565b60405180910390f35b6100a361009e366004610441565b610103565b005b6100ad61025e565b604051610087919061060f565b6100a36100c8366004610420565b610267565b6100d561030d565b604051610087919061046a565b6100a36100f0366004610408565b61036f565b6100ad6103e9565b60025481565b600160008154811061012557634e487b7160e01b600052603260045260246000fd5b6000918252602090912001546001600160a01b031633146101615760405162461bcd60e51b815260040161015890610516565b60405180910390fd5b60035460ff166101835760405162461bcd60e51b8152600401610158906105e4565b818160405160200161019692919061061d565b60405160208183030381529060405280519060200120600254146101cc5760405162461bcd60e51b8152600401610158906104c0565b6101d7600383610661565b6003805460ff928316926101ec929116610661565b60ff161415610207576000805460ff1916600317905561025a565b600380546102199060ff166001610630565b6102239190610661565b60ff16610231600384610661565b60ff16141561024c576000805460ff1916600117905561025a565b6000805460ff191660021790555b5050565b60005460ff1681565b6001808154811061028857634e487b7160e01b600052603260045260246000fd5b6000918252602090912001546001600160a01b031633146102bb5760405162461bcd60e51b815260040161015890610543565b600254158015906102cf575060035460ff16155b6102eb5760405162461bcd60e51b815260040161015890610577565b6102f6816003610630565b6003805460ff191660ff9290921691909117905550565b6060600180548060200260200160405190810160405280929190818152602001828054801561036557602002820191906000526020600020905b81546001600160a01b03168152600190910190602001808311610347575b5050505050905090565b600160008154811061039157634e487b7160e01b600052603260045260246000fd5b6000918252602090912001546001600160a01b031633146103c45760405162461bcd60e51b8152600401610158906104e7565b600254156103e45760405162461bcd60e51b8152600401610158906105b9565b600255565b60035460ff1681565b803560ff8116811461040357600080fd5b919050565b600060208284031215610419578081fd5b5035919050565b600060208284031215610431578081fd5b61043a826103f2565b9392505050565b60008060408385031215610453578081fd5b61045c836103f2565b946020939093013593505050565b6020808252825182820181905260009190848201906040850190845b818110156104ab5783516001600160a01b031683529284019291840191600101610486565b50909695505050505050565b90815260200190565b6020808252600d908201526c57726f6e67206f70656e696e6760981b604082015260600190565b60208082526015908201527415dc9bdb99c81c185c9d1e481d1bc818dbdb5b5a5d605a1b604082015260600190565b6020808252601390820152722bb937b733903830b93a3c903a379037b832b760691b604082015260600190565b6020808252601a908201527957726f6e6720706172747920746f207375626d6974206d6f766560301b604082015260600190565b60208082526022908201527f416c7265616479207375626d6974746564206f72206e6f20636f6d6d69746d656040820152611b9d60f21b606082015260800190565b602080825260119082015270105b1c9958591e4818dbdb5b5a5d1d1959607a1b604082015260600190565b602080825260119082015270139bc81b5bdd99481cdd589b5a5d1d1959607a1b604082015260600190565b60ff91909116815260200190565b60ff929092168252602082015260400190565b600060ff821660ff84168060ff0382111561065957634e487b7160e01b83526011600452602483fd5b019392505050565b600060ff83168061068057634e487b7160e01b82526012600452602482fd5b8060ff8416069150509291505056fea26469706673582212200d97ddb44041c8fd653508a3effe3c5ec7459ddbb7a17b8bc5563229f4bcdbc464736f6c63430008010033",
  "immutableReferences": {},
  "source": "// SPDX-License-Identifier: UNLICENSED\npragma solidity >=0.7.0;\n\n// !!! LoC Counted !!!\n\ncontract ManualRockPaperScissors {\n    \n    uint8 public result; //P1-Wins: 1, P2-Wins: 2, Draw: 3\n    address[] parties;\n    bytes32 public commitment = 0;\n    uint8 public rps2 = 0;\n    \n    constructor(address[] memory _parties){\n        \n        parties = _parties;\n        \n    }\n    \n    function commit(bytes32 _commitment) external {\n        require(msg.sender == parties[0], \"Wrong party to commit\");\n        require(commitment == 0, \"Already committed\");\n        \n        commitment = _commitment;\n    }\n    \n    function move(uint8 _rps2) external {\n        require(msg.sender == parties[1], \"Wrong party to submit move\");\n        require(commitment != 0 && rps2 == 0, \"Already submitted or no commitment\");\n        rps2 = _rps2 + 3;\n    }\n    \n    function open(uint8 _rps1, uint nonce) external {\n        require(msg.sender == parties[0], \"Wrong party to open\");\n        require(rps2 != 0, \"No move submitted\");\n        require(commitment == keccak256(abi.encode(_rps1, nonce)), \"Wrong opening\");\n        \n        if(rps2 % 3 == _rps1 % 3){\n            result = 3;\n        } else if (_rps1 % 3 == (rps2 + 1) % 3){\n            result = 1;\n        } else {\n            result = 2;\n        }\n    }\n    \n    function getParties()  public view returns (address[] memory) {\n    \treturn parties;\n    } \n}\n",
  "sourcePath": "/media/david/Shared/CAC/Projekte/2019_PL4Blockchain/CodeRepo/EvaluationCode/contracts/ManualRPS.sol",
  "compiler": {
    "name": "solc",
    "version": "0.8.1+commit.df193b15.Emscripten.clang"
  },
  "schemaVersion": "3.2.5",
  "updatedAt": "2021-04-13T14:28:04.827Z",
  "devdoc": {
    "kind": "dev",
    "methods": {},
    "version": 1
  },
  "userdoc": {
    "kind": "user",
    "methods": {},
    "version": 1
  }
}