{
  "contractName": "ManualEscrow",
  "abi": [
    {
      "inputs": [
        {
          "internalType": "address payable",
          "name": "_buyer",
          "type": "address"
        },
        {
          "internalType": "address payable",
          "name": "_seller",
          "type": "address"
        },
        {
          "internalType": "address",
          "name": "_arbiter",
          "type": "address"
        },
        {
          "internalType": "uint256",
          "name": "_price",
          "type": "uint256"
        }
      ],
      "stateMutability": "nonpayable",
      "type": "constructor"
    },
    {
      "inputs": [],
      "name": "arbiter",
      "outputs": [
        {
          "internalType": "address",
          "name": "",
          "type": "address"
        }
      ],
      "stateMutability": "view",
      "type": "function"
    },
    {
      "inputs": [],
      "name": "buyer",
      "outputs": [
        {
          "internalType": "address payable",
          "name": "",
          "type": "address"
        }
      ],
      "stateMutability": "view",
      "type": "function"
    },
    {
      "inputs": [],
      "name": "phase",
      "outputs": [
        {
          "internalType": "uint256",
          "name": "",
          "type": "uint256"
        }
      ],
      "stateMutability": "view",
      "type": "function"
    },
    {
      "inputs": [],
      "name": "price",
      "outputs": [
        {
          "internalType": "uint256",
          "name": "",
          "type": "uint256"
        }
      ],
      "stateMutability": "view",
      "type": "function"
    },
    {
      "inputs": [],
      "name": "seller",
      "outputs": [
        {
          "internalType": "address payable",
          "name": "",
          "type": "address"
        }
      ],
      "stateMutability": "view",
      "type": "function"
    },
    {
      "inputs": [],
      "name": "pay",
      "outputs": [],
      "stateMutability": "payable",
      "type": "function"
    },
    {
      "inputs": [],
      "name": "confirmDelivery",
      "outputs": [],
      "stateMutability": "nonpayable",
      "type": "function"
    },
    {
      "inputs": [
        {
          "internalType": "uint8",
          "name": "_back",
          "type": "uint8"
        }
      ],
      "name": "arbitrate",
      "outputs": [],
      "stateMutability": "nonpayable",
      "type": "function"
    }
  ],
  "bytecode": "0x6080604052600260005534801561001557600080fd5b506040516104ef3803806104ef83398101604081905261003491610079565b600180546001600160a01b03199081166001600160a01b03968716179091556002805482169486169490941790935560038054909316919093161790556004556100e3565b6000806000806080858703121561008e578384fd5b8451610099816100cb565b60208601519094506100aa816100cb565b60408601519093506100bb816100cb565b6060959095015193969295505050565b6001600160a01b03811681146100e057600080fd5b50565b6103fd806100f26000396000f3fe60806040526004361061006b5760003560e01c806308551a53146100705780631b9265b81461009b5780635e10177b146100a55780637150d8ae146100ba578063a035b1fe146100cf578063a40d940a146100f1578063b1c9fe6e14610111578063fe25e00a14610126575b600080fd5b34801561007c57600080fd5b5061008561013b565b6040516100929190610341565b60405180910390f35b6100a361014a565b005b3480156100b157600080fd5b506100a36101b3565b3480156100c657600080fd5b5061008561022b565b3480156100db57600080fd5b506100e461023a565b60405161009291906103be565b3480156100fd57600080fd5b506100a361010c366004610319565b610240565b34801561011d57600080fd5b506100e4610304565b34801561013257600080fd5b5061008561030a565b6002546001600160a01b031681565b600054600214801561016657506001546001600160a01b031633145b61018b5760405162461bcd60e51b815260040161018290610355565b60405180910390fd5b60045434146101ac5760405162461bcd60e51b815260040161018290610398565b6001600055565b60005460011480156101cf57506001546001600160a01b031633145b6101eb5760405162461bcd60e51b815260040161018290610355565b6002546040516001600160a01b03909116904780156108fc02916000818181858888f19350505050158015610224573d6000803e3d6000fd5b5060008055565b6001546001600160a01b031681565b60045481565b600054600114801561025c57506003546001600160a01b031633145b6102785760405162461bcd60e51b815260040161018290610355565b8060ff16600114156102c3576001546040516001600160a01b03909116904780156108fc02916000818181858888f193505050501580156102bd573d6000803e3d6000fd5b50610224565b6002546040516001600160a01b03909116904780156108fc02916000818181858888f193505050501580156102fc573d6000803e3d6000fd5b505060008055565b60005481565b6003546001600160a01b031681565b60006020828403121561032a578081fd5b813560ff8116811461033a578182fd5b9392505050565b6001600160a01b0391909116815260200190565b60208082526023908201527f61636365737320636f6e74726f6c206f7220666c6f77206775617264206661696040820152621b195960ea1b606082015260800190565b6020808252600c908201526b15dc9bdb99c8185b5bdd5b9d60a21b604082015260600190565b9081526020019056fea2646970667358221220b6453d8eac69fa288484c727830eaa238d4a2cf0b525afd2ce677e038f4d1b2a64736f6c63430008010033",
  "immutableReferences": {},
  "source": "// SPDX-License-Identifier: UNLICENSED\npragma solidity >=0.7.0;\n\ncontract ManualEscrow {\n    \n    uint public phase = 2;\n    \n    address payable public buyer;\n    address payable public seller;\n    address public arbiter;\n    \n    uint public price;\n    \n    constructor(address payable _buyer, address payable _seller, address _arbiter, uint _price) {\n        buyer = _buyer;\n        seller = _seller;\n        arbiter = _arbiter;\n        price = _price;\n    }\n    \n    function pay() external payable {\n        require(phase == 2 && msg.sender == buyer, \"access control or flow guard failed\");\n        require(msg.value == price, \"Wrong amount\");\n        phase = 1;\n    }\n    \n    function  confirmDelivery() public {\n        require(phase == 1 && msg.sender == buyer, \"access control or flow guard failed\");\n        seller.transfer(address(this).balance);\n        phase = 0;\n    }\n    \n    function arbitrate(uint8 _back) public {\n        require(phase == 1 && msg.sender == arbiter, \"access control or flow guard failed\");\n        \n        if (_back == 1){\n            buyer.transfer(address(this).balance);\n        } else {\n            seller.transfer(address(this).balance);\n        }\n        phase = 0;\n    }\n}\n",
  "sourcePath": "/mnt/103A12BD3A129FB0/CAC/Projekte/2019_PL4Blockchain/CodeRepo/EvaluationCode/contracts/ManualEscrow.sol",
  "compiler": {
    "name": "solc",
    "version": "0.8.1+commit.df193b15.Emscripten.clang"
  },
  "schemaVersion": "3.4.3",
  "updatedAt": "2021-10-01T09:20:25.340Z",
  "devdoc": {
    "kind": "dev",
    "methods": {},
    "version": 1
  },
  "userdoc": {
    "kind": "user",
    "methods": {},
    "version": 1
  }
}