{
  "contractName": "ManualTTTChannel",
  "abi": [
    {
      "inputs": [
        {
          "internalType": "address[]",
          "name": "_parties",
          "type": "address[]"
        }
      ],
      "stateMutability": "nonpayable",
      "type": "constructor"
    },
    {
      "inputs": [],
      "name": "timeout",
      "outputs": [
        {
          "internalType": "uint256",
          "name": "",
          "type": "uint256"
        }
      ],
      "stateMutability": "view",
      "type": "function"
    },
    {
      "inputs": [
        {
          "components": [
            {
              "internalType": "uint256",
              "name": "version",
              "type": "uint256"
            },
            {
              "internalType": "uint8",
              "name": "moves",
              "type": "uint8"
            },
            {
              "internalType": "uint8[][]",
              "name": "board",
              "type": "uint8[][]"
            }
          ],
          "internalType": "struct ManualTTTChannel.State",
          "name": "_state",
          "type": "tuple"
        },
        {
          "components": [
            {
              "internalType": "uint8",
              "name": "v",
              "type": "uint8"
            },
            {
              "internalType": "bytes32",
              "name": "r",
              "type": "bytes32"
            },
            {
              "internalType": "bytes32",
              "name": "s",
              "type": "bytes32"
            }
          ],
          "internalType": "struct ManualTTTChannel.Sig",
          "name": "sig1",
          "type": "tuple"
        },
        {
          "components": [
            {
              "internalType": "uint8",
              "name": "v",
              "type": "uint8"
            },
            {
              "internalType": "bytes32",
              "name": "r",
              "type": "bytes32"
            },
            {
              "internalType": "bytes32",
              "name": "s",
              "type": "bytes32"
            }
          ],
          "internalType": "struct ManualTTTChannel.Sig",
          "name": "sig2",
          "type": "tuple"
        }
      ],
      "name": "dispute",
      "outputs": [],
      "stateMutability": "nonpayable",
      "type": "function"
    },
    {
      "inputs": [
        {
          "internalType": "uint8",
          "name": "x",
          "type": "uint8"
        },
        {
          "internalType": "uint8",
          "name": "y",
          "type": "uint8"
        }
      ],
      "name": "move",
      "outputs": [],
      "stateMutability": "nonpayable",
      "type": "function"
    },
    {
      "inputs": [],
      "name": "getOnchain",
      "outputs": [
        {
          "components": [
            {
              "internalType": "uint256",
              "name": "version",
              "type": "uint256"
            },
            {
              "internalType": "uint8",
              "name": "moves",
              "type": "uint8"
            },
            {
              "internalType": "uint8[][]",
              "name": "board",
              "type": "uint8[][]"
            }
          ],
          "internalType": "struct ManualTTTChannel.State",
          "name": "",
          "type": "tuple"
        }
      ],
      "stateMutability": "view",
      "type": "function"
    },
    {
      "inputs": [],
      "name": "getParties",
      "outputs": [
        {
          "internalType": "address[]",
          "name": "",
          "type": "address[]"
        }
      ],
      "stateMutability": "view",
      "type": "function"
    }
  ],
  "bytecode": "0x60806040526000196001553480156200001757600080fd5b506040516200186f3803806200186f8339810160408190526200003a91620002c0565b80516200004f906000906020840190620000d5565b50600060028190556003805460ff191681556040805160c08101825260608082018581526080830186905260a083018690528252825180820184528581526020818101879052818501879052808401919091528351918201845285825281018590528083019490945290810192909252620000cd916004916200013f565b5050620003a9565b8280548282559060005260206000209081019282156200012d579160200282015b828111156200012d57825182546001600160a01b0319166001600160a01b03909116178255602090920191600190910190620000f6565b506200013b92915062000199565b5090565b8280548282559060005260206000209081019282156200018b579160200282015b828111156200018b5782516200017a9083906003620001b0565b509160200191906001019062000160565b506200013b92915062000258565b5b808211156200013b57600081556001016200019a565b82805482825590600052602060002090601f016020900481019282156200012d5791602002820160005b838211156200021a57835183826101000a81548160ff021916908360ff1602179055509260200192600101602081600001049283019260010302620001da565b8015620002495782816101000a81549060ff02191690556001016020816000010492830192600103026200021a565b50506200013b92915062000199565b808211156200013b5760006200026f828262000279565b5060010162000258565b50805460008255601f016020900490600052602060002090810190620002a0919062000199565b50565b80516001600160a01b0381168114620002bb57600080fd5b919050565b60006020808385031215620002d3578182fd5b82516001600160401b0380821115620002ea578384fd5b818501915085601f830112620002fe578384fd5b81518181111562000313576200031362000393565b838102604051601f19603f830116810181811085821117156200033a576200033a62000393565b604052828152858101935084860182860187018a101562000359578788fd5b8795505b8386101562000386576200037181620002a3565b8552600195909501949386019386016200035d565b5098975050505050505050565b634e487b7160e01b600052604160045260246000fd5b6114b680620003b96000396000f3fe608060405234801561001057600080fd5b50600436106100575760003560e01c80636dd0a1551461005c578063701bd9851461007a57806370dea79a1461008f5780638724df67146100a4578063a8311aa8146100b7575b600080fd5b6100646100cc565b60405161007191906112e0565b60405180910390f35b61008d610088366004611098565b6101ab565b005b610097610480565b604051610071919061138d565b61008d6100b2366004610f36565b610486565b6100bf61070b565b60405161007191906110fa565b6100d4610d61565b6040805160608101825260028054825260035460ff1660208084019190915260048054855181840281018401875281815294959394938601939260009084015b8282101561019e5760008481526020908190208301805460408051828502810185019091528181529283018282801561018a57602002820191906000526020600020906000905b825461010083900a900460ff1681526020600192830181810494850194909303909202910180841161015b5790505b505050505081526020019060010190610114565b5050505081525050905090565b60015442116101d55760405162461bcd60e51b81526004016101cc9061118a565b60405180910390fd5b6003546000906101ea9060029060ff16611426565b600354909150600960ff909116106102145760405162461bcd60e51b81526004016101cc906112ac565b60008160ff168154811061023857634e487b7160e01b600052603260045260246000fd5b6000918252602090912001546001600160a01b0316331461026b5760405162461bcd60e51b81526004016101cc906111eb565b6004805460ff851690811061029057634e487b7160e01b600052603260045260246000fd5b906000526020600020018260ff16815481106102bc57634e487b7160e01b600052603260045260246000fd5b60009182526020918290209181049091015460ff601f9092166101000a900416156102f95760405162461bcd60e51b81526004016101cc90611230565b610304816002611401565b6004805460ff861690811061032957634e487b7160e01b600052603260045260246000fd5b906000526020600020018360ff168154811061035557634e487b7160e01b600052603260045260246000fd5b90600052602060002090602091828204019190066101000a81548160ff021916908360ff160217905550600061043e84848460028001805480602002602001604051908101604052809291908181526020016000905b828210156104355760008481526020908190208301805460408051828502810185019091528181529283018282801561042157602002820191906000526020600020906000905b825461010083900a900460ff168152602060019283018181049485019490930390920291018084116103f25790505b5050505050815260200190600101906103ab565b5050505061076d565b90508061045b576003546104569060ff166001611401565b610466565b61046682600a611401565b6003805460ff191660ff9290921691909117905550505050565b60015481565b6002548351116104a85760405162461bcd60e51b81526004016101cc90611165565b60015442106104c95760405162461bcd60e51b81526004016101cc90611283565b6000836040516020016104dc91906112e0565b6040516020818303038152906040528051906020012060405160200161050291906110ca565b6040516020818303038152906040528051906020012090506000808154811061053b57634e487b7160e01b600052603260045260246000fd5b9060005260206000200160009054906101000a90046001600160a01b03166001600160a01b0316600182856000015186602001518760400151604051600081526020016040526040516105919493929190611147565b6020604051602081039080840390855afa1580156105b3573d6000803e3d6000fd5b505050602060405103516001600160a01b0316146105e35760405162461bcd60e51b81526004016101cc906111be565b600060018154811061060557634e487b7160e01b600052603260045260246000fd5b9060005260206000200160009054906101000a90046001600160a01b03166001600160a01b03166001828460000151856020015186604001516040516000815260200160405260405161065b9493929190611147565b6020604051602081039080840390855afa15801561067d573d6000803e3d6000fd5b505050602060405103516001600160a01b0316146106ad5760405162461bcd60e51b81526004016101cc90611256565b835160029081556020808601516003805460ff191660ff909216919091179055604086015180518793926106e692600492910190610d85565b5090505060015460001914156107055761070142600a6113e9565b6001555b50505050565b6060600080548060200260200160405190810160405280929190818152602001828054801561076357602002820191906000526020600020905b81546001600160a01b03168152600190910190602001808311610745575b5050505050905090565b6000818560ff168151811061079257634e487b7160e01b600052603260045260246000fd5b60200260200101516001815181106107ba57634e487b7160e01b600052603260045260246000fd5b602002602001015160ff16828660ff16815181106107e857634e487b7160e01b600052603260045260246000fd5b602002602001015160008151811061081057634e487b7160e01b600052603260045260246000fd5b602002602001015160ff161480156108d15750818560ff168151811061084657634e487b7160e01b600052603260045260246000fd5b602002602001015160028151811061086e57634e487b7160e01b600052603260045260246000fd5b602002602001015160ff16828660ff168151811061089c57634e487b7160e01b600052603260045260246000fd5b60200260200101516001815181106108c457634e487b7160e01b600052603260045260246000fd5b602002602001015160ff16145b80610a395750816001815181106108f857634e487b7160e01b600052603260045260246000fd5b60200260200101518460ff168151811061092257634e487b7160e01b600052603260045260246000fd5b602002602001015160ff168260008151811061094e57634e487b7160e01b600052603260045260246000fd5b60200260200101518560ff168151811061097857634e487b7160e01b600052603260045260246000fd5b602002602001015160ff16148015610a395750816002815181106109ac57634e487b7160e01b600052603260045260246000fd5b60200260200101518460ff16815181106109d657634e487b7160e01b600052603260045260246000fd5b602002602001015160ff1682600181518110610a0257634e487b7160e01b600052603260045260246000fd5b60200260200101518560ff1681518110610a2c57634e487b7160e01b600052603260045260246000fd5b602002602001015160ff16145b80610d58575081600181518110610a6057634e487b7160e01b600052603260045260246000fd5b6020026020010151600181518110610a8857634e487b7160e01b600052603260045260246000fd5b602002602001015160ff16600014158015610d58575081600181518110610abf57634e487b7160e01b600052603260045260246000fd5b6020026020010151600181518110610ae757634e487b7160e01b600052603260045260246000fd5b602002602001015160ff1682600081518110610b1357634e487b7160e01b600052603260045260246000fd5b6020026020010151600281518110610b3b57634e487b7160e01b600052603260045260246000fd5b602002602001015160ff16148015610bf8575081600281518110610b6f57634e487b7160e01b600052603260045260246000fd5b6020026020010151600081518110610b9757634e487b7160e01b600052603260045260246000fd5b602002602001015160ff1682600181518110610bc357634e487b7160e01b600052603260045260246000fd5b6020026020010151600181518110610beb57634e487b7160e01b600052603260045260246000fd5b602002602001015160ff16145b80610d58575081600181518110610c1f57634e487b7160e01b600052603260045260246000fd5b6020026020010151600181518110610c4757634e487b7160e01b600052603260045260246000fd5b602002602001015160ff1682600081518110610c7357634e487b7160e01b600052603260045260246000fd5b6020026020010151600081518110610c9b57634e487b7160e01b600052603260045260246000fd5b602002602001015160ff16148015610d58575081600281518110610ccf57634e487b7160e01b600052603260045260246000fd5b6020026020010151600281518110610cf757634e487b7160e01b600052603260045260246000fd5b602002602001015160ff1682600181518110610d2357634e487b7160e01b600052603260045260246000fd5b6020026020010151600181518110610d4b57634e487b7160e01b600052603260045260246000fd5b602002602001015160ff16145b95945050505050565b604051806060016040528060008152602001600060ff168152602001606081525090565b828054828255906000526020600020908101928215610dd2579160200282015b82811115610dd25782518051610dc2918491602090910190610de2565b5091602001919060010190610da5565b50610dde929150610e84565b5090565b82805482825590600052602060002090601f01602090048101928215610e785791602002820160005b83821115610e4957835183826101000a81548160ff021916908360ff1602179055509260200192600101602081600001049283019260010302610e0b565b8015610e765782816101000a81549060ff0219169055600101602081600001049283019260010302610e49565b505b50610dde929150610ea1565b80821115610dde576000610e988282610eb6565b50600101610e84565b5b80821115610dde5760008155600101610ea2565b50805460008255601f016020900490600052602060002090810190610edb9190610ea1565b50565b600060608284031215610eef578081fd5b610ef96060611396565b9050610f0482610f20565b8152602082013560208201526040820135604082015292915050565b803560ff81168114610f3157600080fd5b919050565b600080600060e08486031215610f4a578283fd5b6001600160401b038085351115610f5f578384fd5b8435850160608188031215610f72578485fd5b610f7c6060611396565b81358152610f8c60208301610f20565b6020820152604082013583811115610fa2578687fd5b82019250601f83018813610fb4578586fd5b610fc6610fc184356113c6565b611396565b83358152602080820193508401875b853581101561106657813586018b603f820112610ff057898afd5b6020810135611001610fc1826113c6565b80828252602082019150604084018f6040602086028701011115611023578d8efd5b8d94505b8385101561104d5761103881610f20565b83526001949094019360209283019201611027565b5088525050602095860195929092019150600101610fd5565b505060408201529450611080915086905060208601610ede565b915061108f8560808601610ede565b90509250925092565b600080604083850312156110aa578182fd5b6110b383610f20565b91506110c160208401610f20565b90509250929050565b7b0ca2ba3432b932bab69029b4b3b732b21026b2b9b9b0b3b29d05199960211b8152601c810191909152603c0190565b6020808252825182820181905260009190848201906040850190845b8181101561113b5783516001600160a01b031683529284019291840191600101611116565b50909695505050505050565b93845260ff9290921660208401526040830152606082015260800190565b6020808252600b908201526a27b632103b32b939b4b7b760a91b604082015260600190565b6020808252601a90820152792234b9b83aba32903832b934b7b21034b9903737ba1037bb32b960311b604082015260600190565b60208082526013908201527257726f6e6720502d30207369676e617475726560681b604082015260600190565b60208082526025908201527f4e6f742074686520726967687420706c6179657220746f206d616b6520746865604082015264206d6f766560d81b606082015260800190565b6020808252600c908201526b496e76616c6964206d6f766560a01b604082015260600190565b60208082526013908201527257726f6e6720502d31207369676e617475726560681b604082015260600190565b6020808252600f908201526e151a5b595bdd5d08195b185c1cd959608a1b604082015260600190565b6020808252601a908201527911d85b59481a185cc8185b1c9958591e481d195c9a5b985d195960321b604082015260600190565b60006020808352608083018451828501528185015160ff80821660408701526040870151915060608087015282825180855260a08801915060a086820289010194508584019350865b8181101561137f57888603609f190183528451805180885290880190888801908a5b8181101561136957835188168352928a0192918a019160010161134b565b5090975050509386019391860191600101611329565b509398975050505050505050565b90815260200190565b604051601f8201601f191681016001600160401b03811182821017156113be576113be61146a565b604052919050565b60006001600160401b038211156113df576113df61146a565b5060209081020190565b600082198211156113fc576113fc611454565b500190565b600060ff821660ff84168060ff0382111561141e5761141e611454565b019392505050565b600060ff83168061144557634e487b7160e01b82526012600452602482fd5b8060ff84160691505092915050565b634e487b7160e01b600052601160045260246000fd5b634e487b7160e01b600052604160045260246000fdfea2646970667358221220e8a02a56337ef22c5434cf864a846c82ef791bc17b5feae98f411c9076ac149c64736f6c63430008010033",
  "immutableReferences": {},
  "source": "// SPDX-License-Identifier: UNLICENSED\npragma solidity >=0.7.0;\npragma experimental ABIEncoderV2;\n\ncontract ManualTTTChannel {\n    \n    struct State {\n        uint256 version;\n        uint8 moves;\n        uint8[][] board;\n    }\n    \n    struct Sig {\n        uint8 v;\n        bytes32 r;\n        bytes32 s;\n    }\n  \n    address [] parties;\n    \n    uint public timeout = 0xffffffffffffffffffffffffffffffffffffffffffffffffffffffffffffffff;\n    \n    State private onchain;\n\n    constructor(address[] memory _parties) public {\n        parties = _parties;\n        onchain.version = 0;\n        onchain.moves = 0;\n        onchain.board = [[0,0,0],[0,0,0],[0,0,0]];\n      }\n    \n    function dispute(State memory _state, Sig memory sig1, Sig memory sig2) public {\n\t    \n\t    //TODO: If there is no commitment with version 1 (first off-chain move failed) the dispute cannot be started\n            require(_state.version > onchain.version, \"Old version\");\n            require(block.timestamp < timeout, \"Timeout elapsed\");\n\n            //TODO: The Prefix might harm the comparison but in web3JS it is not possible to sign without prefix while in web3J it is\n            bytes32 _hash = keccak256(abi.encodePacked(\"\\x19Ethereum Signed Message:\\n32\", keccak256(abi.encode(_state))));\n\n            require(ecrecover(_hash, sig1.v, sig1.r, sig1.s) == parties[0], \"Wrong P-0 signature\");\n            require(ecrecover(_hash, sig2.v, sig2.r, sig2.s) == parties[1], \"Wrong P-1 signature\");\n\n            onchain = _state;\n\n            if (timeout == 0xffffffffffffffffffffffffffffffffffffffffffffffffffffffffffffffff)\n             timeout = block.timestamp + 10;\n\n\n        }\n\n    function move(uint8 x, uint8 y) external  {\n\n        require(block.timestamp > timeout, \"Dispute period is not over\");\n\n        uint8 pos = onchain.moves % 2;\n        require(onchain.moves < 9, \"Game has already terinated\");\n        require(msg.sender == parties[pos], \"Not the right player to make the move\");\n        require(onchain.board[x][y] == 0, \"Invalid move\");\n        onchain.board[x][y] = pos + 2;\n        bool cond = won(x, y, pos, onchain.board);\n    \tonchain.moves = cond ? 10 + pos : onchain.moves + 1;\n    }\n    \n    function won(uint8 x, uint8 y, uint8 pos, uint8[][] memory board) private pure returns(bool){\n    \treturn (board[x][0] == board[x][1] && board[x][1] == board[x][2]\n        ||  board[0][y] == board[1][y] && board[1][y] == board[2][y]\n        || board[1][1] != 0 && (\n        \t  board[0][2] == board[1][1] && board[1][1] == board[2][0]\n        \t  ||  board[0][0] == board[1][1] && board[1][1] == board[2][2] ));\n    }\n    \n    function getOnchain() public view returns(State memory){\n        return onchain;\n    }\n\n    function getParties() public view returns(address[] memory){\n        return parties;\n    }\n}\n",
  "sourcePath": "/mnt/103A12BD3A129FB0/CAC/Projekte/2019_PL4Blockchain/CodeRepo/EvaluationCode/contracts/ManualTTTChannel.sol",
  "compiler": {
    "name": "solc",
    "version": "0.8.1+commit.df193b15.Emscripten.clang"
  },
  "schemaVersion": "3.4.3",
  "updatedAt": "2021-10-01T09:20:25.391Z",
  "devdoc": {
    "kind": "dev",
    "methods": {},
    "version": 1
  },
  "userdoc": {
    "kind": "user",
    "methods": {},
    "version": 1
  }
}