{
  "contractName": "ManualTTT",
  "abi": [
    {
      "inputs": [
        {
          "internalType": "address payable[]",
          "name": "_players",
          "type": "address[]"
        }
      ],
      "stateMutability": "nonpayable",
      "type": "constructor"
    },
    {
      "inputs": [],
      "name": "moves",
      "outputs": [
        {
          "internalType": "uint8",
          "name": "",
          "type": "uint8"
        }
      ],
      "stateMutability": "view",
      "type": "function"
    },
    {
      "inputs": [
        {
          "internalType": "uint8",
          "name": "x",
          "type": "uint8"
        },
        {
          "internalType": "uint8",
          "name": "y",
          "type": "uint8"
        }
      ],
      "name": "move",
      "outputs": [],
      "stateMutability": "nonpayable",
      "type": "function"
    },
    {
      "inputs": [],
      "name": "getBoard",
      "outputs": [
        {
          "internalType": "uint8[][]",
          "name": "",
          "type": "uint8[][]"
        }
      ],
      "stateMutability": "view",
      "type": "function"
    },
    {
      "inputs": [],
      "name": "getParties",
      "outputs": [
        {
          "internalType": "address payable[]",
          "name": "",
          "type": "address[]"
        }
      ],
      "stateMutability": "view",
      "type": "function"
    }
  ],
  "bytecode": "0x600060e0818152610100829052610120829052608090815261014082815261016083905261018083905260a0526102006040526101a08281526101c08390526101e09290925260c0919091526200005b906002906003620000a9565b503480156200006957600080fd5b5060405162001164380380620011648339810160408190526200008c9162000294565b8051620000a190600090602084019062000107565b50506200037d565b828054828255906000526020600020908101928215620000f5579160200282015b82811115620000f5578251620000e490839060036200016d565b5091602001919060010190620000ca565b506200010392915062000215565b5090565b8280548282559060005260206000209081019282156200015f579160200282015b828111156200015f57825182546001600160a01b0319166001600160a01b0390911617825560209092019160019091019062000128565b506200010392915062000236565b82805482825590600052602060002090601f016020900481019282156200015f5791602002820160005b83821115620001d757835183826101000a81548160ff021916908360ff160217905550926020019260010160208160000104928301926001030262000197565b8015620002065782816101000a81549060ff0219169055600101602081600001049283019260010302620001d7565b50506200010392915062000236565b80821115620001035760006200022c82826200024d565b5060010162000215565b5b8082111562000103576000815560010162000237565b50805460008255601f01602090049060005260206000209081019062000274919062000236565b50565b80516001600160a01b03811681146200028f57600080fd5b919050565b60006020808385031215620002a7578182fd5b82516001600160401b0380821115620002be578384fd5b818501915085601f830112620002d2578384fd5b815181811115620002e757620002e762000367565b838102604051601f19603f830116810181811085821117156200030e576200030e62000367565b604052828152858101935084860182860187018a10156200032d578788fd5b8795505b838610156200035a57620003458162000277565b85526001959095019493860193860162000331565b5098975050505050505050565b634e487b7160e01b600052604160045260246000fd5b610dd7806200038d6000396000f3fe608060405234801561001057600080fd5b506004361061004b5760003560e01c8062be8275146100505780633264a34b1461006e578063701bd98514610083578063a8311aa814610098575b600080fd5b6100586100ad565b6040516100659190610d34565b60405180910390f35b6100766100b6565b6040516100659190610c0c565b610096610091366004610b8d565b61016d565b005b6100a0610b15565b6040516100659190610bbf565b60015460ff1681565b60606002805480602002602001604051908101604052809291908181526020016000905b828210156101645760008481526020908190208301805460408051828502810185019091528181529283018282801561015057602002820191906000526020600020906000905b825461010083900a900460ff168152602060019283018181049485019490930390920291018084116101215790505b5050505050815260200190600101906100da565b50505050905090565b6001546000906101829060029060ff16610d73565b600154909150600960ff909116106101b55760405162461bcd60e51b81526004016101ac90610d00565b60405180910390fd5b60008160ff16815481106101d957634e487b7160e01b600052603260045260246000fd5b6000918252602090912001546001600160a01b0316331461020c5760405162461bcd60e51b81526004016101ac90610c95565b60028360ff168154811061023057634e487b7160e01b600052603260045260246000fd5b906000526020600020018260ff168154811061025c57634e487b7160e01b600052603260045260246000fd5b60009182526020918290209181049091015460ff601f9092166101000a900416156102995760405162461bcd60e51b81526004016101ac90610cda565b6102a4816002610d42565b60028460ff16815481106102c857634e487b7160e01b600052603260045260246000fd5b906000526020600020018360ff16815481106102f457634e487b7160e01b600052603260045260246000fd5b90600052602060002090602091828204019190066101000a81548160ff021916908360ff16021790555060028360ff168154811061034257634e487b7160e01b600052603260045260246000fd5b9060005260206000200160018154811061036c57634e487b7160e01b600052603260045260246000fd5b90600052602060002090602091828204019190069054906101000a900460ff1660ff1660028460ff16815481106103b357634e487b7160e01b600052603260045260246000fd5b906000526020600020016000815481106103dd57634e487b7160e01b600052603260045260246000fd5b60009182526020918290209181049091015460ff601f9092166101000a9004161480156104e6575060028360ff168154811061042957634e487b7160e01b600052603260045260246000fd5b9060005260206000200160028154811061045357634e487b7160e01b600052603260045260246000fd5b90600052602060002090602091828204019190069054906101000a900460ff1660ff1660028460ff168154811061049a57634e487b7160e01b600052603260045260246000fd5b906000526020600020016001815481106104c457634e487b7160e01b600052603260045260246000fd5b60009182526020918290209181049091015460ff601f9092166101000a900416145b806106b35750600260018154811061050e57634e487b7160e01b600052603260045260246000fd5b906000526020600020018260ff168154811061053a57634e487b7160e01b600052603260045260246000fd5b90600052602060002090602091828204019190069054906101000a900460ff1660ff16600260008154811061057f57634e487b7160e01b600052603260045260246000fd5b906000526020600020018360ff16815481106105ab57634e487b7160e01b600052603260045260246000fd5b60009182526020918290209181049091015460ff601f9092166101000a9004161480156106b35750600280815481106105f457634e487b7160e01b600052603260045260246000fd5b906000526020600020018260ff168154811061062057634e487b7160e01b600052603260045260246000fd5b90600052602060002090602091828204019190069054906101000a900460ff1660ff16600260018154811061066557634e487b7160e01b600052603260045260246000fd5b906000526020600020018360ff168154811061069157634e487b7160e01b600052603260045260246000fd5b60009182526020918290209181049091015460ff601f9092166101000a900416145b80610abf57506106c4816002610d42565b60ff1660026001815481106106e957634e487b7160e01b600052603260045260246000fd5b9060005260206000200160018154811061071357634e487b7160e01b600052603260045260246000fd5b60009182526020918290209181049091015460ff601f9092166101000a900416148015610abf5750600260018154811061075d57634e487b7160e01b600052603260045260246000fd5b9060005260206000200160018154811061078757634e487b7160e01b600052603260045260246000fd5b90600052602060002090602091828204019190069054906101000a900460ff1660ff1660026000815481106107cc57634e487b7160e01b600052603260045260246000fd5b906000526020600020016002815481106107f657634e487b7160e01b600052603260045260246000fd5b60009182526020918290209181049091015460ff601f9092166101000a9004161480156108fa57506002808154811061083f57634e487b7160e01b600052603260045260246000fd5b9060005260206000200160008154811061086957634e487b7160e01b600052603260045260246000fd5b90600052602060002090602091828204019190069054906101000a900460ff1660ff1660026001815481106108ae57634e487b7160e01b600052603260045260246000fd5b906000526020600020016001815481106108d857634e487b7160e01b600052603260045260246000fd5b60009182526020918290209181049091015460ff601f9092166101000a900416145b80610abf5750600260018154811061092257634e487b7160e01b600052603260045260246000fd5b9060005260206000200160018154811061094c57634e487b7160e01b600052603260045260246000fd5b90600052602060002090602091828204019190069054906101000a900460ff1660ff16600260008154811061099157634e487b7160e01b600052603260045260246000fd5b906000526020600020016000815481106109bb57634e487b7160e01b600052603260045260246000fd5b60009182526020918290209181049091015460ff601f9092166101000a900416148015610abf575060028081548110610a0457634e487b7160e01b600052603260045260246000fd5b90600052602060002001600281548110610a2e57634e487b7160e01b600052603260045260246000fd5b90600052602060002090602091828204019190069054906101000a900460ff1660ff166002600181548110610a7357634e487b7160e01b600052603260045260246000fd5b90600052602060002001600181548110610a9d57634e487b7160e01b600052603260045260246000fd5b60009182526020918290209181049091015460ff601f9092166101000a900416145b15610ae857610acf81600a610d42565b6001805460ff191660ff92909216919091179055610b10565b60018054610afb9160ff90911690610d42565b6001805460ff191660ff929092169190911790555b505050565b60606000805480602002602001604051908101604052809291908181526020018280548015610b6d57602002820191906000526020600020905b81546001600160a01b03168152600190910190602001808311610b4f575b5050505050905090565b803560ff81168114610b8857600080fd5b919050565b60008060408385031215610b9f578182fd5b610ba883610b77565b9150610bb660208401610b77565b90509250929050565b6020808252825182820181905260009190848201906040850190845b81811015610c005783516001600160a01b031683529284019291840191600101610bdb565b50909695505050505050565b6000602080830181845280855180835260408601915060408482028701019250838701855b82811015610c8857878503603f19018452815180518087529087019087870190895b81811015610c7257835160ff1683529289019291890191600101610c53565b5090965050509285019290850190600101610c31565b5092979650505050505050565b60208082526025908201527f4e6f742074686520726967687420706c6179657220746f206d616b6520746865604082015264206d6f766560d81b606082015260800190565b6020808252600c908201526b496e76616c6964206d6f766560a01b604082015260600190565b6020808252601a908201527911d85b59481a185cc8185b1c9958591e481d195c9a5b985d195960321b604082015260600190565b60ff91909116815260200190565b600060ff821660ff84168060ff03821115610d6b57634e487b7160e01b83526011600452602483fd5b019392505050565b600060ff831680610d9257634e487b7160e01b82526012600452602482fd5b8060ff8416069150509291505056fea2646970667358221220927a1e7effa845b60428f36b5fd6606f211dc90246c971aa9e8454f1476bbada64736f6c63430008010033",
  "immutableReferences": {},
  "source": "// SPDX-License-Identifier: UNLICENSED\npragma solidity >=0.7.0;\npragma experimental \"ABIEncoderV2\";\n\n// !!! LoC Counted !!!\n\ncontract ManualTTT {\n    \n    address payable[] players;\n\n    uint8 public moves;\n    uint8[][] board = [[0,0,0],[0,0,0],[0,0,0]];\n    \n    constructor (address payable[] memory _players) {\n        players = _players;\n    }\n\n    function move(uint8 x, uint8 y) external  {\n        uint8 pos = moves % 2;\n        require(moves < 9, \"Game has already terinated\");\n        require(msg.sender == players[pos], \"Not the right player to make the move\");\n        require(board[x][y] == 0, \"Invalid move\");\n        board[x][y] = pos + 2;\n        if (board[x][0] == board[x][1] && board[x][1] == board[x][2]\n        ||  board[0][y] == board[1][y] && board[1][y] == board[2][y]\n        ||  board[1][1] == (pos + 2) && (board[0][2] == board[1][1] && board[1][1] == board[2][0]\n                                     ||  board[0][0] == board[1][1] && board[1][1] == board[2][2] )){\n            moves = 10 + pos;\n\t    } else {\n\t        moves = moves + 1;\n\t    }\n    }\n    \n    function getBoard() public view returns(uint8[][] memory){\n        return board;\n    }\n    \n    function getParties() public view returns(address payable[] memory){\n        return players;\n    }\n}\n",
  "sourcePath": "/mnt/103A12BD3A129FB0/CAC/Projekte/2019_PL4Blockchain/CodeRepo/EvaluationCode/contracts/ManualTTT.sol",
  "compiler": {
    "name": "solc",
    "version": "0.8.1+commit.df193b15.Emscripten.clang"
  },
  "schemaVersion": "3.4.3",
  "updatedAt": "2021-10-01T09:20:25.381Z",
  "devdoc": {
    "kind": "dev",
    "methods": {},
    "version": 1
  },
  "userdoc": {
    "kind": "user",
    "methods": {},
    "version": 1
  }
}