{
  "contractName": "ManualTTTViaLib",
  "abi": [
    {
      "inputs": [
        {
          "internalType": "address payable[]",
          "name": "_players",
          "type": "address[]"
        }
      ],
      "stateMutability": "nonpayable",
      "type": "constructor"
    },
    {
      "inputs": [],
      "name": "moves",
      "outputs": [
        {
          "internalType": "uint8",
          "name": "",
          "type": "uint8"
        }
      ],
      "stateMutability": "view",
      "type": "function"
    },
    {
      "inputs": [
        {
          "internalType": "uint8",
          "name": "x",
          "type": "uint8"
        },
        {
          "internalType": "uint8",
          "name": "y",
          "type": "uint8"
        }
      ],
      "name": "move",
      "outputs": [],
      "stateMutability": "nonpayable",
      "type": "function"
    },
    {
      "inputs": [],
      "name": "getBoard",
      "outputs": [
        {
          "internalType": "uint8[][]",
          "name": "",
          "type": "uint8[][]"
        }
      ],
      "stateMutability": "view",
      "type": "function"
    },
    {
      "inputs": [],
      "name": "getParties",
      "outputs": [
        {
          "internalType": "address payable[]",
          "name": "",
          "type": "address[]"
        }
      ],
      "stateMutability": "view",
      "type": "function"
    }
  ],
  "bytecode": "0x600060e0818152610100829052610120829052608090815261014082815261016083905261018083905260a0526102006040526101a08281526101c08390526101e09290925260c0919091526200005b906002906003620000a9565b503480156200006957600080fd5b50604051620011fb380380620011fb8339810160408190526200008c9162000294565b8051620000a190600090602084019062000107565b50506200037d565b828054828255906000526020600020908101928215620000f5579160200282015b82811115620000f5578251620000e490839060036200016d565b5091602001919060010190620000ca565b506200010392915062000215565b5090565b8280548282559060005260206000209081019282156200015f579160200282015b828111156200015f57825182546001600160a01b0319166001600160a01b0390911617825560209092019160019091019062000128565b506200010392915062000236565b82805482825590600052602060002090601f016020900481019282156200015f5791602002820160005b83821115620001d757835183826101000a81548160ff021916908360ff160217905550926020019260010160208160000104928301926001030262000197565b8015620002065782816101000a81549060ff0219169055600101602081600001049283019260010302620001d7565b50506200010392915062000236565b80821115620001035760006200022c82826200024d565b5060010162000215565b5b8082111562000103576000815560010162000237565b50805460008255601f01602090049060005260206000209081019062000274919062000236565b50565b80516001600160a01b03811681146200028f57600080fd5b919050565b60006020808385031215620002a7578182fd5b82516001600160401b0380821115620002be578384fd5b818501915085601f830112620002d2578384fd5b815181811115620002e757620002e762000367565b838102604051601f19603f830116810181811085821117156200030e576200030e62000367565b604052828152858101935084860182860187018a10156200032d578788fd5b8795505b838610156200035a57620003458162000277565b85526001959095019493860193860162000331565b5098975050505050505050565b634e487b7160e01b600052604160045260246000fd5b610e6e806200038d6000396000f3fe608060405234801561001057600080fd5b506004361061004b5760003560e01c8062be8275146100505780633264a34b1461006e578063701bd98514610083578063a8311aa814610098575b600080fd5b6100586100ad565b6040516100659190610db6565b60405180910390f35b6100766100b6565b604051610065919061058c565b6100966100913660046104a1565b61016d565b005b6100a0610429565b604051610065919061053f565b60015460ff1681565b60606002805480602002602001604051908101604052809291908181526020016000905b828210156101645760008481526020908190208301805460408051828502810185019091528181529283018282801561015057602002820191906000526020600020906000905b825461010083900a900460ff168152602060019283018181049485019490930390920291018084116101215790505b5050505050815260200190600101906100da565b50505050905090565b6001546000906101829060029060ff16610e0a565b600154909150600960ff909116106101b55760405162461bcd60e51b81526004016101ac90610d82565b60405180910390fd5b60008160ff16815481106101d957634e487b7160e01b600052603260045260246000fd5b6000918252602090912001546001600160a01b0316331461020c5760405162461bcd60e51b81526004016101ac90610d17565b60028360ff168154811061023057634e487b7160e01b600052603260045260246000fd5b906000526020600020018260ff168154811061025c57634e487b7160e01b600052603260045260246000fd5b60009182526020918290209181049091015460ff601f9092166101000a900416156102995760405162461bcd60e51b81526004016101ac90610d5c565b6102a4816002610dd9565b60028460ff16815481106102c857634e487b7160e01b600052603260045260246000fd5b906000526020600020018360ff16815481106102f457634e487b7160e01b600052603260045260246000fd5b90600052602060002090602091828204019190066101000a81548160ff021916908360ff160217905550600073cfeb869f69431e42cdb54a4f4f105c19c080a6016001600160a01b03166002858560405160200161035493929190610615565b60408051601f198184030181529082905261037191602001610526565b60408051601f198184030181529082905261038b91610513565b6000604051808303816000865af19150503d80600081146103c8576040519150601f19603f3d011682016040523d82523d6000602084013e6103cd565b606091505b5050905080156103fb576103e282600a610dd9565b6001805460ff191660ff92909216919091179055610423565b6001805461040e9160ff90911690610dd9565b6001805460ff191660ff929092169190911790555b50505050565b6060600080548060200260200160405190810160405280929190818152602001828054801561048157602002820191906000526020600020905b81546001600160a01b03168152600190910190602001808311610463575b5050505050905090565b803560ff8116811461049c57600080fd5b919050565b600080604083850312156104b3578182fd5b6104bc8361048b565b91506104ca6020840161048b565b90509250929050565b60008151815b818110156104f357602081850181015186830152016104d9565b818111156105015782828601525b509290920192915050565b60ff169052565b600061051f82846104d3565b9392505050565b63ca761a2160e01b8152600061051f60048301846104d3565b6020808252825182820181905260009190848201906040850190845b818110156105805783516001600160a01b03168352928401929184019160010161055b565b50909695505050505050565b6000602080830181845280855180835260408601915060408482028701019250838701855b8281101561060857878503603f19018452815180518087529087019087870190895b818110156105f257835160ff16835292890192918901916001016105d3565b50909650505092850192908501906001016105b1565b5092979650505050505050565b60006060820160608352808654808352608085019150602092506080838202860101888552838520855b83811015610ced57607f1988840301855282825461065d8186610dd0565b915061066884610dc4565b895b82601f820110156108df57815460ff6106858682841661050c565b6106968c8701828460081c1661050c565b6106a860408701828460101c1661050c565b6106ba60608701828460181c1661050c565b6106cb6080870182848f1c1661050c565b6106dd60a08701828460281c1661050c565b6106ef60c08701828460301c1661050c565b61070160e08701828460381c1661050c565b6107146101008701828460401c1661050c565b6107276101208701828460481c1661050c565b61073a6101408701828460501c1661050c565b61074d6101608701828460581c1661050c565b6107606101808701828460601c1661050c565b6107736101a08701828460681c1661050c565b6107866101c08701828460701c1661050c565b6107996101e08701828460781c1661050c565b6107ac6102008701828460801c1661050c565b6107bf6102208701828460881c1661050c565b6107d26102408701828460901c1661050c565b6107e56102608701828460981c1661050c565b6107f86102808701828460a01c1661050c565b61080b6102a08701828460a81c1661050c565b61081e6102c08701828460b01c1661050c565b6108316102e08701828460b81c1661050c565b6108446103008701828460c01c1661050c565b6108576103208701828460c81c1661050c565b61086a6103408701828460d01c1661050c565b61087d6103608701828460d81c1661050c565b6108906103808701828460e01c1661050c565b6108a36103a08701828460e81c1661050c565b6108b66103c08701828460f01c1661050c565b506108c86103e086018260f81c61050c565b50610400939093019260019190910190890161066a565b905490828110156108ff576108f78460ff841661050c565b928901926001015b8281101561091f576109178460ff8460081c1661050c565b928901926001015b8281101561093f576109378460ff8460101c1661050c565b928901926001015b8281101561095f576109578460ff8460181c1661050c565b928901926001015b8281101561097e576109768460ff848d1c1661050c565b928901926001015b8281101561099e576109968460ff8460281c1661050c565b928901926001015b828110156109be576109b68460ff8460301c1661050c565b928901926001015b828110156109de576109d68460ff8460381c1661050c565b928901926001015b828110156109fe576109f68460ff8460401c1661050c565b928901926001015b82811015610a1e57610a168460ff8460481c1661050c565b928901926001015b82811015610a3e57610a368460ff8460501c1661050c565b928901926001015b82811015610a5e57610a568460ff8460581c1661050c565b928901926001015b82811015610a7e57610a768460ff8460601c1661050c565b928901926001015b82811015610a9e57610a968460ff8460681c1661050c565b928901926001015b82811015610abe57610ab68460ff8460701c1661050c565b928901926001015b82811015610ade57610ad68460ff8460781c1661050c565b928901926001015b82811015610afe57610af68460ff8460801c1661050c565b928901926001015b82811015610b1e57610b168460ff8460881c1661050c565b928901926001015b82811015610b3e57610b368460ff8460901c1661050c565b928901926001015b82811015610b5e57610b568460ff8460981c1661050c565b928901926001015b82811015610b7e57610b768460ff8460a01c1661050c565b928901926001015b82811015610b9e57610b968460ff8460a81c1661050c565b928901926001015b82811015610bbe57610bb68460ff8460b01c1661050c565b928901926001015b82811015610bde57610bd68460ff8460b81c1661050c565b928901926001015b82811015610bfe57610bf68460ff8460c01c1661050c565b928901926001015b82811015610c1e57610c168460ff8460c81c1661050c565b928901926001015b82811015610c3e57610c368460ff8460d01c1661050c565b928901926001015b82811015610c5e57610c568460ff8460d81c1661050c565b928901926001015b82811015610c7e57610c768460ff8460e01c1661050c565b928901926001015b82811015610c9e57610c968460ff8460e81c1661050c565b928901926001015b82811015610cbe57610cb68460ff8460f01c1661050c565b928901926001015b82811015610cd857610cd3848360f81c61050c565b928901925b5050509486019492506001918201910161063f565b5050809450505050610d018184018661050c565b50610d0f604083018461050c565b949350505050565b60208082526025908201527f4e6f742074686520726967687420706c6179657220746f206d616b6520746865604082015264206d6f766560d81b606082015260800190565b6020808252600c908201526b496e76616c6964206d6f766560a01b604082015260600190565b6020808252601a908201527911d85b59481a185cc8185b1c9958591e481d195c9a5b985d195960321b604082015260600190565b60ff91909116815260200190565b60009081526020902090565b90815260200190565b600060ff821660ff84168060ff03821115610e0257634e487b7160e01b83526011600452602483fd5b019392505050565b600060ff831680610e2957634e487b7160e01b82526012600452602482fd5b8060ff8416069150509291505056fea26469706673582212208ee7f88aba8f5e7502238e009fb0caef6cf09014542d5fa7df8d108f02b86d2f64736f6c63430008010033",
  "immutableReferences": {},
  "source": "// SPDX-License-Identifier: UNLICENSED\npragma solidity >=0.7.0;\npragma experimental \"ABIEncoderV2\";\n\n// !!! LoC Counted !!!\n\ncontract ManualTTTViaLib {\n    \n    address payable[] players;\n\n    uint8 public moves;\n    uint8[][] board = [[0,0,0],[0,0,0],[0,0,0]];\n    \n    constructor (address payable[] memory _players) {\n        players = _players;\n    }\n\n    function move(uint8 x, uint8 y) external  {\n        uint8 pos = moves % 2;\n        require(moves < 9, \"Game has already terinated\");\n        require(msg.sender == players[pos], \"Not the right player to make the move\");\n        require(board[x][y] == 0, \"Invalid move\");\n        board[x][y] = pos + 2;\n        (bool win,) = 0xCfEB869F69431e42cdB54A4F4f105C19C080A601.call(abi.encodePacked(\"\\xca\\x76\\x1a\\x21\", abi.encode(board, x, y)));\n        if (win){\n\t    moves = 10 + pos;\n\t    } else {\n\t\tmoves = moves + 1;\n\t    }\n    }\n    \n    function getBoard() public view returns(uint8[][] memory){\n        return board;\n    }\n    \n    function getParties() public view returns(address payable[] memory){\n        return players;\n    }\n}\n",
  "sourcePath": "/mnt/103A12BD3A129FB0/CAC/Projekte/2019_PL4Blockchain/CodeRepo/EvaluationCode/contracts/ManualTTTViaLib.sol",
  "compiler": {
    "name": "solc",
    "version": "0.8.1+commit.df193b15.Emscripten.clang"
  },
  "schemaVersion": "3.4.3",
  "updatedAt": "2021-10-01T09:20:25.410Z",
  "devdoc": {
    "kind": "dev",
    "methods": {},
    "version": 1
  },
  "userdoc": {
    "kind": "user",
    "methods": {},
    "version": 1
  }
}