{
  "contractName": "ManualChineseCheckers",
  "abi": [
    {
      "inputs": [
        {
          "internalType": "address[]",
          "name": "_parties",
          "type": "address[]"
        }
      ],
      "stateMutability": "nonpayable",
      "type": "constructor"
    },
    {
      "inputs": [],
      "name": "moves",
      "outputs": [
        {
          "internalType": "uint256",
          "name": "",
          "type": "uint256"
        }
      ],
      "stateMutability": "view",
      "type": "function"
    },
    {
      "inputs": [
        {
          "internalType": "uint256",
          "name": "",
          "type": "uint256"
        }
      ],
      "name": "positions",
      "outputs": [
        {
          "internalType": "uint8",
          "name": "",
          "type": "uint8"
        }
      ],
      "stateMutability": "view",
      "type": "function"
    },
    {
      "inputs": [],
      "name": "getPositions",
      "outputs": [
        {
          "internalType": "uint8[121]",
          "name": "",
          "type": "uint8[121]"
        }
      ],
      "stateMutability": "view",
      "type": "function"
    },
    {
      "inputs": [],
      "name": "getParties",
      "outputs": [
        {
          "internalType": "address[]",
          "name": "",
          "type": "address[]"
        }
      ],
      "stateMutability": "view",
      "type": "function"
    },
    {
      "inputs": [
        {
          "internalType": "uint256",
          "name": "_rootPos",
          "type": "uint256"
        },
        {
          "internalType": "uint8[]",
          "name": "_directions",
          "type": "uint8[]"
        }
      ],
      "name": "move",
      "outputs": [],
      "stateMutability": "nonpayable",
      "type": "function"
    },
    {
      "inputs": [
        {
          "internalType": "uint256",
          "name": "_root",
          "type": "uint256"
        },
        {
          "internalType": "uint8",
          "name": "_direction",
          "type": "uint8"
        }
      ],
      "name": "testStep",
      "outputs": [
        {
          "internalType": "uint256",
          "name": "",
          "type": "uint256"
        },
        {
          "internalType": "bool",
          "name": "",
          "type": "bool"
        }
      ],
      "stateMutability": "view",
      "type": "function"
    },
    {
      "inputs": [
        {
          "internalType": "uint256",
          "name": "_pre",
          "type": "uint256"
        },
        {
          "internalType": "uint256",
          "name": "_direction",
          "type": "uint256"
        }
      ],
      "name": "getHopTarget",
      "outputs": [
        {
          "internalType": "uint256",
          "name": "",
          "type": "uint256"
        }
      ],
      "stateMutability": "pure",
      "type": "function"
    },
    {
      "inputs": [
        {
          "internalType": "uint256",
          "name": "_index",
          "type": "uint256"
        }
      ],
      "name": "indexToCoordinate",
      "outputs": [
        {
          "internalType": "uint256",
          "name": "",
          "type": "uint256"
        },
        {
          "internalType": "uint256",
          "name": "",
          "type": "uint256"
        },
        {
          "internalType": "uint256",
          "name": "",
          "type": "uint256"
        }
      ],
      "stateMutability": "pure",
      "type": "function"
    }
  ],
  "bytecode": "0x610fa06040526000608081815260a082905260c082905260e082905260016101008190526101208190526101408390526101608390526101808190526101a08190526101c08190526101e08390526102008190526102208190526102408190526102608190526102808190526102a08190526102c08190526102e08190526103008190526103208390526103408390526103608390526103808390526103a08390526103c08390526103e08390526104008390526104208390526104408390526104608390526104808390526104a08390526104c08390526104e08390526105008190526105208390526105408390526105608390526105808390526105a08390526105c08390526105e083905260026106008190526106208190526106408490526106608490526106808190526106a08190526106c08190526106e08490526107008190526107208190526107408190526107608190526107808190526107a08190526107c08190526107e08190526108008190526108208490526108408490526108608490526108808490526108a08490526108c08490526108e08490526109008490526109208490526109408490526109608490526109808490526109a08490526109c08490526109e0849052610a0052610a20839052610a40839052610a60839052610a80839052610aa0839052610ac0839052610ae08390526003610b00819052610b20819052610b40849052610b60849052610b80819052610ba0819052610bc0819052610be0849052610c00819052610c20819052610c40819052610c60819052610c80819052610ca0819052610cc0819052610ce0819052610d00819052610d20849052610d40849052610d60849052610d80849052610da0849052610dc0849052610de0849052610e00849052610e20849052610e40849052610e60849052610e80849052610ea0849052610ec0849052610ee0849052610f0052610f20839052610f40839052610f60839052610f8092909252620002ea919060796200033d565b506000600555348015620002fd57600080fd5b506040516200153c3803806200153c833981016040819052620003209162000463565b805162000335906000906020840190620003d7565b50506200054c565b600483019183908215620003c55791602002820160005b838211156200039457835183826101000a81548160ff021916908360ff160217905550926020019260010160208160000104928301926001030262000354565b8015620003c35782816101000a81549060ff021916905560010160208160000104928301926001030262000394565b505b50620003d39291506200042f565b5090565b828054828255906000526020600020908101928215620003c5579160200282015b82811115620003c557825182546001600160a01b0319166001600160a01b03909116178255602090920191600190910190620003f8565b5b80821115620003d3576000815560010162000430565b80516001600160a01b03811681146200045e57600080fd5b919050565b6000602080838503121562000476578182fd5b82516001600160401b03808211156200048d578384fd5b818501915085601f830112620004a1578384fd5b815181811115620004b657620004b662000536565b838102604051601f19603f83011681018181108582111715620004dd57620004dd62000536565b604052828152858101935084860182860187018a1015620004fc578788fd5b8795505b838610156200052957620005148162000446565b85526001959095019493860193860162000500565b5098975050505050505050565b634e487b7160e01b600052604160045260246000fd5b610fe0806200055c6000396000f3fe608060405234801561001057600080fd5b50600436106100775760003560e01c8062be82751461007c5780632e14ce7a1461009a57806380275860146100bb57806398f5ca92146100d057806399fbab88146100e5578063a8311aa814610105578063d450ba5e1461011a578063e80588d51461013c575b600080fd5b61008461014f565b6040516100919190610e38565b60405180910390f35b6100ad6100a8366004610bed565b610155565b604051610091929190610e41565b6100c361022e565b6040516100919190610c65565b6100e36100de366004610afa565b610288565b005b6100f86100f3366004610ae2565b6104ff565b6040516100919190610e67565b61010d610529565b6040516100919190610c18565b61012d610128366004610ae2565b61058a565b60405161009193929190610e51565b61008461014a366004610bcc565b610651565b60055481565b60008080806101678660ff8716610651565b915081607a141580156101af57506001826079811061019657634e487b7160e01b600052603260045260246000fd5b602081049091015460ff601f9092166101000a90041615155b15610221576101c1828660ff16610651565b915081607a141580156102095750600182607981106101f057634e487b7160e01b600052603260045260246000fd5b602081049091015460ff601f9092166101000a90041615155b1561021d57607a6000935093505050610227565b5060015b90925090505b9250929050565b610236610ab2565b60408051610f2081019182905290600190607990826000855b825461010083900a900460ff1681526020600192830181810494850194909303909202910180841161024f5790505b5050505050905090565b600060036005546102999190610f54565b815481106102b757634e487b7160e01b600052603260045260246000fd5b6000918252602090912001546001600160a01b031633146102f35760405162461bcd60e51b81526004016102ea90610dbe565b60405180910390fd5b600060036005546103049190610f54565b61030f906001610eb3565b9050611388600554106103345760405162461bcd60e51b81526004016102ea90610ccc565b8060ff166001846079811061035957634e487b7160e01b600052603260045260246000fd5b602081049091015460ff601f9092166101000a9004161461038c5760405162461bcd60e51b81526004016102ea90610d5b565b826000805b8451811015610430576103cb838683815181106103be57634e487b7160e01b600052603260045260246000fd5b6020026020010151610155565b9093509150607a8314156103f15760405162461bcd60e51b81526004016102ea90610cf7565b8115801561040157508451600114155b1561041e5760405162461bcd60e51b81526004016102ea90610d8a565b8061042881610f39565b915050610391565b5060006001866079811061045457634e487b7160e01b600052603260045260246000fd5b602091828204019190066101000a81548160ff021916908360ff160217905550826001836079811061049657634e487b7160e01b600052603260045260246000fd5b602091828204019190066101000a81548160ff021916908360ff1602179055506104c28360ff166108b2565b156104e2576104d660ff8416611388610e75565b61ffff166005556104f8565b600580549060006104f283610f39565b91905055505b5050505050565b6001816079811061050f57600080fd5b60209182820401919006915054906101000a900460ff1681565b6060600080548060200260200160405190810160405280929190818152602001828054801561027e57602002820191906000526020600020905b81546001600160a01b03168152600190910190602001808311610563575050505050905090565b60008060006079841061059c57600080fd5b836105af5750600091508190508061064a565b600060056105be600187610f0b565b6105c89190610f54565b9050600060046005836105dc60018a610f0b565b6105e69190610f0b565b6105f09190610ed8565b6105fa9190610f54565b610605906001610e9b565b9050600060148061061760018a610f0b565b6106219190610f54565b61062c60018a610f0b565b6106369190610f0b565b6106409190610ed8565b9550909350909150505b9193909250565b6000806000806106608661058a565b925092509250600585111561067b57607a93505050506108ac565b806106868385610e9b565b6106909190610e9b565b6106ab576106a18560016000610a1b565b93505050506108ac565b828514156106c8576106a1836106c2846001610e9b565b83610a65565b60066106d5846001610e9b565b6106df9190610f54565b8514156106fb576106a183836106f6846001610e9b565b610a65565b6006610708846002610e9b565b6107129190610f54565b85141561076857816001141561074e576106a16006610732856001610e9b565b61073c9190610f54565b610747836001610e9b565b6000610a65565b6106a18361075d600185610f0b565b6106f6846001610e9b565b6006610775846003610e9b565b61077f9190610f54565b8514156107d75781600114156107c257806107a057600093505050506108ac565b6106a160066107b0856001610e9b565b6107ba9190610f54565b826000610a1b565b6106a1836107d1600185610f0b565b83610a1b565b60066107e4846004610e9b565b6107ee9190610f54565b8514156108355780610825576106a1600661080a856005610e9b565b6108149190610f54565b60016108208186610f0b565b610a1b565b6106a18383610820600185610f0b565b6006610842846005610e9b565b61084c9190610f54565b851415610894578061087a576106a16006610868856005610e9b565b6108729190610f54565b600184610a1b565b6106a183610889846001610e9b565b610820600185610f0b565b60405162461bcd60e51b81526004016102ea90610c9a565b92915050565b60008082600114156108c657506003610900565b82600214156108d757506005610900565b82600314156108e857506001610900565b60405162461bcd60e51b81526004016102ea90610e01565b60045b600181106109a7576000600161091a836005610f0b565b6109249190610f0b565b90505b600481116109945784600161093d858585610a1b565b6079811061095b57634e487b7160e01b600052603260045260246000fd5b602081049091015460ff601f9092166101000a900416146109825760009350505050610a16565b8061098c81610f39565b915050610927565b508061099f81610f22565b915050610903565b508260016109cd60066109ba8584610e9b565b6109c49190610f54565b60046000610a1b565b607981106109eb57634e487b7160e01b600052603260045260246000fd5b602081049091015460ff601f9092166101000a90041614610a10576000915050610a16565b60019150505b919050565b6000610a28826001610e9b565b610a33600185610f0b565b610a3e906005610eec565b610a49866014610eec565b610a539190610e9b565b610a5d9190610e9b565b949350505050565b60006005841180610a74575082155b80610a7f5750600483115b80610a8a5750600482115b15610aa75760405162461bcd60e51b81526004016102ea90610d27565b610a5d848484610a1b565b60405180610f2001604052806079906020820280368337509192915050565b803560ff81168114610a1657600080fd5b600060208284031215610af3578081fd5b5035919050565b60008060408385031215610b0c578081fd5b8235915060208084013567ffffffffffffffff80821115610b2b578384fd5b818601915086601f830112610b3e578384fd5b813581811115610b5057610b50610f94565b838102604051601f19603f83011681018181108582111715610b7457610b74610f94565b604052828152858101935084860182860187018b1015610b92578788fd5b8795505b83861015610bbb57610ba781610ad1565b855260019590950194938601938601610b96565b508096505050505050509250929050565b60008060408385031215610bde578182fd5b50508035926020909101359150565b60008060408385031215610bff578182fd5b82359150610c0f60208401610ad1565b90509250929050565b6020808252825182820181905260009190848201906040850190845b81811015610c595783516001600160a01b031683529284019291840191600101610c34565b50909695505050505050565b610f208101818360005b6079811015610c9157815160ff16835260209283019290910190600101610c6f565b50505092915050565b6020808252601890820152772437b8103bb4ba34103bb937b733903234b6b2b739b4b7b760411b604082015260600190565b60208082526011908201527047616d6520616c726561647920646f6e6560781b604082015260600190565b602080825260169082015275135bdd9959081bdd5d081bd9881d1a1948189bd85c9960521b604082015260600190565b6020808252601a90820152794a756d7020746f20696e76616c696420636f6f7264696e61746560301b604082015260600190565b6020808252601590820152742737ba103a343290383630bcb2b939903a37b5b2b760591b604082015260600190565b6020808252601a90820152794e6f206c65617020627574206d756c7469706c65206d6f76657360301b604082015260600190565b60208082526023908201527f4e6f742074686520726967687420706c6179657220746f206d616b652061206d6040820152626f766560e81b606082015260800190565b6020808252601d908201527f57726f6e6720706c6179657220696420696e20676f616c20636865636b000000604082015260600190565b90815260200190565b9182521515602082015260400190565b9283526020830191909152604082015260600190565b60ff91909116815260200190565b600061ffff808316818516808303821115610e9257610e92610f68565b01949350505050565b60008219821115610eae57610eae610f68565b500190565b600060ff821660ff84168060ff03821115610ed057610ed0610f68565b019392505050565b600082610ee757610ee7610f7e565b500490565b6000816000190483118215151615610f0657610f06610f68565b500290565b600082821015610f1d57610f1d610f68565b500390565b600081610f3157610f31610f68565b506000190190565b6000600019821415610f4d57610f4d610f68565b5060010190565b600082610f6357610f63610f7e565b500690565b634e487b7160e01b600052601160045260246000fd5b634e487b7160e01b600052601260045260246000fd5b634e487b7160e01b600052604160045260246000fdfea26469706673582212209ab240c7ea7b96efb721c2cbca10c67413a0b99f355d549042b9d8220972951e64736f6c63430008010033",
  "immutableReferences": {},
  "source": "// SPDX-License-Identifier: UNLICENSED\npragma solidity >=0.7.0;\n\ncontract ManualChineseCheckers {\n\n    address[] parties;\n    //Internally positions have coordinates (d,l1,l2) in which d (0-5) describes the direction to got from the middle, l1 (1-5) describes the steps to go from the middle and l2 (0-5) the steps to go after taking a 60 degree turn to the right; the middle is 0-0-0\n    uint8[121] public positions = [0,0,0,0,1,1,0,0,1,1,1,0,1,1,1,1,1,1,1,1,1,0,0,0,0,0,0,0,0,0,0,0,0,0,0,0,1,0,0,0,0,0,0,0,2,2,0,0,2,2,2,0,2,2,2,2,2,2,2,2,2,0,0,0,0,0,0,0,0,0,0,0,0,0,0,0,2,0,0,0,0,0,0,0,3,3,0,0,3,3,3,0,3,3,3,3,3,3,3,3,3,0,0,0,0,0,0,0,0,0,0,0,0,0,0,0,3,0,0,0,0];\n    uint public moves = 0;\n    \n    function getPositions() public view returns(uint8[121] memory){\n        return positions;\n    }\n    \n    function getParties() public view returns(address[] memory){\n    \treturn parties;\n    }\n    \n    \n    constructor(address[] memory _parties) public {\n        parties = _parties;\n    }\n    \n    function move(uint _rootPos, uint8[] memory _directions) public isTurn {\n        \n         uint8 _playerIndex = uint8(moves % 3) + 1;\n        \n        //Checks: Not done and right starting position\n        require(moves < 5000, \"Game already done\");\n        require(positions[_rootPos] == _playerIndex, \"Not the players token\");\n        \n        //Execute move\n        uint _pos = _rootPos;\n        bool _leaped = false;\n        \n        for(uint i = 0; i < _directions.length; i++){\n            \n            //Get target for every hop \n            (_pos, _leaped) = testStep(_pos, _directions[i]);\n             \n            //Revert if target does not exist\n            if(_pos == 122){\n                revert(\"Moved out of the board\");\n            }\n            \n            //Revert if no leap over other figure but move contains more than one hop\n            if(_leaped == false && _directions.length != 1){\n                revert(\"No leap but multiple moves\");\n            }\n        }\n        \n        //Execute move\n        positions[_rootPos] = 0;\n        positions[_pos] = _playerIndex;\n        \n        //Check if the player wins\n        if(goalCheck(_playerIndex)){\n\t        moves = 5000 + _playerIndex;\n\t    } else {\n\t        moves++;\n\t    }\n    }\n\t\n\t//Checks if a single player wins\n\tfunction goalCheck(uint _playerID) internal view returns(bool){\n\t    uint checkDirection;\n\t    if(_playerID == 1){\n\t        checkDirection = 3;\n\t    } else if(_playerID == 2){\n\t        checkDirection = 5;\n\t    } else if(_playerID == 3){\n\t        checkDirection = 1;\n\t    } else {\n\t        revert(\"Wrong player id in goal check\");\n\t    }\n\t    \n\t    //Check, if every field in player's target corner is occupied by the player:\n\t    //  First directions runs down from 4 to 1\n\t    //  Second direction runs down from 4 to (4 -first direction)\n\t    for(uint b = 4; b >= 1; b--){\n\t        for(uint d = 5-b-1; d <= 4; d++){ //uint cant get below 0, therefore # d >= (4-b); d--# would be endless\n\t            if(positions[coordinatesToIndex(checkDirection,b,d)] != _playerID){\n\t                return false;\n\t            }\n\t        }\n\t    }\n\t    \n\t    //The corner-stone of the next triangle needs to be checked as well:\n\t    if(positions[coordinatesToIndex(((checkDirection+1)%6),4,0)] != _playerID){\n\t        return false;\n\t    }\n\t    \n\t\treturn true;\n\t}\n    \n    //Converts a coordinate from the calculation-representation to the internal representation (index in position-array)\n\t//Checks if coordinate exists and returns 122 in robust mode or aborts in non-robust mode, if coordinate does not exist\n\tfunction coordinatesToIndexChecked(uint _dir, uint _length1, uint _length2) internal pure returns (uint){\n\t     //Check if position exists:\n\t    if(_dir > 5 || _length1 == 0 || _length1 > 4 || _length2 > 4){\n\t        revert(\"Jump to invalid coordinate\");\n\t    }\n\t    return coordinatesToIndex(_dir, _length1, _length2);\n\t}\n\t\n\t//Converts a coordinate from the calculation-representation to the internal representation (index in position-array)\n\tfunction coordinatesToIndex(uint _dir, uint _length1, uint _length2) internal pure returns (uint){\n\t     //Check if position exists:\n\t    return _dir * 20 + (_length1-1) * 5 + (_length2 + 1);\n\t}\n    \n    \n    //Tests if step is possible and returns new position or 122 if move is not possible\n    //Additionally returns if hop leaped over intermediary\n    function testStep(uint _root, uint8 _direction) public view returns(uint,bool){\n        \n        //Return variables\n        uint _newPos;\n        bool _leaped = false;\n        \n        //First Hop\n        _newPos = getHopTarget( _root, _direction);\n        \n        //If target exists and not empty: leap\n        if(_newPos != 122 && positions[_newPos] != 0){\n            \n            //Leap over target\n            _newPos = getHopTarget(_newPos, _direction);\n            \n            //If field exists and is not empty -> return 122\n            if(_newPos != 122 && positions[_newPos]  != 0){\n                return ( 122, false);\n            }\n            \n            //Set leaped to true if valid leaping hop\n            _leaped = true;\n        }\n        return (_newPos,_leaped);\n    }\n    \n    //Returns id of new position or 122 if position does not exist\n\tfunction getHopTarget(uint _pre, uint _direction) public pure returns (uint){\n        \n        //Convert position in array to coordinate\n        (uint _preDirection, uint _preLength1, uint _preLength2) = indexToCoordinate(_pre);\n        \n\t    //Check if direction is right\n\t    if(_direction > 5){return 122;}\n\t    //Check if position is center\n\t    if(_preDirection + _preLength1 + _preLength2 == 0){ return coordinatesToIndex(_direction,1,0);}\n\t    //Check if direction is 0 degree from base direction\n\t    if(_direction == _preDirection){\n\t        // (x,y+1,z)\n\t        return coordinatesToIndexChecked(_preDirection, (_preLength1 + 1), _preLength2);\n\t    }\n\t    //Check if direction is 60 degree from base direction\n\t    if(_direction == ((_preDirection+1)%6)){\n\t        // (x,y,z+1)\n\t        return coordinatesToIndexChecked(_preDirection , _preLength1 , _preLength2 + 1);\n\t    }\n\t    //Check if direction is 120 degree from base direction\n\t    if(_direction == ((_preDirection+2)%6)){\n\t        if(_preLength1 == 1){\n\t            //New base direction: (x+1%6,z,0)\n\t            return coordinatesToIndexChecked(((_preDirection+1)%6) , (_preLength2 + 1) , 0);\n\t        } else {\n\t            //Same base direction (x,y-1,z+1)\n\t            return coordinatesToIndexChecked(_preDirection , (_preLength1 - 1) , _preLength2 + 1);\n\t        }\n\t    }\n\t    //Check if direction is 180 degree from base direction\n\t    if(_direction == ((_preDirection+3)%6)){\n\t        if(_preLength1 == 1){\n\t            if(_preLength2 == 0){\n\t                //Go to center: 0\n\t                return 0;\n\t            } else {\n\t                //New base direction: (x+1%6,z,0)\n\t                return coordinatesToIndex(((_preDirection+1)%6), _preLength2, 0);\n\t            }\n\t        } else {\n\t            //Same base direction (x,y-1,z)\n\t            return coordinatesToIndex(_preDirection, (_preLength1 - 1), _preLength2);\n\t        }\n\t    }\n\t    //Check if direction is 240 degree from base direction\n\t    if(_direction == ((_preDirection+4)%6)){\n\t        if(_preLength2 == 0){\n\t            //New base direction: (x-1%6, 1, y-1)\n\t            return coordinatesToIndex(((_preDirection+5)%6),1,_preLength1 - 1);\n\t        } else {\n\t            //Same base direction: (x,y,z-1)\n\t            return coordinatesToIndex(_preDirection, _preLength1, _preLength2 - 1);\n\t        }\n\t    }\n\t    //Check if direction is 300 degree from base direction\n\t    if(_direction == ((_preDirection+5)%6)){\n\t        if(_preLength2 == 0){\n\t            //New base direction: (x-1%6, 1, y)\n\t            return coordinatesToIndex(((_preDirection+5)%6),1, _preLength1);\n\t        } else {\n\t            //Same base direction: (x,y+1,z-1)\n\t            return coordinatesToIndex(_preDirection,(_preLength1 + 1), _preLength2 - 1);\n\t        }\n\t    }\n\t    \n\t    //Should not occur\n\t    revert (\"Hop with wrong dimension\");\n\t}\n    \n    //Converts internal position (index) into coordinate\n\tfunction indexToCoordinate(uint _index) public pure returns (uint, uint, uint){\n\t    \n\t    require(_index < 121);\n\t    \n\t    if(_index == 0){\n\t        return (0,0,0);\n\t    }\n\t    \n\t    uint _length2 = (_index - 1) % 5;\n\t    uint _length1 = (((_index - 1 - _length2) / 5 ) % 4) + 1;\n\t    uint _dir = ((_index - 1) - ((_index - 1) % 20)) / 20;\n\t    return (_dir, _length1, _length2);\n\t}\n\t\n\tmodifier isTurn() {\n        require(msg.sender == parties[moves % 3], \"Not the right player to make a move\");\n        _;\n    }\n}\n",
  "sourcePath": "/mnt/103A12BD3A129FB0/CAC/Projekte/2019_PL4Blockchain/CodeRepo/EvaluationCode/contracts/ManualChineseCheckers.sol",
  "compiler": {
    "name": "solc",
    "version": "0.8.1+commit.df193b15.Emscripten.clang"
  },
  "schemaVersion": "3.4.3",
  "updatedAt": "2021-10-05T08:30:18.781Z",
  "devdoc": {
    "kind": "dev",
    "methods": {},
    "version": 1
  },
  "userdoc": {
    "kind": "user",
    "methods": {},
    "version": 1
  }
}