{
  "contractName": "ManualRPS",
  "abi": [
    {
      "inputs": [
        {
          "internalType": "address[]",
          "name": "_parties",
          "type": "address[]"
        }
      ],
      "stateMutability": "nonpayable",
      "type": "constructor"
    },
    {
      "inputs": [],
      "name": "commitment",
      "outputs": [
        {
          "internalType": "bytes32",
          "name": "",
          "type": "bytes32"
        }
      ],
      "stateMutability": "view",
      "type": "function"
    },
    {
      "inputs": [],
      "name": "deadline",
      "outputs": [
        {
          "internalType": "uint256",
          "name": "",
          "type": "uint256"
        }
      ],
      "stateMutability": "view",
      "type": "function"
    },
    {
      "inputs": [],
      "name": "result",
      "outputs": [
        {
          "internalType": "uint256",
          "name": "",
          "type": "uint256"
        }
      ],
      "stateMutability": "view",
      "type": "function"
    },
    {
      "inputs": [],
      "name": "rps2",
      "outputs": [
        {
          "internalType": "uint8",
          "name": "",
          "type": "uint8"
        }
      ],
      "stateMutability": "view",
      "type": "function"
    },
    {
      "inputs": [
        {
          "internalType": "bytes32",
          "name": "_commitment",
          "type": "bytes32"
        }
      ],
      "name": "commit",
      "outputs": [],
      "stateMutability": "nonpayable",
      "type": "function"
    },
    {
      "inputs": [
        {
          "internalType": "uint8",
          "name": "_rps2",
          "type": "uint8"
        }
      ],
      "name": "move",
      "outputs": [],
      "stateMutability": "nonpayable",
      "type": "function"
    },
    {
      "inputs": [
        {
          "internalType": "uint8",
          "name": "_rps1",
          "type": "uint8"
        },
        {
          "internalType": "uint256",
          "name": "nonce",
          "type": "uint256"
        }
      ],
      "name": "open",
      "outputs": [],
      "stateMutability": "nonpayable",
      "type": "function"
    },
    {
      "inputs": [],
      "name": "timeout",
      "outputs": [],
      "stateMutability": "nonpayable",
      "type": "function"
    },
    {
      "inputs": [],
      "name": "getParties",
      "outputs": [
        {
          "internalType": "address[]",
          "name": "",
          "type": "address[]"
        }
      ],
      "stateMutability": "view",
      "type": "function"
    }
  ],
  "bytecode": "0x608060405234801561001057600080fd5b5060405161088e38038061088e83398101604081905261002f916100e4565b805161004290600190602084019061004e565b505060066000556101bf565b8280548282559060005260206000209081019282156100a3579160200282015b828111156100a357825182546001600160a01b0319166001600160a01b0390911617825560209092019160019091019061006e565b506100af9291506100b3565b5090565b5b808211156100af57600081556001016100b4565b80516001600160a01b03811681146100df57600080fd5b919050565b600060208083850312156100f6578182fd5b82516001600160401b038082111561010c578384fd5b818501915085601f83011261011f578384fd5b815181811115610131576101316101a9565b838102604051601f19603f83011681018181108582111715610155576101556101a9565b604052828152858101935084860182860187018a1015610173578788fd5b8795505b8386101561019c57610188816100c8565b855260019590950194938601938601610177565b5098975050505050505050565b634e487b7160e01b600052604160045260246000fd5b6106c0806101ce6000396000f3fe608060405234801561001057600080fd5b50600436106100835760003560e01c80631303a484146100885780632976794c146100a657806329dcb0cf146100bb57806365372147146100c357806370dea79a146100cb57806370e87aaf146100d3578063a8311aa8146100e6578063f14fcbc8146100fb578063f752941a1461010e575b600080fd5b610090610123565b60405161009d91906104b4565b60405180910390f35b6100b96100b436600461043e565b610129565b005b61009061025b565b610090610261565b6100b9610267565b6100b96100e136600461041d565b610290565b6100ee610317565b60405161009d9190610467565b6100b9610109366004610405565b610379565b6101166103e6565b60405161009d91906105e8565b60035481565b600160008154811061014b57634e487b7160e01b600052603260045260246000fd5b6000918252602090912001546001600160a01b03163314801561017057506000546004145b6101955760405162461bcd60e51b815260040161018c906104e4565b60405180910390fd5b81816040516020016101a89291906105f6565b60405160208183030381529060405280519060200120600354146101de5760405162461bcd60e51b815260040161018c906104bd565b6101e9600383610646565b60045460ff918216916101ff9160039116610646565b60ff161415610212576003600055610257565b6004546003906102269060ff166001610621565b6102309190610646565b60ff1661023e600384610646565b60ff161415610251576001600055610257565b60026000555b5050565b60025481565b60005481565b4260025411156102895760405162461bcd60e51b815260040161018c9061052c565b6002600055565b600180815481106102b157634e487b7160e01b600052603260045260246000fd5b6000918252602090912001546001600160a01b0316331480156102d657506000546005145b6102f25760405162461bcd60e51b815260040161018c9061054f565b6004805460ff191660ff831617905561030c42600a610609565b600255506004600055565b6060600180548060200260200160405190810160405280929190818152602001828054801561036f57602002820191906000526020600020905b81546001600160a01b03168152600190910190602001808311610351575b5050505050905090565b600160008154811061039b57634e487b7160e01b600052603260045260246000fd5b6000918252602090912001546001600160a01b0316331480156103c057506000546006145b6103dc5760405162461bcd60e51b815260040161018c9061059e565b6003556005600055565b60045460ff1681565b803560ff8116811461040057600080fd5b919050565b600060208284031215610416578081fd5b5035919050565b60006020828403121561042e578081fd5b610437826103ef565b9392505050565b60008060408385031215610450578081fd5b610459836103ef565b946020939093013593505050565b6020808252825182820181905260009190848201906040850190845b818110156104a85783516001600160a01b031683529284019291840191600101610483565b50909695505050505050565b90815260200190565b6020808252600d908201526c57726f6e67206f70656e696e6760981b604082015260600190565b60208082526028908201527f4e6f206d6f7665207375626d6974746564206f722077726f6e67207061727479604082015267103a379037b832b760c11b606082015260800190565b602080825260099082015268546f6f206561726c7960b81b604082015260600190565b6020808252602f908201527f416c7265616479207375626d6974746564206f722077726f6e6720706172747960408201526e20746f207375626d6974206d6f766560881b606082015260800190565b6020808252602a908201527f416c726561647920636f6d6d6974746564206f722077726f6e67207061727479604082015269081d1bc818dbdb5b5a5d60b21b606082015260800190565b60ff91909116815260200190565b60ff929092168252602082015260400190565b6000821982111561061c5761061c610674565b500190565b600060ff821660ff84168060ff0382111561063e5761063e610674565b019392505050565b600060ff83168061066557634e487b7160e01b82526012600452602482fd5b8060ff84160691505092915050565b634e487b7160e01b600052601160045260246000fdfea26469706673582212205da3f5a225240323075cbcf706fcab13c7bcec0c779b4592038d854f01fca87d64736f6c63430008010033",
  "immutableReferences": {},
  "source": "// SPDX-License-Identifier: UNLICENSED\npragma solidity >=0.7.0;\n\n// !!! LoC Counted !!!\n\ncontract ManualRPS {\n    \n    uint public result; //P1-Wins: 1, P2-Wins: 2, Draw: 3\n    \n    address[] parties;\n    uint256 public deadline;\n    bytes32 public commitment;\n    uint8 public rps2;\n    \n    constructor(address[] memory _parties){\n        \n        parties = _parties;\n        result = 6;\n    }\n    \n    function commit(bytes32 _commitment) external {\n        require(msg.sender == parties[0] && result == 6, \"Already committed or wrong party to commit\");\n        \n        commitment = _commitment;\n        result = 5;\n    }\n    \n    function move(uint8 _rps2) external {\n        require(msg.sender == parties[1] && result == 5, \"Already submitted or wrong party to submit move\");\n        rps2 = _rps2;\n        deadline = block.timestamp + 10;\n        result = 4;\n    }\n    \n    function open(uint8 _rps1, uint nonce) external {\n        require(msg.sender == parties[0] && result == 4, \"No move submitted or wrong party to open\");\n        require(commitment == keccak256(abi.encode(_rps1, nonce)), \"Wrong opening\");\n        \n        if(rps2 % 3 == _rps1 % 3){\n            result = 3;\n        } else if (_rps1 % 3 == (rps2 + 1) % 3){\n            result = 1;\n        } else {\n            result = 2;\n        }\n    }\n    \n    function timeout() external {\n    \trequire(deadline <= block.timestamp, \"Too early\");\n    \tresult = 2;\n    }\n    \n    function getParties()  public view returns (address[] memory) {\n    \treturn parties;\n    }\n}\n",
  "sourcePath": "/mnt/103A12BD3A129FB0/CAC/Projekte/2019_PL4Blockchain/CodeRepo/EvaluationCode/contracts/ManualRPS.sol",
  "compiler": {
    "name": "solc",
    "version": "0.8.1+commit.df193b15.Emscripten.clang"
  },
  "schemaVersion": "3.4.3",
  "updatedAt": "2021-10-01T09:20:25.373Z",
  "devdoc": {
    "kind": "dev",
    "methods": {},
    "version": 1
  },
  "userdoc": {
    "kind": "user",
    "methods": {},
    "version": 1
  }
}