{
  "contractName": "Test5",
  "abi": [
    {
      "inputs": [],
      "stateMutability": "nonpayable",
      "type": "constructor"
    },
    {
      "inputs": [],
      "name": "modify",
      "outputs": [],
      "stateMutability": "nonpayable",
      "type": "function"
    },
    {
      "inputs": [],
      "name": "modifyTwo",
      "outputs": [],
      "stateMutability": "nonpayable",
      "type": "function"
    }
  ],
  "bytecode": "0x608060405234801561001057600080fd5b50600a600055633c1d18786001556101758061002d6000396000f3fe608060405234801561001057600080fd5b50600436106100365760003560e01c806349842ba51461003b57806364cf33b814610045575b600080fd5b61004361004d565b005b61004361009c565b60005461005b90600261011b565b6000908155604080518082018252828152905161009a9260208084019261008392910161010d565b6040516020818303038152906040528152506100f8565b565b6000546100aa90600161011b565b600090815560408051808201825263902c83b9808252825184815260208181018552808401919091528351808501855291825283518082019094529383529283019190915261009a91610100565b506000600155565b5163ffffffff1660015550565b60ff91909116815260200190565b6000821982111561013a57634e487b7160e01b81526011600452602481fd5b50019056fea2646970667358221220fe2a94c96959f8b71a5f391eb924c6537cc3f2300a7c82d5d924401736f8f1c564736f6c63430008010033",
  "immutableReferences": {},
  "source": "// SPDX-License-Identifier: UNLICENSED\n// compiled with GUARD_ERROR_MESSAGES=false\npragma solidity >=0.8.0;\npragma abicoder v2;\n\ncontract Test1  {\n  \n  uint test;\n  \n  function modify() public {\n  \ttest = test + 1;\n  }\n  \n  function modifyTwo() public {\n  \ttest = test + 2;\n  }\n  \n  constructor() {\n      test = 10;\n  }\n\n}\n\n\ncontract Test2  {\n  \n  uint test;\n  uint state;\n  \n  function modify() public {\n  \ttest = test + 1;\n  }\n  \n  function modifyTwo() public {\n  \ttest = test + 2;\n  }\n  \n  constructor() {\n      test = 10;\n      state = 0x3c1d1878;\n  }\n\n}\n\n\ncontract Test3  {\n  \n  uint test;\n  uint state;\n  \n  function modify() public {\n  \ttest = test + 1;\n  \tstate = 0x33ca83cb;\n  }\n  \n  function modifyTwo() public {\n  \ttest = test + 2;\n  \tstate = 0x902c83b9;\n  }\n  \n  constructor() {\n      test = 10;\n      state = 0x3c1d1878;\n  }\n\n}\n\ncontract Test4  {  \n  uint test;\n  uint state;\n  \n  function modify() public {\n  \ttest = test + 1;\n  }\n  \n  function modifyTwo() public {\n  \ttest = test + 2;\n  }\n  \n  constructor() {\n      test = 10;\n      state = 0x3c1d1878;\n  }\n  \n  struct Closure { uint32 id; bytes data; }\n  function mk(Closure memory response) private {\n    // reqArgs = response.data;\n    // store = hex\"\";\n    state = 0;\n  }\n  function flatMap(Closure memory request, Closure memory callback) private {\n    // reqArgs = request.data;\n    // store = callback.data;\n    state = callback.id;\n  }\n\n}\n\ncontract Test5  {  \n  uint test;\n  uint state;\n  \n  function modify() public {\n  \ttest = test + 1;\n  \tflatMap(Closure(0x902c83b9, abi.encode()), Closure(uint32(0x902c83b9),  hex\"\" ));\n  }\n  \n  function modifyTwo() public {\n  \ttest = test + 2;\n  \tmk(Closure(0x0, abi.encode(uint8(0))));\n  }\n  \n  constructor() {\n      test = 10;\n      state = 0x3c1d1878;\n  }\n  \n  struct Closure { uint32 id; bytes data; }\n  function mk(Closure memory response) private {\n    // reqArgs = response.data;\n    // store = hex\"\";\n    state = 0;\n  }\n  function flatMap(Closure memory request, Closure memory callback) private {\n    // reqArgs = request.data;\n    // store = callback.data;\n    state = callback.id;\n  }\n\n}\n\n\n\n\n\n\n\n\n\n",
  "sourcePath": "/mnt/64706A3C706A1558/CAC/Projekte/2019_PL4Blockchain/CodeRepo/EvaluationCode/contracts/CheckConstantDeploymentOverhead.sol",
  "compiler": {
    "name": "solc",
    "version": "0.8.1+commit.df193b15.Emscripten.clang"
  },
  "schemaVersion": "3.2.5",
  "updatedAt": "2021-04-14T08:10:25.087Z",
  "devdoc": {
    "kind": "dev",
    "methods": {},
    "version": 1
  },
  "userdoc": {
    "kind": "user",
    "methods": {},
    "version": 1
  }
}