{
  "contractName": "Test2",
  "abi": [
    {
      "inputs": [],
      "stateMutability": "nonpayable",
      "type": "constructor"
    },
    {
      "anonymous": false,
      "inputs": [],
      "name": "Ev",
      "type": "event"
    },
    {
      "inputs": [],
      "name": "modify",
      "outputs": [],
      "stateMutability": "nonpayable",
      "type": "function"
    },
    {
      "inputs": [],
      "name": "modifyTwo",
      "outputs": [],
      "stateMutability": "nonpayable",
      "type": "function"
    }
  ],
  "bytecode": "0x6080604052348015600f57600080fd5b50633c1d187860005560a0806100266000396000f3fe6080604052348015600f57600080fd5b506004361060325760003560e01c806349842ba514603757806364cf33b8146037575b600080fd5b603d603f565b005b6040517f5d91a2ed2d89c7f53a48d7e2cd926f2b475e28e282ca9ad5421abee5dd6858e690600090a156fea2646970667358221220f84db5222877cdf12e4cfca221fb414ef7762335740cb36e1cf9b799c91a081464736f6c63430008010033",
  "immutableReferences": {},
  "source": "// SPDX-License-Identifier: UNLICENSED\n// compiled with GUARD_ERROR_MESSAGES=false\npragma solidity >=0.8.0;\npragma abicoder v2;\n\ncontract Test1  {\n  \n  event Ev();\n  \n  function modify() public {\n  \temit Ev();\n  }\n  \n  function modifyTwo() public {\n  \temit Ev();\n  }\n  \n  constructor() {\n  }\n\n}\n\n\ncontract Test2  {\n  \n  event Ev();\n  uint state;\n  \n  function modify() public {\n  \temit Ev();\n  }\n  \n  function modifyTwo() public {\n  \temit Ev();\n  }\n  \n  constructor() {\n      state = 0x3c1d1878;\n  }\n\n}\n\n\ncontract Test3  {\n  \n  event Ev();\n  uint state;\n  \n  function modify() public {\n  \temit Ev();\n  \tstate = 0x33ca83cb;\n  }\n  \n  function modifyTwo() public {\n  \temit Ev();\n  \tstate = 0x902c83b9;\n  }\n  \n  constructor() {\n      state = 0x3c1d1878;\n  }\n\n}\n\ncontract Test4  {\n  \n  event Ev();\n  uint public state;\n  \n  function modify() public {\n  \temit Ev();\n  \tstate = 0x33ca83cb;\n  }\n  \n  function modifyTwo() public {\n  \temit Ev();\n  \tstate = 0x902c83b9;\n  }\n  \n  constructor() {\n      state = 0x3c1d1878;\n  }\n\n}\n\n\n\n\n\n\n\n\n\n",
  "sourcePath": "/mnt/103A12BD3A129FB0/CAC/Projekte/2019_PL4Blockchain/CodeRepo/EvaluationCode/contracts/CheckConstantDeploymentOverhead.sol",
  "compiler": {
    "name": "solc",
    "version": "0.8.1+commit.df193b15.Emscripten.clang"
  },
  "schemaVersion": "3.4.3",
  "updatedAt": "2021-10-01T09:20:25.100Z",
  "devdoc": {
    "kind": "dev",
    "methods": {},
    "version": 1
  },
  "userdoc": {
    "kind": "user",
    "methods": {},
    "version": 1
  }
}